:020000040800F2
:10000000404E002081020008E71900084112000854
:10001000E5190008B1030008FD1F000800000000FA
:10002000000000000000000000000000C101000806
:10003000B3030008000000001D020008F1190008C9
:100040009B0200089B0200089B0200089B0200081C
:100050009B0200089B0200089B0200089B0200080C
:100060009B0200089B0200089B0200089B020008FC
:100070009B0200089B0200089B0200089B020008EC
:100080009B0200089B0200089B0200089B020008DC
:100090009B0200089B0200089B0200089B020008CC
:1000A0009B020008F51A00089B0200089B0200084A
:1000B0009B0200089B0200089B0200089B020008AC
:1000C0009B0200089B0200089B0200089B0200089C
:1000D0009B020008F11F00089B0200089B02000819
:1000E0009B0200089B0200089B0200089B0200087C
:1000F0009B0200089B0200089B0200089B0200086C
:100100009B0200089B0200089B0200089B0200085B
:100110009B0200089B0200089B0200089B0200084B
:100120009B0200089B0200089B0200089B0200083B
:100130009B0200089B0200089B0200089B0200082B
:100140009B0200089B0200089B0200089B0200081B
:100150009B0200089B0200089B0200089B0200080B
:100160009B0200089B0200089B0200089B020008FB
:100170009B0200089B0200089B0200089B020008EB
:100180009B0200089B0200089B0200089B020008DB
:100190009B0200089B0200089B0200089B020008CB
:1001A0009B0200089B0200089B020008DFF80CD0AD
:1001B00000F0ECF8004800473D200008404E0020C9
:1001C0002C4B19680868B0E8F04F80F30988BFF33A
:1001D0006F8F4FF0000080F311887047000000001F
:1001E00008480068006880F308884FF0000080F33A
:1001F000148862B661B6BFF34F8FBFF36F8F00DF15
:1002000000BF00BF08ED00E0DFF80C00016841F41A
:1002100070010160704700BF88ED00E0EFF30980D6
:10022000BFF36F8F134B1A681EF0100F08BF20ED3D
:10023000108A20E9F04F106009B44FF0500080F3AD
:100240001188BFF34F8FBFF36F8F02F0E9FD4FF0BE
:10025000000080F3118809BC19680868B0E8F04F05
:100260001EF0100F08BFB0EC108A80F30988BFF3AE
:100270006F8F704724000020EFF305807047000067
:100280000648804706480047FEE7FEE7FEE7FEE730
:10029000FEE7FEE7FEE7FEE7FEE7FEE7A11A00083D
:1002A000AD0100082DE9F05F0546002092469B460F
:1002B00088460646814640241BE02846414647467C
:1002C000224600F053F853465A46C01A914110D3C3
:1002D00011461846224600F03AF82D1A67EB01083D
:1002E0004F4622460120002100F031F817EB0009AB
:1002F0004E41201EA4F10104DFDC484631462A4667
:100300004346BDE8F09F40EA01039B0703D009E0A4
:1003100008C9121F08C0042AFAD203E011F8013BF1
:1003200000F8013B521EF9D27047D2B201E000F84A
:10033000012B491EFBD270470022F6E710B5134689
:100340000A4604461946FFF7F0FF204610BD202A52
:1003500004DB203A00FA02F1002070479140C2F11C
:10036000200320FA03F3194390407047202A04DB4E
:10037000203A21FA02F00021704721FA02F3D0401E
:10038000C2F120029140084319467047064C074DC0
:1003900006E0E06840F0010394E807009847103455
:1003A000AC42F6D3FFF706FFC4380008E438000873
:1003B000FEE7704770B5B3F5804F05D06FF0704120
:1003C00040F82210002070BD50F82240084B8E8962
:1003D0001C40D1E9003543EA05138D6889692D0277
:1003E00045EA06452B430B43234340F82230E9E717
:1003F0000000F0CFF0B50C6850F82430174A1340D5
:10040000D1E90125D1E903672A433E4332434E69CE
:1004100032438E693243CE6932430E6A32434E6AAA
:1004200032438E6A3243CE6A3243CE6B32430E6B16
:1004300032434E6B32431A43082D01D142F0400241
:1004400040F824204A6BB2F5801F05D1096819B124
:10045000016841F4801101600020F0BD8000E0FFE0
:10046000F0B500EB8204626802F04045D1E9002358
:1004700042EA03128B688E891B0243EA06431A4341
:100480000E8A0D4B03EB065632430E7D5F0107EBE0
:10049000066632438E6932432A4362600268D202A2
:1004A00007D54268098A22F4700203EB0151114317
:1004B00041600020F0BD00000000F0FF90F8351012
:1004C000022903D08021416501207047052180F871
:1004D00035100068016821F00101016000207047BB
:1004E000F0B587B014216846FFF726FF1E48016863
:1004F000002937D1012101601C480024026842F024
:100500000102026000680225CDE9001500F001003B
:100510000C270326CDE90470CDE90246694614484C
:1005200000F02EF84FF68070CDE9000502AA69466A
:1005300082E8D0000F4800F023F84CF23370CDE988
:10054000000502AA694682E8D0000B4800F018F8BE
:10055000E802CDE9000502AA694682E8D000074812
:1005600000F00EF807B0F0BD0C0000203838024053
:100570000014024000100240000C0240001802402B
:100580002DE9F84FDFF890B100224FF001084FF04D
:10059000030A4FF00F090BF1040E00BF0B6808FAB5
:1005A00002F42340A3426ED14D68022D01D0122DDA
:1005B0000ED1D50800EB850CDCF820505607F70E5D
:1005C00009FA07F6B5430E69BE402E43CCF8206009
:1005D000066855000F790AFA05FC07F0030726EABA
:1005E0000C06AF40374307604E68012E05D0022E3F
:1005F00003D0112E01D0122E0ED18768CE6827EAC3
:100600000C07AE403E4386604668A6430C79C4F3AF
:100610000014944034434460C4688E6824EA0C0497
:10062000AE402643C6604C68E4006FD53B4C25685D
:1006300045F480452560246822F0030504F48044D5
:100640000094374C2E19D6F8084895072F0F09FA51
:1006500007F5AC43334DA84201D100252EE0324DC1
:10066000A84201D1012529E0304DA84201D102253F
:1006700024E02F4DA84201D103251FE02D4DA842B3
:1006800002D104251AE041E02B4DA84201D10525F5
:1006900014E02A4DA84201D106250FE0284DA842BA
:1006A00001D107250AE0274DA84201D1082505E020
:1006B000254DA84201D1092500E00A25BD4025436A
:1006C000C6F80858DBF800405D464E689C43F603C8
:1006D00000D51C432C60DEF8004075464E689C43F4
:1006E000B60300D51C432C600B4D08352C684E68B2
:1006F0009C43F60200D51C432C60074D0C352C683A
:100700004E689C43B60200D51C432C60521C102A34
:10071000FFF444AFBDE8F88F003C0140443802408C
:100720000030014000000240000402400008024086
:10073000000C024000100240001402400018024069
:10074000001C02400020024000240240426931EABD
:10075000020200D10904816170470AB181617047CA
:100760000904FBE70148806870470000140000207E
:1007700002488168027811448160704714000020AB
:100780000B4810B5016841F400710160016841F443
:1007900080610160016841F480710160032000F014
:1007A0008DF8002000F006F800F03EF8002010BDA3
:1007B000003C024010B5014688B00022192000F02C
:1007C0005DF8192000F04CF813480024016841F04E
:1007D00001010160006805A900F00100069068466B
:1007E00000F016F900F044F90C494000B0FBF1F1BB
:1007F0000C480B4A491E026040F2E732C0E903246C
:10080000C0E9011400F033FB10B1012008B010BDA5
:10081000044800F048FBF9E74438024040420F002A
:10082000000001402C0100200C4882B0016841F416
:1008300080410160006800F4804000900748001F7C
:10084000016841F0805101600068002200F0805092
:1008500000900F21901E02B000F010B84438024002
:10086000002809DB00F01F020121914040098000AF
:1008700000F1E020C0F8001170470000F0B40E4B0A
:100880001B680C46C3F30223C3F10705042D00D9EE
:100890000425191D072901D2002300E0DB1E0126D3
:1008A00006FA05F1491E214099409E40761E1640E9
:1008B0003143F0BC01F0A3BB0CED00E0064900F0B1
:1008C000070208684FF6FF03184040EA0220034A77
:1008D00010430860704700000CED00E00000FA05CE
:1008E0002DE9F0470E46050065D0DFF81481D8F8F1
:1008F0000000F7B200F00F00B04207D288F8007095
:10090000D8F8000000F00F00B04254D128683D4CE8
:10091000810712D5400703D5206840F4E0502060DD
:100920002878000703D5206840F4604020602068E4
:10093000A96820F0F000084320602878C0072DD077
:10094000304968680839012812D0022813D00328DA
:1009500011D00968890700292DDA216821F00301E7
:1009600001432160FFF7FEFE814641F2883A0EE026
:1009700009688903EFE709688901ECE7FFF7F2FEF0
:10098000A0EB0901514502D90320BDE8F08720689A
:10099000696800F00C00B0EB810FEFD1D8F80010BF
:1009A000404601F00F01B14207D90770006800F01E
:1009B0000F00B04201D00120E7E72878400705D5B5
:1009C0002068E96820F4E050084320602878000798
:1009D00006D52068296920F4604040EAC100206003
:1009E00000F056F82168084AC1F30311515CC84071
:1009F000064908600020FFF7DDFE0020C5E7000083
:100A0000003C0240083802409438000820000020D2
:100A10000F2202600C4A136803F00303436013685B
:100A200003F0F0038360136803F4E053C3601268BB
:100A30004FF4E05303EAD20202610448006800F078
:100A40000F0008607047000008380240003C024078
:100A50000448054900680968044AC1F38221515CD1
:100A6000C84070472000002008380240A438000821
:100A70000448054900680968044AC1F34231515CE1
:100A8000C84070472000002008380240A438000801
:100A9000154810B5006810F00C02144813D0144922
:100AA000042A0FD0082A0ED10F4C241F2268236875
:100AB00002F03F025B0207D52068C0F38810A0FB5C
:100AC000010106E0084610BD2168C1F38811A1FBB1
:100AD00000010023FFF7E6FB2168C1F30141491C37
:100AE0004900B0FBF1F010BD083802400024F400CA
:100AF00040787D012DE9F84F050076D02878DFF8A1
:100B0000F8B2BE4CC00749D0DBF800105846C1F31C
:100B10008101012908D00068C0F3810002280AD1B0
:100B2000201D0068400206D52068800336D568681D
:100B30000028E2D032E06868B0F5803F10D0B0F510
:100B4000A02F206810D020F480302060206820F48E
:100B5000802020606868A0B1FFF704FE06460CE024
:100B6000206840F48030F4E740F480202060F7E70C
:100B7000FFF7F8FD801B642873D820688003F7D541
:100B80000CE0FFF7EFFD064605E000BFFFF7EAFDCA
:100B9000801B6428F0D820688003F7D42878DFF819
:100BA000608280074FF000093ED5DBF80010584600
:100BB00011F00C0F09D00068C0F3810002280BD19E
:100BC0008D48001F0068400206D42068800715D5B4
:100BD000E868012809D111E0E868B8B10120C8F837
:100BE0000000FFF7BFFD064605E002E1FFF7BAFD92
:100BF000801B0228C0D820688007F7D520682969A3
:100C000020F0F80040EAC10020600DE0C8F8009034
:100C1000FFF7A8FD064604E0FFF7A4FD801B0228AD
:100C20001FD820688007F7D42878000722D5724E95
:100C3000744869696C3671B101210160FFF792FD5A
:100C4000074604E0FFF78EFDC01B022809D8306874
:100C50008007F7D50EE0C0F80090FFF783FD074648
:100C600005E083E0FFF77EFDC01B02287ED83068D8
:100C70008007F7D42878400768D5DFF87CA10027E3
:100C80000AF1380ADAF80000C0000BD4DAF80010D4
:100C900041F08051CAF80010DAF80000012700F096
:100CA00080500090584E3068C00510D4306840F431
:100CB00080703060FFF756FD009005E0FFF752FDB1
:100CC0000099401A022851D83068C005F6D54A4E1E
:100CD000A868683601280FD00528306810D020F0A9
:100CE00001003060306820F004003060A868B8B1BE
:100CF000FFF738FD00900FE0306840F00100F4E7A6
:100D000040F004003060F7E7FFF72CFD0099411A2E
:100D100041F28830814264D830688007F4D50EE013
:100D2000FFF720FD009007E0FFF71CFD0099411A36
:100D300041F28830814254D830688007F4D42FB112
:100D4000DAF8001021F08051CAF80010A869C0B389
:100D5000DBF80010C1F3810102294AD0022848467D
:100D600007D0C8F86000FFF7FDFC00E039E0054659
:100D70003AE04746C8F86000FFF7F4FC064604E096
:100D8000FFF7F0FC801B02282BD820688001F7D4E5
:100D9000D5E907010843A96A1C4A490802EB014149
:100DA0006A6A41EA8211084395F82C1040EA016111
:100DB0001148001F016001203866FFF7D3FC05468B
:100DC00005E014E0FFF7CEFC401B022809D820689C
:100DD0008001F7D50BE000BFFFF7C4FC401B0228E1
:100DE00002D90320BDE8F88F20688001F4D40020E8
:100DF000F8E70120F6E7000008380240003802401A
:100E000000004742800E4742007000400000FFFF94
:100E100070B515460E46040003D094F8490010B191
:100E200007E0012070BD002084F84800204600F053
:100E30001AF804F108012068FFF7DCFA3146A268CD
:100E40002068FFF70DFBD4E901022946236BFFF769
:100E5000B1FAA168206850F8212042F0010240F860
:100E60002120002070BDFFF73BBB7047704710B5D5
:100E7000040003D094F83D0010B107E0012010BD3C
:100E8000002084F83C00204600F00CF8022084F892
:100E90003D00211D206800F033FE012084F83D0054
:100EA000002010BD70470168CA6842F00102CA60A4
:100EB0000068816801F00701062903D0016841F04C
:100EC0000101016000207047704770B5044600685A
:100ED00001694FF00005C943890715D4C168C943AA
:100EE000890711D4E91E01610120207720688069FB
:100EF0008007204602D0FFF7E7FF04E000F098F8F3
:100F0000204600F096F8257720680169C943490713
:100F100017D4C168C943490713D46FF004010161B4
:100F2000022020772068806910F4407F204602D09C
:100F3000FFF7CAFF04E000F07BF8204600F079F8E4
:100F4000257720680169C943090716D4C168C943D8
:100F5000090712D46FF0080101610420207720688E
:100F6000C0698007204602D0FFF7AEFF04E000F022
:100F70005FF8204600F05DF8257720680169C943D5
:100F8000C90617D4C168C943C90613D46FF010014C
:100F90000161082020772068C06910F4407F204656
:100FA00002D0FFF791FF04E000F042F8204600F085
:100FB00040F8257720680169C943C90708D1C1688D
:100FC000C943C90704D1891E0161204600F032F8E7
:100FD00020680169C943090609D4C168C9430906E3
:100FE00005D46FF0800101612046FFF73EFF2068C5
:100FF0000169C943490609D4C168C943490605D4F2
:101000006FF040010161204600F01EF82068016980
:10101000C94389060BD4C168C943890607D46FF058
:10102000200101612046BDE87040FFF71FBF70BD81
:101030007047704700680349884201D1FFF798BBA9
:1010400070470000000001407047704770B50268AB
:1010500004461068D168536910F00F0F50D003F0A8
:10106000010501F4907635435DD0C20705D0CA056D
:1010700003D5E26B42F00102E263420705D5DA07CD
:1010800003D0E26B42F00202E263820705D5DA0781
:1010900003D0E26B42F00402E263020705D5DA07EF
:1010A00003D0E26B42F00802E263E26B002A33D025
:1010B000800604D5880602D5204600F0C5FD2068CC
:1010C0004069E16BC0F38010090700D428B32046C3
:1010D00000F0ACFD2068416949061AD5416921F04C
:1010E00040014161606BA0B11B490165606BFFF776
:1010F000E5F9002810D0606B016DBDE8704008472D
:10110000830610D58B060ED52046BDE8704000F052
:101110009BBD2046FFF799FF70BD2046FFF795FF66
:101120000020E06370BD030606D50B0604D52046FB
:10113000BDE8704000F02ABF4006F3D54806F1D55F
:10114000D168204621F04001D160202184F8391077
:1011500000F075F870BD00001D1C000870B504009B
:1011600004D094F83900002510B106E0012070BDCC
:1011700084F83850204600F023F8242084F8390001
:101180002068C16821F40051C160204600F0A8FD2C
:101190002068016921F4904101612068416921F0D2
:1011A0002A0141612068C16841F40051C160E563D2
:1011B000202084F8390084F83A00002070BD000037
:1011C00010B586B0044614216846FFF7B5F81849F3
:1011D0002068884229D11748016841F01001016058
:1011E000006800F01000059012481438016841F0C2
:1011F000010101600068694600F0010005904FF4AC
:10120000C060009002200190012002900320039012
:10121000072004900848FFF7B3F900220521252094
:10122000FFF72CFB2520FFF71BFB06B010BD0000CD
:1012300000100140443802400000024070477047EF
:10124000FEE730B50546002440F23F11204600F08D
:101250000DFB4FF0D841222008804FF496304D808E
:10126000641C8442FBD330BD2DE9F04F87B00024CD
:10127000142168460594FFF75FF8FE48016841F0C5
:10128000040101600068FC4D00F00400059001229B
:1012900080212846FFF761FA802000900120CDE9E7
:1012A0000104694628460394FFF76AF9002000F01C
:1012B000D8FA0590030049F2203249F2253148F668
:1012C000891009D040F6FF74A34205D3834204D0AD
:1012D000934202D08B4200D00590E84C059B4FF41E
:1012E00000462380DDF814C0F3114FF4E06740F2AC
:1012F000022840F2371940F2391A40F2023440F223
:10130000077B40F23F1594457DD13146E52000F042
:10131000D9FA0121002000F0D5FA1946012000F089
:10132000D1FA3946022000F0CDFA41F23001032013
:1013300000F0C8FA0021042000F0C4FA4146082059
:1013400000F0C0FA0021092000F0BCFA00210A20B8
:1013500000F0B8FA00210C2000F0B4FA00210D20B2
:1013600000F0B0FA00210F2000F0ACFA00211020AC
:1013700000F0A8FA0021112000F0A4FA00211220A8
:1013800000F0A0FA0021132000F09CFA142001F0D4
:1013900093FC41F2B071102000F094FA49461120FC
:1013A00000F090FA052001F087FC5146122000F071
:1013B00089FA052001F080FC4FF4E851132000F079
:1013C00081FA1321292000F07DFA052001F074FC38
:1013D0000021202000F076FA0021212000F072FA8E
:1013E0000621302000F06EFA40F20111312000F0A9
:1013F00069FA0321322000F065FA4FF48371352039
:1014000000F060FA00E070E040F60231362000F0B3
:1014100059FA2146372000F055FA5946382000F095
:1014200051FA0721392000F04DFA4FF4C0613C20F9
:1014300000F048FA40F20B213D2000F043FA002171
:10144000502000F03FFAEF21512000F03BFA00213C
:10145000522000F037FA2946532000F033FA4FF4B7
:101460001C51602000F02EFA0121612000F02AFAC0
:1014700000216A2000F026FA0021802000F022FAE4
:101480000021812000F01EFA0021822000F01AFACB
:101490000021832000F016FA0021842000F012FAC7
:1014A0000021852000F00EFA1021902000F00AFAA9
:1014B0000021922000F006FA0321932000F002FAA6
:1014C0004FF48871952000F0FDF90021972000F07D
:1014D000F9F90021982000F0F5F941F218010320F4
:1014E00000F0F0F940F27311B9E1624684457DD114
:1014F0000121002000F0E6F90021102000F0E2F9BF
:10150000052001F0D9FB40F233231946072000F0F3
:10151000D9F946F27801112000F0D4F94FF4C061F6
:10152000022000F0CFF94AF6A401032000F0CAF926
:1015300000210C2000F0C6F940F60C010D2000F04F
:10154000C1F94FF424510E2000F0BCF9B8211E203F
:1015500000F0B8F942F63F11012000F0B3F9002184
:10156000102000F0AFF90021052000F0ABF90021B8
:10157000062000F0A7F94EF61C71162000F0A2F923
:101580000321172000F09EF91946072000F09AF970
:10159000C0210B2000F096F900210F2000F092F9F5
:1015A0000021412000F08EF90021422000F08AF94C
:1015B0000021482000F086F92946492000F082F9F0
:1015C00000214A2000F07EF900214B2000F07AF93A
:1015D0004FF46F41442000F075F90021452000F0E0
:1015E00071F92946462000F06DF900E04AE05946BD
:1015F000302000F067F94FF401731946312000F0F4
:1016000061F91946322000F05DF940F20255294691
:10161000332000F057F9691D342000F053F91946C2
:10162000352000F04FF91946362000F04BF92946D5
:10163000372000F047F921463A2000F043F92146CF
:101640003B2000F03FF90021232000F03BF900216E
:10165000242000F037F93146252000F033F900212D
:101660004E2000F02FF900215FF04F0000F02AF922
:1016700007B005E0303802400008024000000020BA
:10168000BDE8F08F8A42F3D10121002000F01AF961
:101690001946012000F016F93946022000F012F92F
:1016A00041F21801032000F00DF90021042000F0A0
:1016B00009F94146082000F005F90021092000F051
:1016C00001F900210A2000F0FDF800210C2000F0B3
:1016D000F9F800210D2000F0F5F800210F2000F0AE
:1016E000F1F80021102000F0EDF80021112000F0A9
:1016F000E9F80021122000F0E5F80021132000F0A5
:10170000E1F8142001F0D8FA41F2B071102000F095
:10171000D9F84946112000F0D5F8052001F0CCFA9F
:101720005146122000F0CEF8052001F0C5FA4FF422
:10173000E851132000F0C6F81321292000F0C2F868
:10174000052001F0B9FA0021202000F0BBF80021AB
:10175000212000F0B7F80721302000F0B3F821462F
:10176000312000F0AFF840F205131946322000F0A6
:10177000A9F840F206242146352000F0A3F840F6EF
:1017800008063146362000F09DF82146372000F04B
:1017900099F840F20451382000F094F807213920DC
:1017A00000F090F819463C2000F08CF831463D20BE
:1017B00000F088F80021502000F084F8EF2151203B
:1017C00000F080F80021522000F07CF829465320D8
:1017D00000F078F84FF42741602000F073F8012101
:1017E000612000F06FF800216A2000F06BF8002102
:1017F000802000F067F80021812000F063F80021CC
:10180000822000F05FF80021832000F05BF80021C7
:10181000842000F057F80021852000F053F81021B3
:10182000902000F04FF80021922000F04BF80321A7
:10183000932000F047F84FF48871952000F042F8AB
:101840000021972000F03EF80021982000F03AF89F
:1018500041F20801032000F035F840F2331107206F
:1018600004E74FF0D8410880488870470346144881
:1018700010B500880C46A0F50941893910D0A0F5B3
:101880001341253913D02146202000F01BF8A3F284
:101890003F13584281B22120BDE8104000F012B839
:1018A00019464E2000F00EF821464F20F4E7194665
:1018B000202000F007F8A4F23F146042EAE700009D
:1018C000000000204FF0D842108051807047000087
:1018D00000B587B01C216846FEF72EFD14484FF076
:1018E00020411022016013494160062181600021DE
:1018F000C160C0E904128161C16112020162C0E9E4
:101900000912C162016341638163C16341640920BB
:10191000CDE900010820CDE9020140060491CDE99E
:101920000510002269460248FFF772FA07B000BDB1
:10193000DC000020040100A070B586B014216846C8
:10194000FEF7FAFC25480024016841F020010160FF
:10195000016801F020010591016841F080010160FA
:10196000016801F080010591016841F010010160FA
:10197000016801F010010591016841F00801016062
:10198000016801F008010591016841F00101016061
:10199000016801F001010591016841F04001016019
:1019A00000680F4E00F040004FF460750590002273
:1019B00029463046FEF7D1FE01200095CDE901040D
:1019C000694630460394FEF7DBFD01224FF4C071F7
:1019D0003046FEF7C2FE06B070BD0000303802404F
:1019E00000140240FEE77047012000F069FBFBE7AE
:1019F00010B5502080F31188BFF34F8FBFF36F8F66
:101A000001F082FD18B104494FF0805008600020B9
:101A100080F3118810BD000004ED00E030B593B0F4
:101A200030216846FEF788FC14210CA8FEF784FCE0
:101A300019480025016841F080510160006800F0FC
:101A4000805011901548016841F4404101600068E0
:101A5000022400F440401190012000900004019005
:101A60008001CDE9064010200890C020CDE909048E
:101A700004200B906846FFF73DF80CA90F2081E881
:101A800031004FF4A0500F90E002109004210CA8F8
:101A9000FEF726FF13B030BD403802400070004012
:101AA0001048016841F4700101600F48016841F07D
:101AB000010101600C4A00210832116002680B4BE1
:101AC0001A400260031D0A4A1A60026822F480224A
:101AD000026005480C3001600249580680390860F0
:101AE0007047000088ED00E000380240FFFFF6FE7E
:101AF000103000240148FFF7E8B900002C01002055
:101B0000F0B50268254C264D264E274F274B4FF047
:101B1000804CA04209D0604507D0A84205D0B04211
:101B200003D0B84201D0984204D122F0700E4A6826
:101B300042EA0E02A0421BD0604519D0A84217D03D
:101B4000B04215D0B84213D0984211D0184DA842D7
:101B50000ED0184DA8420BD0174DA84208D0174DF3
:101B6000A84205D0164DA84202D0164DA84203D176
:101B700022F44075CA682A434D6922F080022A4344
:101B800002608A68C2620A688262A04201D09842FA
:101B900001D10969016301214161F0BD00000140EB
:101BA0000004004000080040000C00400004014018
:101BB000004001400044014000480140001800403E
:101BC000001C0040002000404FF4FA7001F074F84F
:101BD000FFF74AFBDFF840804FF478454FF47A7402
:101BE0004FF4FC664FF460772846FFF72AFB204647
:101BF00001F062F83046FFF724FB204601F05CF864
:101C00001F20FFF71EFB204601F056F839464046DC
:101C1000FEF79CFDE8E700000014024010B5806B61
:101C20000021C185C184FFF710FA10BD0168CA68A0
:101C300022F49072CA6001684A6922F001024A6186
:101C4000202180F83A10704710B590F83A102229F8
:101C500001D0022010BD8168B1F5805F11D001690B
:101C6000002901681FD0496801F07F03816A4A1C7E
:101C700082620B70C18D491E0904090CC18518D000
:101C80002BE00269816A002A0268526805D0D2B24C
:101C90000A80816A491C8162ECE7C2F308020A806B
:101CA000816A891CF7E74A68816A4B1C83620A7063
:101CB000E0E70168CA6822F02002CA600168CA68C9
:101CC00022F48072CA6001684A6922F001024A6106
:101CD000202180F83A10FFF7B1FA002010BD000073
:101CE0002DE9F041044600680169E26821F44051A1
:101CF000114301612169A068E269084361691143E8
:101D000022680843D16849F20C6399430143D160CA
:101D100020684169A26921F4407111434161E2697F
:101D20006425B2F5004F9748974922684FF0320872
:101D30003FD08A4201D082427CD1FEF799FE00EB6F
:101D4000C00101EB001061688900B0FBF1F6FEF7FD
:101D50008FFE00EBC00101EB001061688900B0FB51
:101D6000F1F0B0FBF5F06FF01801484306EB80018D
:101D700008EB0110B0FBF5F000F0F006FEF778FE7E
:101D800000EBC00101EB001061688900B0FBF1F0CD
:101D9000B0FBF5F006EB0016FEF76AFE00EBC001A3
:101DA00001EB001061688900B0FBF1F7FEF760FEFF
:101DB000D2E08A4201D082423DD1FEF759FE00EBCB
:101DC000C00101EB001061684900B0FBF1F0B0FB0D
:101DD000F5F00601FEF74CFE00EBC00101EB001030
:101DE00061684900B0FBF1F7FEF742FE00EBC0016D
:101DF00001EB001061684900B0FBF1F0B0FBF5F0B9
:101E00006FF01801484307EB800108EBC100B0FBFD
:101E1000F5F000F0F80006EB4006FEF729FE00EBB7
:101E2000C00101EB001061684900B0FBF1F7FEF75B
:101E30001FFE3CE055E0FEF70BFE00EBC00101EB9E
:101E4000001061684900B0FBF1F0B0FBF5F006014D
:101E5000FEF7FEFD00EBC00101EB001061684900D8
:101E6000B0FBF1F7FEF7F4FD00EBC00101EB001051
:101E700061684900B0FBF1F0B0FBF5F06FF01801BC
:101E8000484307EB800108EBC100B0FBF5F000F020
:101E9000F80006EB4006FEF7DBFD00EBC00101EBAE
:101EA000001061684900B0FBF1F7FEF7D1FD00EBCF
:101EB000C00101EB001061684900B0FBF1F0B0FB1C
:101EC000F5F06FF01801484307EB800108EBC10003
:101ED000B0FBF5F000F00700216830448860BDE8F1
:101EE000F081FEF7B5FD00EBC00101EB0010616869
:101EF0008900B0FBF1F6FEF7ABFD00EBC00101EB92
:101F0000001061688900B0FBF1F0B0FBF5F06FF0F4
:101F10001801484306EB800108EB0110B0FBF5F017
:101F200000F0F006FEF794FD00EBC00101EB00109D
:101F300061688900B0FBF1F0B0FBF5F006EB00162C
:101F4000FEF786FD00EBC00101EB0010616889001F
:101F5000B0FBF1F7FEF77CFD00EBC00101EB0010D8
:101F600061688900B0FBF1F0B0FBF5F06FF018018B
:101F7000484307EB800108EB0110B0FBF5F000F0DF
:101F80000F00A9E7001401400010014090F839103B
:101F9000212901D0022070478168B1F5805F016A74
:101FA0000BD04A1C0262026809785160C18C491E3C
:101FB0000904090CC1840ED017E009880268C1F336
:101FC0000801516001690029016A02D0491C0162BF
:101FD000ECE7891CFBE70168CA6822F08002CA604E
:101FE0000068C16841F04001C160002070470000F6
:101FF0000148FFF72BB800009C000020FEE709070E
:10200000090E002804DB00F1E02080F8001470477E
:1020100000F00F0000F1E02080F8141D704702E08E
:1020200008C8121F08C1002AFAD170477047002063
:1020300001E001C1121F002AFBD1704792B0FEF7E8
:102040009FFBFFF7EBFCFFF777FCFFF741FC17481E
:1020500015490C2201604FF4E1314160002181609B
:10206000C160C0E904128161C161FFF777F800F037
:1020700041F824220E496846FEF745F96A460021D8
:102080000C4800F073F80C4C0949242220602431DC
:1020900009A8FEF738F909AA0021084800F066F8F7
:1020A000606000F043F8FEE7001001409C00002053
:1020B0004C380008E919000804000020C91B00087A
:1020C00010B5EFF3058149B9EFF3108131B9084933
:1020D0000968022905D1EFF3118111B16FF00504F0
:1020E00003E0002408B100F0E7FD204610BD000029
:1020F00074000020EFF3058058B9EFF3108040B969
:1021000009490868022801D030B109E0EFF31180D5
:1021100030B16FF005007047012008600020704763
:102120004FF0FF30704700007400002010B5EFF34F
:10213000058060B9EFF3108048B90B4908680228A0
:1021400002D0012806D00BE0EFF3118040B16FF010
:10215000050010BD0220086000F016FE002010BD32
:102160004FF0FF3010BD000074000020F0B585B0C6
:102170004FEA01034FF00004EFF305810394A1BB84
:10218000EFF3108189BB21490968022902D1EFF3DD
:10219000118151BB48B3802618218DF8104004AD41
:1021A00042B3176807B13D4697691FB139467F1E94
:1021B000382F02D21779FF0702D0002005B0F0BDFA
:1021C000576907B1BE08D2F808C0BCF1000F0DD0A6
:1021D000D4685C2C18D312693AB137B18DE8061077
:1021E0003246294601F051F903900DE0D7685FB9F6
:1021F00012694AB903AACDE90012B2B2294601F028
:1022000017F9012800D003940398D7E77400002041
:102210002DE9F041134C0F46054666692068001D04
:1022200000F01AFC681C07D137B12168BDE8F04105
:102230000D48091D00F060BC20683544B54245607A
:10224000216805D2A068BDE8F041091D00F03CBC42
:102250006068091D00F038FC206B854200D22563C0
:10226000BDE8F081240000205C0600202DE9F0414B
:10227000054600F04DFC2D4C2069401C2061206873
:102280002B4F10B1E06930B32BE0256020690128A5
:1022900027D1002606EB860007EB800000F006FC45
:1022A000761C382EF6D3234800F000FC2148143069
:1022B00000F0FCFB1F48283000F0F8FB1D483C30C4
:1022C00000F0F4FB1B48503000F0F0FB1948606050
:1022D0001430A06005E02068E96AC06A884200D82E
:1022E0002560E06A401CE0626864E86AA16988428F
:1022F00000D9A06100EB800007EB8000291D00F0F1
:10230000FBFB00F025FCE06900280CD02068E96A9E
:10231000C06A884207D208494FF080500860BFF376
:102320004F8FBFF36F8FBDE8F081000024000020C5
:10233000AC0100200C06002004ED00E038B500F0F0
:10234000E7FB104CA068C8B90F4800F0AFFB0E487F
:10235000143000F0ABFB0C482060143060600A4B76
:1023600000202833009003F1500210210A2000F0D1
:1023700003FEA06010B105A100F068FCBDE8384084
:1023800000F0E6BB6000002070060020546D725122
:102390000000000030B4026C0B46002A0BD0C1686C
:1023A0001144C1604468A14201D30168C16030BCDE
:1023B0001846FDF7A8BF30BC70472DE9F041856B8A
:1023C000174604460026026C82B1C7B1E068FDF7EB
:1023D0009AFFE168206C091AE1602268914202D2FA
:1023E0006168081AE060022F16D017E02068A8B9CB
:1023F000606801F0EDF80646002060600EE0A0681D
:10240000FDF781FF216CA0680844A06061688842E4
:1024100004D32068A06001E005B16D1E6D1CA563AA
:102420003046BDE8F08110B5044690F8590058B127
:1024300001280CD002280FD0502080F31188BFF360
:102440004F8FBFF36F8FFEE7206B00F095FB2046A8
:10245000BDE8104000F090BB10BD000010484FF4E4
:102460007051420706D0C01D0D4920F00700411AE7
:10247000C1F570510B4A00230144C2E90003083939
:10248000103A21F0070111604B600B600B1AC0E994
:10249000001393604FF000405360D060704700001D
:1024A000400E002088000020144E154CA6F29C47D8
:1024B0004FF08058DFF84C9012E000BF00F028FB8E
:1024C000F068C568281D00F0C7FA2069401E206129
:1024D000E068401EE06000F03BFB2846FFF7A3FFEA
:1024E000E0680028EAD138680128F9D9C9F80080E5
:1024F000BFF34F8FBFF36F8FF2E700004806002055
:102500002400002004ED00E070B51D46049C51B18C
:10251000C4F80020C4E90F010121204600F060FD4D
:1025200084F84C5070BD2460F4E72DE9F0470E4666
:10253000DDE909841746824691009946089DA52247
:10254000206BFDF7F2FE6FF00301206B01EB8701BA
:10255000084420F00707780707D0502080F311883F
:10256000BFF34F8FBFF36F8FFEE72218315C82F805
:102570003410315C11B1401C1028F6D3002684F8C9
:102580004360382D00D33725E562C4E91356201D7A
:1025900000F097FA04F1180000F093FA2461C5F1F5
:1025A00038006462A061666584F858604A46514606
:1025B000384600F03BFA2060B8F1000F01D0C8F8AF
:1025C0000040BDE8F087000030B5114900E0114639
:1025D0000A688242FBD34B685C18844203D140688E
:1025E00018444860084643681C18944209D1084CB6
:1025F000103C2468A24209D052681A4442600A681A
:1026000012680260814200D0086030BD0460F9E7C2
:102610008800002070B5002441600B4D006191429C
:1026200006D8D11A8269914206D2011D686807E076
:102630009A4203D2994201D3012403E0011D286884
:1026400000F042FA204670BD6000002010B504463C
:1026500000F05EFAA06B28B15FF0000400F078FA99
:10266000204610BD0124F9E730B589B0304D55E062
:102670000498002806DADDE90601059A90470498D7
:1026800000284BDB069C606910B1201D00F0E4F9C6
:1026900002A800F0B9F8024604980A283ED2DFE802
:1026A00000F00505053D263705053D260598A1697D
:1026B000034601442046FFF7ADFF00B3616A2046A0
:1026C0008847E069012829D1002000900598A16978
:1026D000002342181946204601F084F878B95020AA
:1026E00080F31188BFF34F8FBFF36F8FFEE705981C
:1026F000A06128B1811813462046FFF78BFF0DE03B
:10270000502080F31188BFF34F8FBFF36F8FFEE728
:1027100094F82C0010B9204600F02EFA002204A9EB
:10272000A86800F0AFFD0028A2D109B030BD0000BC
:10273000600000202DE9FC410F46054600F068FBD3
:1027400001A800F061F80446019818B100F0B8FF44
:10275000BDE8FC81224EAFB170680068A8B30027C5
:10276000291B3A46B06800F085FA00F0A9FF00285E
:10277000EED11C494FF080500860BFF34F8FBFF37C
:102780006F8FE5E7A542EBD800F09AFF3068274647
:10279000C068C468201D00F05FF9E069012810D10D
:1027A000A0692B4641193A462046FFF733FF40B156
:1027B00000200346014600902A46204601F012F808
:1027C00020B1616A20468847C2E707E0502080F3C5
:1027D0001188BFF34F8FBFF36F8FFEE70127BFE76D
:1027E0006000002004ED00E006484168096829B156
:1027F0004168C968C9684968016370474FF0FF3193
:10280000FAE700002400002070B5054600F076FECF
:10281000064E04463069844203D200F009F80120D4
:1028200000E0002028602046346170BD6000002078
:10283000F8B5194D1FE0C068C4680668201D00F097
:102840000BF9616A20468847E069012813D1A06925
:102850003044B04206D924616060211D286800F030
:1028600033F908E000200346014600903246204636
:1028700000F0B8FF38B1286801680029DBD1696829
:10288000C5E90010F8BD502080F31188BFF34F8FC9
:10289000BFF36F8FFEE7000060000020084840682B
:1028A000401C4FF0500080F3118804D0BFF34F8FCD
:1028B000BFF36F8FFEE7BFF34F8FBFF36F8FFEE75E
:1028C00090000020074C2068016841B1C0680021D9
:1028D000D0F80000FFF72EFFFFF7C6FEF3E7012157
:1028E0000020F7E7600000202DE9F041044600F0E9
:1028F0000FF994F9455004F1240609E0606A48B1E3
:10290000304600F0A5FE08B100F004FA6D1E6DB26D
:10291000002DF3DC4FF0FF3684F8456000F018F925
:1029200000F0F6F894F9445004F1100709E020692A
:1029300048B1384600F08CFE08B100F0EBF96D1E8E
:102940006DB2002DF3DC84F84460BDE8F04100F086
:10295000FFB800002DE9F0410546002700F058FAC5
:10296000314E306808B9FFF779FDF06805424BD168
:10297000C5B3083568070ED005F00700C0F10800A0
:102980000544680707D0502080F31188BFF34F8FAC
:10299000BFF36F8FFEE72DB37068854234D82248AD
:1029A000103001460C6801E020460C466168A942DF
:1029B00002D221680029F7D131688C4224D00768FF
:1029C0002168016060680837411B10290FD9601920
:1029D000420708D0502080F31188BFF34F8FBFF318
:1029E0006F8FFEE710E041606560FFF7EDFD616805
:1029F0007068401A7060B268904200D2B060F068AF
:102A000001430020C4E9000100F05AFE780707D016
:102A1000502080F31188BFF34F8FBFF36F8FFEE715
:102A20003846BDE8F08100007800002010B5031F93
:102A30004FF080741C601B1F21F001011960191FE9
:102A4000044B0B6014390A60091F6FF0020244380E
:102A50000A6010BD9D280008D0E9013201699A6022
:102A6000D0E901235A604A68824201D182684A60F3
:102A7000002202610868401E086008687047000074
:102A8000034B036003F15C00086080201060704716
:102A900088070020044B036003F15C0008604FF4DA
:102AA0008070106070470000E409002000F1080108
:102AB0004FF0FF32C0E90112C160016100210160E5
:102AC000704700210161704730B50B685A1C02D075
:102AD00000F1080202E0026904E022465468256819
:102AE0009D42FAD953684B6099608A6051600861D1
:102AF0000168491C016030BD42684A6093688B6080
:102B000093685960916008610168491C01607047D1
:102B1000502080F31188BFF34F8FBFF36F8F0A49A6
:102B20004868401C486001280CD10848006810F033
:102B3000FF0F07D0502080F31188BFF34F8FBFF3F2
:102B40006F8FFEE7704700009000002004ED00E06A
:102B50000849486828B1401E486001D180F31188B7
:102B60007047502080F31188BFF34F8FBFF36F8FF2
:102B7000FEE700009000002070B5002827D0144D1B
:102B8000A0F108046168E868014207D1502080F391
:102B90001188BFF34F8FBFF36F8FFEE722683AB102
:102BA000502080F31188BFF34F8FBFF36F8FFEE784
:102BB0008143616000F02CF96068696808446860CE
:102BC0002046FFF701FDBDE8704000F079BD70BD03
:102BD000780000204FF0E02000210161816105496B
:102BE0004FF47A720968B1FBF2F1491E4161072185
:102BF000016170472000002010B5FDF73DFB114931
:102C000010280ED300F1E02090F8F0030A789042EB
:102C100007D2502080F31188BFF34F8FBFF36F8F1F
:102C2000FEE709480068896800F4E060884207D937
:102C3000502080F31188BFF34F8FBFF36F8FFEE7F3
:102C400010BD0000900000200CED00E010B5084B16
:102C5000002200BF53F832401CB1521C082AF9D39D
:102C600010BD43F8321003EBC201486010BD0000F4
:102C70006C01002070B515460E460446FFF748FF6C
:102C800094F944100020491C01D184F8440094F9BF
:102C90004510491C01D184F84500FFF759FFA06B8E
:102CA00028B92A46314604F1240000F051F82046A4
:102CB000BDE87040FFF718BE10B5020014D00F48F1
:102CC000806B38B1502080F31188BFF34F8FBFF372
:102CD0006F8FFEE700F09CF800211046FFF798FA8E
:102CE00000F0EEFC002807D105494FF08050086045
:102CF000BFF34F8FBFF36F8F10BD00002400002083
:102D000004ED00E002498A6A026049694160704747
:102D1000240000200149012048627047240000205F
:102D200010B50C4650B1094909681831FFF7CCFEBF
:102D30002046BDE810400121FFF76ABA502080F319
:102D40001188BFF34F8FBFF36F8FFEE72400002081
:102D500070B514460D4668B10A4909681831FFF785
:102D6000CBFE0CB14FF0FF3521462846BDE8704040
:102D7000FFF74EBA502080F31188BFF34F8FBFF397
:102D80006F8FFEE72400002030B587B00024039445
:102D900005AA04A903A80494FFF772FEDDE9030164
:102DA0000094CDE90110002315A11748059A00F001
:102DB0006CFB164D002868631FD000F0E3FC01286F
:102DC00009D0401C19D1502080F31188BFF34F8FD8
:102DD000BFF36F8FFEE7502080F31188BFF34F8F52
:102DE000BFF36F8F4FF0FF3028630120E8616C6103
:102DF00007B0BDE8304000F045B807B030BD000076
:102E000049444C4500000000A9240008240000208B
:102E10000248816B491C8163704700002400002038
:102E2000164810B5816B11B10121416210BD00211E
:102E300041628169124A01E0B9B1491E01EB810387
:102E400052F82330002BF7D001EB810302EB830211
:102E500002F1080453685B685360A34201D15B68C8
:102E60005360DA680260816110BD502080F31188E0
:102E7000BFF34F8FBFF36F8FFEE7000024000020E9
:102E8000AC0100201CB537480168374A914207D190
:102E9000502080F31188BFF34F8FBFF36F8FFEE791
:102EA00000683149491E884207D1502080F31188BB
:102EB000BFF34F8FBFF36F8FFEE72C490878019067
:102EC000FF20087008788DF800009DF800009DF83C
:102ED000002000F0F000904207D0502080F31188CD
:102EE000BFF34F8FBFF36F8FFEE79DF80000204BBD
:102EF00000F0500018700720986005E09DF8002051
:102F000052008DF80020401E9DF800201206F5D4D6
:102F10009860032807D0502080F31188BFF34F8FAB
:102F2000BFF36F8FFEE74FF4407098600198087010
:102F30000C482030016841F470010160016841F0E3
:102F400070410160FFF746FE00205860FDF75CF914
:102F50000848016841F040410160FDF741F9002057
:102F60001CBD000000ED00E071C20F4100E400E074
:102F70009000002034EF00E038B5049D18B153B143
:102F8000CAB181B120E0502080F31188BFF34F8F88
:102F9000BFF36F8FFEE7502080F31188BFF34F8F90
:102FA000BFF36F8FFEE7502080F31188BFF34F8F80
:102FB000BFF36F8FFEE739B1502080F31188BFF364
:102FC0004F8FBFF36F8FFEE750241C46012384F818
:102FD00046302B460094FFF797FA204638BD000094
:102FE00070B50D46040025D0FFF792FDD4E90F20FF
:102FF000216802FB001161600021A1632168A160CA
:103000000A46D4E90F01401E00FB0121E160214680
:103010004FF0FF3001F8440F487004F110008DB1FB
:10302000FFF744FD04F12400FFF740FDFFF790FD9A
:10303000012070BD502080F31188BFF34F8FBFF384
:103040006F8FFEE721690029F0D000F001FB002816
:10305000ECD004494FF080500860BFF34F8FBFF3AE
:103060006F8FE3E704ED00E02DE9FF4782B01D46D6
:103070008A464FF00008040003D0BAF1000F08D0D0
:1030800011E0502080F31188BFF34F8FBFF36F8F93
:10309000FEE7206C38B1502080F31188BFF34F8FCA
:1030A000BFF36F8FFEE7022D0AD1E06B012807D036
:1030B000502080F31188BFF34F8FBFF36F8FFEE76F
:1030C00000F00EFA3F4F4FF000094FF0805648B91C
:1030D000049838B1502080F31188BFF34F8FBFF3AD
:1030E0006F8FFEE7FFF714FDA06BE16B884207D3FB
:1030F000022D05D00498D0B1B8F1000F1AD01EE00F
:103100002A4651462046FFF758F9616A19B104F181
:10311000240000F09DFA20B13E60BFF34F8FBFF353
:103120006F8FFFF715FD012006B0BDE8F087FFF7B0
:103130000FFD22E06846FFF7E5FD4FF00108FFF7BD
:1031400007FDFFF765FEFFF7E3FC94F94400401C20
:1031500001D184F8449094F94500401C01D184F8D1
:103160004590FFF7F5FC04A9684600F027F930B157
:103170002046FFF7B9FB00F0A3FA0020D4E7FFF7E1
:10318000C7FCA06BE16B884213D1FFF7E1FC04F1AF
:1031900010000499FFF7C4FD2046FFF7A5FB00F0DF
:1031A0008FFA00289ED13E60BFF34F8FBFF36F8F21
:1031B00098E7FFF7CDFC2046FFF796FB00F080FA7A
:1031C00090E7000004ED00E02DE9F0471F4690462F
:1031D0008946040003D0B9F1000F08D011E0502057
:1031E00080F31188BFF34F8FBFF36F8FFEE7206C22
:1031F00038B1502080F31188BFF34F8FBFF36F8F2A
:10320000FEE7022F0AD1E06B012807D0502080F39F
:103210001188BFF34F8FBFF36F8FFEE7FFF7ECFC12
:103220005020EFF3118680F31188BFF34F8FBFF367
:103230006F8FA06BE16B884206D3022F04D0002071
:1032400086F31188BDE8F08794F945503A4649461F
:103250002046FFF7B2F8681C04D06D1C84F8455076
:103260000120EDE7606A0028FAD004F1240000F0A4
:10327000EFF90028F4D0B8F1000FF1D00121C8F81F
:103280000010EDE72DE9F747002683B08A460400D9
:1032900003D0BAF1000F08D011E0502080F311885C
:1032A000BFF34F8FBFF36F8FFEE7206C38B1502014
:1032B00080F31188BFF34F8FBFF36F8FFEE700F0ED
:1032C0000FF9DFF8F4804FF000094FF0805748B94C
:1032D000059838B1502080F31188BFF34F8FBFF3AA
:1032E0006F8FFEE7FFF714FCA56BC5B15146204672
:1032F000FFF750F86D1EA563206950B104F110006E
:1033000000F0A6F928B1C8F80070BFF34F8FBFF3E3
:103310006F8FFFF71DFC012006B0BDE8F087059810
:1033200008B11EB106E0FFF713FC27E06846FFF77F
:10333000E9FC0126FFF70CFCFFF76AFDFFF7E8FB4D
:1033400094F94400401C01D184F8449094F945005C
:10335000401C01D184F84590FFF7FAFB05A96846A7
:1033600000F02CF8002820460AD0FFF7BDFA00F044
:10337000A7F92046FFF76AF90028B3D00020CBE771
:10338000FFF764F990B104F124000599FFF7C8FC38
:103390002046FFF7A9FA00F093F90028A2D1C8F857
:1033A0000070BFF34F8FBFF36F8F9BE72046FFF78F
:1033B0009BFA00F085F995E704ED00E02DE9F04176
:1033C0000C46050011D0C4B1FFF7A2FB174B5A6998
:1033D0006E682068911B471C17D02F689B6A9F421C
:1033E00019D0964217D8012410E0502080F311889C
:1033F000BFF34F8FBFF36F8FFEE7502080F311882C
:10340000BFF34F8FBFF36F8FFEE70024FFF7A0FBE2
:103410002046BDE8F081884205D9401A2060284640
:10342000FFF770FCF1E700202060DCE724000020BB
:103430002DE9FF5F8346DDE90E87994616468A46E9
:103440009000FFF787FA05001CD05C20FFF782FA96
:10345000040014D00020256384F85900CDE902400F
:10346000CDE900874B46324651465846FFF75DF896
:103470002046FEF7FBFE012004B0BDE8F09F284681
:10348000FFF77AFB4FF0FF30F6E7F0B585B0DDE9E6
:103490000B640A9DA6B1DCB15C2700972663022667
:1034A00084F85960002604AFCDE90246CDE9005703
:1034B000FFF73BF82046FEF7D9FE049805B0F0BDB3
:1034C000502080F31188BFF34F8FBFF36F8FFEE75B
:1034D000502080F31188BFF34F8FBFF36F8FFEE74B
:1034E0000548C16919B1806B18B1002070470120EF
:1034F0007047022070470000240000200148406906
:1035000070470000240000202DE9F0412E4C0027D8
:10351000A06B40B1206A401C2062606A00B10127A4
:103520003846BDE8F0816669761C666113D1606833
:10353000006838B1502080F31188BFF34F8FBFF37C
:103540006F8FFEE76068A1686160A060A06A401CA0
:10355000A062FFF749F9206BDFF87080864209D33B
:103560006068006880B16068C068C5686868864245
:103570000DD220632068C06A00EB800158F821005A
:103580000128CAD90127C8E74FF0FF30F1E7281D0D
:10359000FFF762FAA86A18B105F11800FFF75CFAA4
:1035A000E86AA169884200D9A06100EB800108EBBC
:1035B0008100291DFFF7A0FAE86A2168C96A8842DC
:1035C000CED30127CCE7000024000020AC0100206E
:1035D00070B504004FF0000133D01B4D28688442C1
:1035E00007D0502080F31188BFF34F8FBFF36F8F48
:1035F000FEE7206D38B1401E2065E36CE26A9A4216
:103600001FD040B11DE0502080F31188BFF34F8FD1
:10361000BFF36F8FFEE7201DFFF71EFAE06CE0623C
:10362000C0F13800A061E06AA969884200D9A861A8
:10363000064900EB800001EB8000211DFFF75CFADA
:103640000121084670BD000024000020AC010020CC
:1036500070B5C068C46854B104F118000646FFF79D
:10366000FBF9144DA86B50B13146134815E05020BA
:1036700080F31188BFF34F8FBFF36F8FFEE7201DDC
:10368000FFF7EAF9E06AA969884200D9A8610B4905
:1036900000EB800001EB8000211DFFF72DFAE06AAE
:1036A0002968C96A884202D90120686270BD002079
:1036B00070BD00002400002034060020AC01002072
:1036C0002DE9F0472C4D00242746A86B38B1FFF7B1
:1036D0001FFAA86B401EA863A86B40B146E05020BB
:1036E00080F31188BFF34F8FBFF36F8FFEE7296917
:1036F000224E0120D1B3A6F5916980463068E0B131
:10370000F068C46804F11800FFF7A6F9201DFFF760
:10371000A3F9E06AA969884200D9A86100EB800199
:1037200009EB8100211DFFF7E7F9E06A2968C96A02
:103730008842E3D3C5F82480E0E70CB1FFF754F8E2
:103740002C6A4CB14FEA0806FFF7DEFE00B16E624C
:10375000641EF9D100202862686A38B1084901273F
:1037600038070860BFF34F8FBFF36F8FFFF7F0F993
:103770003846BDE8F0870000240000203406002011
:1037800004ED00E010B586B0FEF7D8FD114CA0683E
:10379000B8B100200390049005AA04A903A8FFF77C
:1037A00079F9DDE9032102208DE8070000230AA151
:1037B0000B48059AFFF769FEE06010B106B00120E2
:1037C00010BD502080F31188BFF34F8FBFF36F8F70
:1037D000FEE7000060000020546D72205376630005
:1037E000C52800082DE9FF411E46134602000A9D28
:1037F0004FF0000016D0144CA768002F0FD0CDE971
:1038000000130292062917DAFFF76AFE02284FF02A
:1038100000030FD000226946A068FFF725FC04B022
:10382000BDE8F081502080F31188BFF34F8FBFF3C4
:103830006F8FFEE72A46EEE7002332466946384698
:10384000FFF7C2FCEBE7000060000020AC38000886
:103850000000000000000000000000000000000068
:1038600080000000180000000000000000000000C0
:10387000B838000800000000000000000000000050
:1038800000000000800000001800000000000000A0
:10389000000000000000000000000000010203041E
:1038A0000607080900000000010203046465666160
:1038B000756C745461736B00546573745461736BED
:1038C00000000000E4380008000000209C00000018
:1038D0001E200008803900089C000020A44D000034
:1038E0002E20000800000000000000000000000082
:1038F00000000000000000000100000010000000B7
:10390000000000000024F40000000000000000009F
:1039100000000000000000000000000000000000A7
:103920000000000000000000000000000000000097
:103930000000000000000000000000000000000087
:103940000000000000000000000000000000000077
:103950000000000000000000000000000000000067
:103960000000000000000000000000000000000057
:103970000000000000000000AAAAAAAA000000009F
:04000005080001AD41
:00000001FF
