:020000040800F2
:10000000E80801208102000883230008A9190008DC
:10001000812300086F040008A92B000800000000DD
:10002000000000000000000000000000C101000806
:1000300071040008000000001D020008852400086B
:100040009B0200089B0200089B0200089B0200081C
:100050009B0200089B0200089B0200089B0200080C
:100060009B0200089B0200089B0200089B020008FC
:100070009B0200089B0200089B0200089B020008EC
:100080009B0200089B0200089B0200089B020008DC
:100090009B0200089B0200089B0200089B020008CC
:1000A0009B020008992500089B0200089B0200089B
:1000B0009B0200089B0200089B0200089B020008AC
:1000C0009B0200089B0200089B0200089B0200089C
:1000D0009B0200089D2B00089B0200089B02000861
:1000E0009B0200089B0200089B0200089B0200087C
:1000F0009B0200089B0200089B0200089B0200086C
:100100009B0200089B0200089B0200089B0200085B
:100110009B0200089B0200089B0200089B0200084B
:100120009B0200089B0200089B0200089B0200083B
:100130009B0200089B0200089B0200089B0200082B
:100140009B0200089B0200089B0200089B0200081B
:100150009B0200089B0200089B0200089B0200080B
:100160009B0200089B0200089B0200089B020008FB
:100170009B0200089B0200089B0200089B020008EB
:100180009B0200089B0200089B0200089B020008DB
:100190009B0200089B0200089B0200089B020008CB
:1001A0009B0200089B0200089B020008DFF80CD0AD
:1001B00000F020F900480047595B0108E8080120D9
:1001C0002C4B19680868B0E8F04F80F30988BFF33A
:1001D0006F8F4FF0000080F311887047000000001F
:1001E00008480068006880F308884FF0000080F33A
:1001F000148862B661B6BFF34F8FBFF36F8F00DF15
:1002000000BF00BF08ED00E0DFF80C00016841F41A
:1002100070010160704700BF88ED00E0EFF30980D6
:10022000BFF36F8F134B1A681EF0100F08BF20ED3D
:10023000108A20E9F04F106009B44FF0500080F3AD
:100240001188BFF34F8FBFF36F8F17F0E9FD4FF0A9
:10025000000080F3118809BC19680868B0E8F04F05
:100260001EF0100F08BFB0EC108A80F30988BFF3AE
:100270006F8F704738000020EFF305807047000053
:100280000648804706480047FEE7FEE7FEE7FEE730
:10029000FEE7FEE7FEE7FEE7FEE7FEE7452500088E
:1002A000AD0100082DE9F05F0546002092469B460F
:1002B00088460646814640241BE02846414647467C
:1002C000224600F087F853465A46C01A914110D38F
:1002D00011461846224600F06EF82D1A67EB010809
:1002E0004F4622460120002100F065F817EB000977
:1002F0004E41201EA4F10104DFDC484631462A4667
:100300004346BDE8F09F40EA01039B0703D009E0A4
:1003100008C9121F08C0042AFAD203E011F8013BF1
:1003200000F8013B521EF9D27047D2B201E000F84A
:10033000012B491EFBD270470022F6E710B5134689
:100340000A4604461946FFF7F0FF204610BD421C3E
:1003500010F8011B0029FBD1801A704710B500224C
:1003600000E0521C835C8C5CA34201D1002BF8D1CD
:10037000D8B2E1B2401A10BD034611F8012B00F8C3
:10038000012B002AF9D11846704730B50B460146BB
:1003900000202022012409E021FA02F59D4205D324
:1003A00003FA02F5491B04FA02F52844151EA2F1CE
:1003B0000102F1DC30BD202A04DB203A00FA02F110
:1003C000002070479140C2F1200320FA03F3194343
:1003D00090407047202A04DB203A21FA02F00021E5
:1003E000704721FA02F3D040C2F120029140084345
:1003F00019467047064C074D06E0E06840F00103DF
:1004000094E8070098471034AC42F6D3FFF7D2FEC9
:10041000C8B20108E8B2010870B58C1810F8015B89
:1004200015F0070301D110F8013B2A1106D110F88D
:10043000012B03E010F8016B01F8016B5B1EF9D191
:100440002B0705D40023521E0DD401F8013BFAE717
:1004500010F8013BCB1A921C03E013F8015B01F882
:10046000015B521EF9D5A142D8D3002070BDFEE732
:100470007047704770B5B3F5804F05D06FF070418D
:1004800040F82210002070BD50F82240084B8E89A1
:100490001C40D1E9003543EA05138D6889692D02B6
:1004A00045EA06452B430B43234340F82230E9E756
:1004B0000000F0CFF0B50C6850F82430174A134014
:1004C000D1E90125D1E903672A433E4332434E690E
:1004D00032438E693243CE6932430E6A32434E6AEA
:1004E00032438E6A3243CE6A3243CE6B32430E6B56
:1004F00032434E6B32431A43082D01D142F0400281
:1005000040F824204A6BB2F5801F05D1096819B163
:10051000016841F4801101600020F0BD8000E0FF1F
:10052000F0B500EB8204626802F04045D1E9002397
:1005300042EA03128B688E891B0243EA06431A4380
:100540000E8A0D4B03EB065632430E7D5F0107EB1F
:10055000066632438E6932432A4362600268D202E1
:1005600007D54268098A22F4700203EB0151114356
:1005700041600020F0BD00000000F0FFB0F5C84F62
:1005800007D93121A0F5C84090FBF1F0A03080B22E
:1005900002E07E21B0FBF1F04FF4A071884200D957
:1005A0000846704743F60451884208D9A0F57450B4
:1005B0006421043890FBF1F0783080B202E06321CE
:1005C000B0FBF1F0F02800D9F020C0F1F00080B2CB
:1005D000704790F83510022903D080214165012031
:1005E0007047052180F835100068016821F001018D
:1005F0000160002070470000F0B587B01421684604
:10060000FFF79AFE1E480168002937D101210160D9
:100610001C480024026842F00102026000680225C2
:10062000CDE9001500F001000C270326CDE9047088
:10063000CDE902466946144800F02EF84FF6807066
:10064000CDE9000502AA694682E8D0000F4800F013
:1006500023F84CF23370CDE9000502AA694682E81E
:10066000D0000B4800F018F8E802CDE9000502AA16
:10067000694682E8D000074800F00EF807B0F0BDE8
:1006800020000020383802400014024000100240D0
:10069000000C0240001802402DE9F84FDFF890B13D
:1006A00000224FF001084FF0030A4FF00F090BF141
:1006B000040E00BF0B6808FA02F42340A3426ED177
:1006C0004D68022D01D0122D0ED1D50800EB850CFE
:1006D000DCF820505607F70E09FA07F6B5430E6905
:1006E000BE402E43CCF82060066855000F790AFA08
:1006F00005FC07F0030726EA0C06AF403743076006
:100700004E68012E05D0022E03D0112E01D0122EDC
:100710000ED18768CE6827EA0C07AE403E4386605C
:100720004668A6430C79C4F30014944034434460F3
:10073000C4688E6824EA0C04AE402643C6604C6848
:10074000E4006FD53B4C256845F48045256024685E
:1007500022F0030504F480440094374C2E19D6F897
:10076000084895072F0F09FA07F5AC43334DA84207
:1007700001D100252EE0324DA84201D1012529E00A
:10078000304DA84201D1022524E02F4DA84201D1CD
:1007900003251FE02D4DA84202D104251AE041E0B7
:1007A0002B4DA84201D1052514E02A4DA84201D1C4
:1007B00006250FE0284DA84201D107250AE0274D64
:1007C000A84201D1082505E0254DA84201D10925FF
:1007D00000E00A25BD402543C6F80858DBF8004074
:1007E0005D464E689C43F60300D51C432C60DEF842
:1007F000004075464E689C43B60300D51C432C60F0
:100800000B4D08352C684E689C43F60200D51C43FE
:100810002C60074D0C352C684E689C43B60200D501
:100820001C432C60521C102AFFF444AFBDE8F88F23
:10083000003C0140443802400030014000000240CA
:100840000004024000080240000C02400010024078
:100850000014024000180240001C02400020024028
:10086000002402400069084000D00120704742691E
:1008700031EA020200D10904816170470AB1816145
:1008800070470904FBE700000148806870470000DA
:100890002800002002488168027811448160704776
:1008A000280000200B4810B5016841F40071016078
:1008B000016841F480610160016841F48071016068
:1008C000032000F08DF8002000F006F800F03EF85C
:1008D000002010BD003C024010B5014688B0002247
:1008E000192000F05DF8192000F04CF8134800249E
:1008F000016841F001010160006805A900F00100F4
:100900000690684600F016F900F044F90C494000E2
:10091000B0FBF1F10C480B4A491E026040F2E7328D
:10092000C0E90324C0E9011400F0EEFD10B101207C
:1009300008B010BD044800F003FEF9E74438024057
:1009400040420F0000000140642A00200C4882B0A1
:10095000016841F480410160006800F4804000902B
:100960000748001F016841F08051016000680022C3
:1009700000F0805000900F21901E02B000F010B8DF
:1009800044380240002809DB00F01F020121914099
:100990004009800000F1E020C0F80011704700001D
:1009A000F0B40E4B1B680C46C3F30223C3F10705DA
:1009B000042D00D90425191D072901D2002300E0C8
:1009C000DB1E012606FA05F1491E214099409E4092
:1009D000761E16403143F0BC02F0F8B80CED00E092
:1009E000064900F0070208684FF6FF03184040EA86
:1009F0000220034A10430860704700000CED00E03D
:100A00000000FA052DE9F0470E46050065D0DFF835
:100A10001481D8F80000F7B200F00F00B04207D2FE
:100A200088F80070D8F8000000F00F00B04254D1F0
:100A300028683D4C810712D5400703D5206840F453
:100A4000E05020602878000703D5206840F460401B
:100A500020602068A96820F0F00008432060287812
:100A6000C0072DD0304968680839012812D0022803
:100A700013D0032811D00968890700292DDA2168CD
:100A800021F0030101432160FFF7FEFE814641F2A0
:100A9000883A0EE009688903EFE709688901ECE705
:100AA000FFF7F2FEA0EB0901514502D90320BDE892
:100AB000F0872068696800F00C00B0EB810FEFD17F
:100AC000D8F80010404601F00F01B14207D9077075
:100AD000006800F00F00B04201D00120E7E728785D
:100AE000400705D52068E96820F4E05008432060FD
:100AF0002878000706D52068296920F4604040EA7C
:100B0000C100206000F056F82168084AC1F30311C3
:100B1000515CC840064908600020FFF7DDFE002058
:100B2000C5E70000003C024008380240408A010846
:100B3000340000200F2202600C4A136803F0030304
:100B40004360136803F0F0038360136803F4E05319
:100B5000C36012684FF4E05303EAD2020261044812
:100B6000006800F00F00086070470000083802407D
:100B7000003C02400448054900680968044AC1F382
:100B80008221515CC8407047340000200838024080
:100B9000508A01080448054900680968044AC1F3FD
:100BA0004231515CC8407047340000200838024090
:100BB000508A0108154810B5006810F00C0214485E
:100BC00013D01449042A0FD0082A0ED10F4C241F29
:100BD0002268236802F03F025B0207D52068C0F359
:100BE0008810A0FB010106E0084610BD2168C1F392
:100BF0008811A1FB00010023FFF754FB2168C1F31A
:100C00000141491C4900B0FBF1F010BD0838024019
:100C10000024F40040787D012DE9F84F050076D0DE
:100C20002878DFF8F8B2BE4CC00749D0DBF80010D6
:100C30005846C1F38101012908D00068C0F3810042
:100C400002280AD1201D0068400206D520688003D2
:100C500036D568680028E2D032E06868B0F5803F99
:100C600010D0B0F5A02F206810D020F48030206084
:100C7000206820F4802020606868A0B1FFF704FE9F
:100C800006460CE0206840F48030F4E740F4802011
:100C90002060F7E7FFF7F8FD801B642873D8206811
:100CA0008003F7D50CE0FFF7EFFD064605E000BF37
:100CB000FFF7EAFD801B6428F0D820688003F7D492
:100CC0002878DFF8608280074FF000093ED5DBF816
:100CD0000010584611F00C0F09D00068C0F38100D5
:100CE00002280BD18D48001F0068400206D42068FE
:100CF000800715D5E868012809D111E0E868B8B186
:100D00000120C8F80000FFF7BFFD064605E002E13C
:100D1000FFF7BAFD801B0228C0D820688007F7D5EE
:100D20002068296920F0F80040EAC10020600DE049
:100D3000C8F80090FFF7A8FD064604E0FFF7A4FD01
:100D4000801B02281FD820688007F7D42878000766
:100D500022D5724E744869696C3671B10121016007
:100D6000FFF792FD074604E0FFF78EFDC01B022847
:100D700009D830688007F7D50EE0C0F80090FFF77B
:100D800083FD074605E083E0FFF77EFDC01B0228D8
:100D90007ED830688007F7D42878400768D5DFF818
:100DA0007CA100270AF1380ADAF80000C0000BD451
:100DB000DAF8001041F08051CAF80010DAF80000AB
:100DC000012700F080500090584E3068C00510D4C4
:100DD000306840F480703060FFF756FD009005E009
:100DE000FFF752FD0099401A022851D83068C0051B
:100DF000F6D54A4EA868683601280FD00528306815
:100E000010D020F001003060306820F00400306025
:100E1000A868B8B1FFF738FD00900FE0306840F0E7
:100E20000100F4E740F004003060F7E7FFF72CFD25
:100E30000099411A41F28830814264D830688007B5
:100E4000F4D50EE0FFF720FD009007E0FFF71CFD52
:100E50000099411A41F28830814254D830688007A5
:100E6000F4D42FB1DAF8001021F08051CAF8001044
:100E7000A869C0B3DBF80010C1F3810102294AD090
:100E80000228484607D0C8F86000FFF7FDFC00E0E4
:100E900039E005463AE04746C8F86000FFF7F4FC41
:100EA000064604E0FFF7F0FC801B02282BD82068E0
:100EB0008001F7D4D5E907010843A96A1C4A49080B
:100EC00002EB01416A6A41EA8211084395F82C104D
:100ED00040EA01611148001F016001203866FFF7F8
:100EE000D3FC054605E014E0FFF7CEFC401B0228CA
:100EF00009D820688001F7D50BE000BFFFF7C4FCDC
:100F0000401B022802D90320BDE8F88F2068800129
:100F1000F4D40020F8E70120F6E70000083802408A
:100F20000038024000004742800E474200700040F7
:100F30000000FFFF70B5040005D00025A56294F8FD
:100F4000510010B106E0012070BD84F850502046D9
:100F500000F030F8022084F851002068016821F088
:100F600040010160D4E901010843D4E903121143AF
:100F7000084361690843218B01F400710843E1696A
:100F80000843216A0843A16A084321680860A069F0
:100F9000042101EA1040616A084321684860206822
:100FA000C16921F40061C1616565012084F85100C7
:100FB000002070BD10B586B0044614216846FFF7C6
:100FC000BBF913492068884220D1124800210268E9
:100FD00042F480420260006800F4804005900D48B1
:100FE0001038026842F480720260006800F4807079
:100FF00005900E2000900220CDE90101032003900E
:101000000520049069460448FFF746FB06B010BD72
:101010000038004040380240002002402DE9F84FDF
:10102000044640680025984616460F464FF0040BCC
:10103000B0F5827F01D1A06888B194F850000128F2
:1010400018D0012084F85000FFF71EFC814694F868
:1010500051004FF0000A01280ED002257DE084F8EF
:1010600051B013460A462046CDF8008000F02CF916
:10107000BDE8F88F0220FBE7002F6DD0002E6BD06B
:1010800084F851B0C4F854A0A763A687E687C4F8D3
:1010900030A0A4F834A0A4F836A0C4F840A0C4F846
:1010A00044A0A068B0F5004F04D12068016821F485
:1010B0008041016020680168490603D4016841F05D
:1010C00040010160E068D8B139E020688168C90753
:1010D00009D0007BA16B0870A06B401CA063E08F5F
:1010E000401EE0870CE0FFF7CFFBA0EB0901414574
:1010F00003D3B8F1FF3F03D036E0B8F1000F33D08F
:10110000E08F0028E1D11DE020688168C90709D07F
:10111000C068A16B0880A06B801CA063E08F401E9C
:10112000E0870CE0FFF7B0FBA0EB0901414503D3DA
:10113000B8F1FF3F03D017E0B8F1000F14D0E08FF3
:101140000028E1D14A464146204601F01BF908B18A
:1011500020206065606D00B10125012084F85100F8
:1011600084F850A0284683E70325F6E72DE9F84FD9
:10117000044690F8500000271D461646894601286F
:101180000DD04FF0010B84F850B0FFF77DFB804687
:1011900094F85100BA46012804D002278EE00220BC
:1011A000BDE8F88FB9F1000F7DD0002E7BD0032071
:1011B00084F85100C4F854A0C4F83090A686E6869E
:1011C000C4F838A0A4F83CA0A4F83EA0C4F844A0F9
:1011D000C4F840A0A068B0F5004F04D120680168B1
:1011E00041F48041016020680168490603D4016828
:1011F00041F040010160E068B0F5006F606803D025
:1012000030B3012E24D040E008B1012E1CD1206B58
:1012100021680088C86006E020688168890709D5D0
:10122000216B0988C160206B801C2063E08E401E0A
:10123000E08609E0FFF728FBA0EB0800A84202D3F4
:10124000681C01D031E07DB3E08E0028E4D11FE0BE
:10125000206B21680078087306E0206881688907A0
:1012600009D5216B09780173206B401C2063E08E47
:10127000401EE08609E0FFF707FBA0EB0800A8424C
:1012800002D3681C01D010E075B1E08E0028E4D1D3
:1012900042462946204601F096F808B120206065B4
:1012A000A06820B107E008E0FFE7032706E0206818
:1012B000C16880680090606D00B1012784F851B06A
:1012C00084F850A038466BE72DE9F84F044690F8B3
:1012D000500000270A9E1D4692468B464FF001099A
:1012E00001280ED0012084F85000FFF7CDFA804687
:1012F00094F85100616801280CD0B1F5827F07D1C4
:1013000002E00220BDE8F88FA16809B9042801D0E5
:101310000227C2E0BBF1000F27D0BAF1000F24D0A2
:101320001DB394F85100042802D0052084F8510020
:1013300000206065C4F838A0E587A587C4F830B000
:10134000E586A5862064606420680168490603D4A8
:10135000016841F040010160E068B0F5006F60682D
:1013600005D0E8B3012D46D07FE0012795E008B114
:10137000012D39D1206B21680088C860206B801C4A
:101380002063E08E401EE0862EE020688168890799
:101390000FD5E18E69B1B9F1010F0AD1216B09882E
:1013A000C160206B801C2063E08E401EE0864FF001
:1013B000000920688168C9070CD0E18F51B1C0686D
:1013C000A16B0880A06B801CA063E08F401EE087AB
:1013D0004FF00109FFF758FAA0EB0800B04200E017
:1013E00009E001D3701C50D1E08E0028CDD1E08FF0
:1013F0000028CAD13FE0206B216800780873206B79
:10140000401C2063E08E401EE0862EE0206881684C
:1014100089070FD5E18E69B1B9F1010F0AD1216BAE
:1014200009780173206B401C2063E08E401EE0862B
:101430004FF0000920688168C9070CD0E18F51B1D5
:10144000C068A16B0870A06B401CA063E08F401EB9
:10145000E0874FF00109FFF717FAA0EB0800B04250
:1014600002D3701C01D010E07EB1E08E0028CDD1F7
:10147000E08F0028CAD142463146204600F0A3FF43
:1014800028B101272020606507E0032705E0A06858
:1014900018B92068C16880680090012084F8510064
:1014A000002084F8500038462CE770B515460E46EB
:1014B000040003D094F8490010B107E0012070BD8A
:1014C000002084F84800204600F01AF804F10801D2
:1014D0002068FEF7EFFF3146A2682068FFF720F88A
:1014E000D4E901022946236BFEF7C4FFA1682068F6
:1014F00050F8212042F0010240F82120002070BD68
:10150000FFF77AB87047704710B5040003D094F81D
:101510003D0010B107E0012010BD002084F83C0020
:10152000204600F00CF8022084F83D00211D2068C0
:1015300001F038F8012084F83D00002010BD70470C
:101540000168CA6842F00102CA600068816801F05F
:101550000701062903D0016841F001010160002064
:101560007047704770B50446006801694FF0000588
:10157000C943890715D4C168C943890711D4E91E35
:10158000016101202077206880698007204602D011
:10159000FFF7E7FF04E000F098F8204600F096F827
:1015A000257720680169C943490717D4C168C94331
:1015B000490713D46FF004010161022020772068ED
:1015C000806910F4407F204602D0FFF7CAFF04E094
:1015D00000F07BF8204600F079F825772068016953
:1015E000C943090716D4C168C943090712D46FF06B
:1015F00008010161042020772068C0698007204627
:1016000002D0FFF7AEFF04E000F05FF8204600F0E4
:101610005DF8257720680169C943C90617D4C168F8
:10162000C943C90613D46FF0100101610820207767
:101630002068C06910F4407F204602D0FFF791FF78
:1016400004E000F042F8204600F040F825772068DA
:101650000169C943C90708D1C168C943C90704D191
:10166000891E0161204600F033F820680169C943F2
:10167000090609D4C168C943090605D46FF0800181
:1016800001612046FFF73EFF20680169C943490612
:1016900009D4C168C943490605D46FF0400101610E
:1016A000204600F01FF820680169C94389060BD461
:1016B000C168C943890607D46FF020010161204643
:1016C000BDE87040FFF71FBF70BD70477047000056
:1016D00000680349884201D1FFF7DCB87047000079
:1016E000000001407047704710F8391F40780843E8
:1016F0007047000070B5026804461068D1685369ED
:1017000010F00F0F50D003F0010501F4907635432F
:101710005DD0C20705D0CA0503D5E26B42F00102D5
:10172000E263420705D5DA0703D0E26B42F002021A
:10173000E263820705D5DA0703D0E26B42F00402C8
:10174000E263020705D5DA0703D0E26B42F0080234
:10175000E263E26B002A33D0800604D5880602D506
:10176000204601F047F820684069E16BC0F3801023
:10177000090700D428B3204601F02EF820684169FB
:1017800049061AD5416921F040014161606BA0B161
:101790001B490165606BFEF71CFF002810D0606BD1
:1017A000016DBDE870400847830610D58B060ED545
:1017B0002046BDE8704001F01DB82046FFF793FFBA
:1017C00070BD2046FFF78FFF0020E06370BD030669
:1017D00006D50B0604D52046BDE8704001F0ACB933
:1017E0004006F3D54806F1D5D168204621F04001E6
:1017F000D160202184F8391000F0CCF870BD0000D1
:10180000C927000870B5040004D094F839000025F9
:1018100010B106E0012070BD84F83850204600F079
:1018200023F8242084F839002068C16821F400518D
:10183000C160204601F02AF82068016921F4904136
:1018400001612068416921F02A0141612068C16875
:1018500041F40051C160E563202084F8390084F828
:101860003A00002070BD000010B586B00446142177
:101870006846FEF761FD18492068884229D117485B
:10188000016841F010010160006800F0100005904F
:1018900012481438016841F001010160006869468E
:1018A00000F0010005904FF4C0600090022001900C
:1018B0000120029003200390072004900848FEF7BF
:1018C000EBFE002205212520FFF76AF82520FFF70F
:1018D00059F806B010BD0000001001404438024025
:1018E0000000024090F83A30202B22D1F9B1F2B139
:1018F00090F83830012B1CD081628285C28500218E
:10190000C163222280F83A2080F838100168CA6842
:1019100042F48072CA6001684A6942F001024A6179
:101920000068C16841F02001C160002070470120BB
:101930007047022070470000044A0168914203D1B9
:1019400001220349FFF7CEBF70470000001001409D
:101950001000002090F83930202B18D1A9B1A2B185
:1019600090F83830012B12D001628284C2840021A9
:10197000C163212280F8392080F838100068C168DE
:1019800041F08001C16000207047012070470220B3
:101990007047000000680349884201D115F0F0BF8C
:1019A0007047000000100140FEE730B500240546F6
:1019B0002146204600F02EFB4FF0D841222008801F
:1019C0004FF496304D80641C8442FBD330BD2DE92A
:1019D000F04F9042099E02D28146154601E09146A1
:1019E0000546994202D20C46984601E01C468846BC
:1019F0004FF0220B4FF0D84A11E04F460BE0214642
:101A0000384600F007FBAAF800B036F8021BAAF827
:101A100002107F1CBFB2AF42F1D9641CA4B244458E
:101A2000EBD9BDE8F08F00002DE9F04F87B000241E
:101A3000142101A80094FEF77FFCFC48016841F0E6
:101A4000040101600068FA4D00F0040000900022DB
:101A500080212846FEF712FF802001900120CDE969
:101A6000020401A928460494FEF716FE002000F0A7
:101A7000CCFAF04B49F2203C49F2253248F6891164
:101A8000586048B140F6FF74A04205D3884204D0A4
:101A9000604502D0904200D05960586818804FF4D9
:101AA0000046F3114FF4E06740F2022841F2B079AA
:101AB00040F2371A40F2023440F2077B40F23F1501
:101AC00060457CD13146E52000F0CEFA01210020AE
:101AD00000F0CAFA1946012000F0C6FA3946022081
:101AE00000F0C2FA41F23001032000F0BDFA0021FB
:101AF000042000F0B9FA4146082000F0B5FA0021B0
:101B0000092000F0B1FA00210A2000F0ADFA00210E
:101B10000C2000F0A9FA00210D2000F0A5FA002108
:101B20000F2000F0A1FA0021102000F09DFA002102
:101B3000112000F099FA0021122000F095FA0021FE
:101B4000132000F091FA142016F0B6F84946102040
:101B500000F08AFA5146112000F086FA052016F0AE
:101B6000ABF8A91F122000F07FFA052016F0A4F8A8
:101B70004FF4E851132000F077FA1321292000F0E8
:101B800073FA052016F098F80021202000F06CFA76
:101B90000021212000F068FA0621302000F064FACC
:101BA00040F20111312000F05FFA0321322000F0F1
:101BB0005BFA4FF48371352000F056FA00E070E0D4
:101BC00040F60231362000F04FFA2146372000F06F
:101BD0004BFA5946382000F047FA0721392000F027
:101BE00043FA4FF4C0613C2000F03EFA40F20B2172
:101BF0003D2000F039FA0021502000F035FAEF21A5
:101C0000512000F031FA0021522000F02DFA29462F
:101C1000532000F029FA4FF41C51602000F024FA00
:101C20000121612000F020FA00216A2000F01CFA56
:101C30000021802000F018FA0021812000F014FA21
:101C40000021822000F010FA0021832000F00CFA1D
:101C50000021842000F008FA0021852000F004FA19
:101C60001021902000F000FA0021922000F0FCF9F1
:101C70000321932000F0F8F94FF48871952000F0CB
:101C8000F3F90021972000F0EFF90021982000F0EF
:101C9000EBF941F21801032000F0E6F940F273116C
:101CA000B1E188427ED10121002000F0DDF9002160
:101CB000102000F0D9F9052015F0FEFF40F2332383
:101CC0001946072000F0D0F946F27801112000F003
:101CD000CBF94FF4C061022000F0C6F94AF6A40126
:101CE000032000F0C1F900210C2000F0BDF940F6FE
:101CF0000C010D2000F0B8F94FF424510E2000F033
:101D0000B3F9B8211E2000F0AFF942F63F110120CF
:101D100000F0AAF90021102000F0A6F9002105200A
:101D200000F0A2F90021062000F09EF94EF61C7189
:101D3000162000F099F90321172000F095F91946B3
:101D4000072000F091F9C0210B2000F08DF900214F
:101D50000F2000F089F90021412000F085F90021D1
:101D6000422000F081F90021482000F07DF9294649
:101D7000492000F079F900214A2000F075F900218E
:101D80004B2000F071F94FF46F41442000F06CF9E2
:101D90000021452000F068F92946462000F064F94A
:101DA000594600E048E0302000F05EF94FF401733E
:101DB0001946312000F058F91946322000F054F944
:101DC00040F202552946332000F04EF9691D3420B7
:101DD00000F04AF91946352000F046F91946362038
:101DE00000F042F92946372000F03EF921463A201A
:101DF00000F03AF921463B2000F036F9002123207B
:101E000000F032F90021242000F02EF9314625207F
:101E100000F02AF900214E2000F026F900214F2081
:101E200000F022F907B0BDE8F08F00003038024022
:101E300000080240080000209042F3D10121002058
:101E400000F012F91946012000F00EF9394602207F
:101E500000F00AF90021042000F006F941460820AC
:101E600000F002F90021092000F0FEF800210A200C
:101E700000F0FAF800210C2000F0F6F800210D2007
:101E800000F0F2F800210F2000F0EEF80021102001
:101E900000F0EAF80021112000F0E6F800211220FD
:101EA00000F0E2F80021132000F0DEF8142015F015
:101EB00003FF4946102000F0D7F85146112000F0EA
:101EC000D3F8052015F0F8FE40F23911122000F089
:101ED000CBF8052015F0F0FE4FF4E851132000F088
:101EE000C3F81321292000F0BFF8052015F0E4FE07
:101EF0000021202000F0B8F80021212000F0B4F8E3
:101F00000721302000F0B0F82146312000F0ACF875
:101F100040F205131946322000F0A6F840F20624DC
:101F20002146352000F0A0F840F60806314636205C
:101F300000F09AF82146372000F096F840F204515C
:101F4000382000F091F80721392000F08DF819466B
:101F50003C2000F089F831463D2000F085F8002152
:101F6000502000F081F8EF21512000F07DF8002191
:101F7000522000F079F82946532000F075F84FF40C
:101F80002741602000F070F80121612000F06CF81A
:101F900000216A2000F068F80021802000F064F839
:101FA0000021812000F060F80021822000F05CF820
:101FB0000021832000F058F80021842000F054F81C
:101FC0000021852000F050F81021902000F04CF8FE
:101FD0000021922000F048F80321932000F044F8FB
:101FE0004FF48871952000F03FF80021972000F011
:101FF0003BF80021982000F037F8E100032000F0C2
:1020000033F840F2331107200AE74FF0D841088037
:102010004888704710B50C4612490988A1F5094255
:10202000893A10D0A0F23F104342A1F51342253A5D
:1020300010D02146202000F017F899B22120BDE8E9
:10204000104000F011B801464F2000F00DF8214675
:102050004E20F4E799B2212000F006F82146202016
:10206000EDE70000080000204FF0D84210805180BA
:102070007047000094B04FF4FA7015F01DFE0BF09D
:1020800031FDFFF7D1FC0020FFF78FFC39494FF4F9
:1020900048630022A1F11C0006F072FF684606F0BA
:1020A0007FFF3548039033481C380190684606F09E
:1020B00097FF0BA80BF071FB01208DF82C002F4827
:1020C0000C900BA80BF07AFB01F0A8F910F034FB90
:1020D00000210BF0E7FF2A4C6422114660600EF0ED
:1020E0009FFE28A160680CF08FFE10F025FB0021F8
:1020F0000BF0D8FF1422044611460EF091FE23A1E6
:1021000020460CF081FE10F017FB00210BF0CAFFF7
:102110004FF496750446142229460EF081FE1BA149
:1021200020460CF071FE10F007FB00210BF0BAFF07
:102130000446DC2214210EF073FE14A120460CF09C
:1021400063FE10F0F9FA00210BF0ACFF0446DC222C
:1021500029460EF065FE0DA120460CF055FE00BF8D
:1021600013F0A0F9052013F051FA052015F0A4FD95
:10217000F6E700007C100020815C0108A15C0108EA
:10218000000000207465787400000000300000003A
:1021900000B587B01C216846FEF7CEF816484FF010
:1021A0002041102201601549416006218160002113
:1021B000C160C0E904128161C16112020162C0E91B
:1021C0000912C162016341638163C16341640920F3
:1021D000CDE900010820CDE9020140060491CDE9D6
:1021E0000510002269460448FFF75FF9002801D076
:1021F000FEF73FF907B000BDBC290020040100A094
:1022000070B586B014216846FEF796F82948002478
:10221000016841F020010160016801F02001059191
:10222000016841F080010160016801F080010591C1
:10223000016841F010010160016801F01001059191
:10224000016841F008010160016801F00801059191
:10225000016841F001010160016801F0010105918F
:10226000016841F0400101600068134E00F0400039
:102270004FF460750590002229463046FEF7FEFABD
:1022800001200095CDE90104694630460394FEF72C
:1022900003FA01224FF4C0713046FEF7EFFA8020B6
:1022A000CDE900040294694604480394FEF7F4F96A
:1022B00006B070BD303802400014024000180240E1
:1022C00070B51E4886B01C4901604FF4827100242D
:1022D000C0E90114C4604FF400710461C0E9054114
:1022E0000821C0E907140A214462C0E90A41FEF747
:1022F00021FE08B1FEF7BDF814216846FEF71CF870
:102300000F48016841F0040101600068012200F0FB
:1023100004000C4ED503059029463046FEF7AEFA70
:1023200001200095CDE90104694630460394FEF78B
:10233000B3F906B070BD0000003800400C2A002040
:1023400030380240001802400C4810B50A490160BC
:102350004FF4E1314160002181600C22C160C0E98D
:1023600004128161C161FFF74DFA002803D0BDE876
:102370001040FEF77EB810BD001001407C290020FF
:10238000FEE7704738B504464068B0F5827F0BD150
:10239000A068B0F5004F02D0B0F5806F04D120687E
:1023A000036823F0400303600B4600920022802163
:1023B000204600F018F8002804D0606D40F020009E
:1023C0006065032038BD38B50B46009204460022F4
:1023D000802100F008F8002804D0606D40F0200053
:1023E0006065032038BD2DE9F0411D4617460E46B5
:1023F0000446DDF8188008E0681C06D0FEF744FAB1
:10240000A0EB0800A8420BD255B12068806836EADC
:10241000000030D00020B842EED10020BDE8F081AD
:102420002068416821F0E00141606068B0F5827F7A
:102430000BD1A068B0F5004F02D0B0F5806F04D189
:102440002068016821F040010160A06AB0F5005FDA
:1024500009D12068016821F40051016020680168F9
:1024600041F400510160012084F85100002084F8FB
:1024700050000320D2E70120CDE7012013F05CFCDF
:10248000FBE7000010B5502080F31188BFF34F8F99
:10249000BFF36F8F16F0FCF818B104494FF080506D
:1024A0000860002080F3118810BD000004ED00E0FA
:1024B00030B593B030216846FDF73EFF14210CA8DB
:1024C000FDF73AFF1D480025016841F08051016089
:1024D000006800F0805011901948016841F44041B3
:1024E00001600068022400F4404011900120009037
:1024F000000401908001CDE9064010200890C02022
:10250000CDE9090404200B906846FEF785FB08B16D
:10251000FDF7AFFF0CA90F2081E831004FF4A05068
:102520000F904FF48050109004210CA8FEF76AFA27
:10253000002801D0FDF79DFF13B030BD40380240A8
:10254000007000401048016841F4700101600F48BC
:10255000016841F0010101600C4A0021083211605C
:1025600002680B4B1A400260031D0A4A1A60026897
:1025700022F48022026005480C30016002495806AE
:10258000803908607047000088ED00E000380240A4
:10259000FFFFF6FE103000240148FEF7E3BF000005
:1025A000642A0020F0B50268254C264D264E274FA0
:1025B000274B4FF0804CA04209D0604507D0A8427D
:1025C00005D0B04203D0B84201D0984204D122F0E5
:1025D000700E4A6842EA0E02A0421BD0604519D034
:1025E000A84217D0B04215D0B84213D0984211D0AB
:1025F000184DA8420ED0184DA8420BD0174DA84236
:1026000008D0174DA84205D0164DA84202D0164D4D
:10261000A84203D122F44075CA682A434D6922F0CA
:1026200080022A4302608A68C2620A688262A0420B
:1026300001D0984201D10969016301214161F0BDD6
:10264000000001400004004000080040000C004071
:1026500000040140004001400044014000480140A6
:1026600000180040001C00400020004000F072F8FC
:10267000054D4FF4C074642015F01EFB214628461A
:10268000FEF7F5F8F7E700000014024070B50C46BD
:10269000054600F019F8288000F039F8208070BD58
:1026A0007CB50C46054601A96846FFF7EFFFBDF86B
:1026B0000000FDF763FF2880BDF80400FDF772FFFE
:1026C000208000F047F87CBD38B500208DF8000070
:1026D00000F064F8D7208DF800000121684600F072
:1026E00065F80121684600F04BF89DF800004FF6B0
:1026F000FF7101EA00240121684600F041F89DF8CD
:102700000000204484B200F033F8204638BD38B5CC
:1027100000208DF8000000F041F897208DF80000AF
:102720000121684600F042F80121684600F028F8CF
:102730009DF800004FF6FF7101EA00240121684670
:1027400000F01EF89DF80000204484B200F010F85C
:10275000204638BD08B500F021F880208DF8000033
:102760000121684600F022F800F002F808BD0000E0
:102770000122D1030148FEF781B800000018024091
:102780008AB210B5014664230348FEF747FC0028CF
:1027900000D0012010BD00000C2A002000224FF4C0
:1027A00000410148FEF76AB8001802408AB210B52D
:1027B000014664230348FEF7D9FC002800D001201D
:1027C00010BD00000C2A002010B5806B0021C185CF
:1027D000C184FEF788FF10BD0168CA6822F49072B8
:1027E000CA6001684A6922F001024A61202180F82A
:1027F0003A10704710B590F83A10222901D0022003
:1028000010BD8168B1F5805F11D0016900290168B0
:102810001FD0496801F07F03816A4A1C82620B70F5
:10282000C18D491E0904090CC18518D02BE002692D
:10283000816A002A0268526805D0D2B20A80816A91
:10284000491C8162ECE7C2F308020A80816A891C94
:10285000F7E74A68816A4B1C83620A70E0E7016807
:10286000CA6822F02002CA600168CA6822F4807235
:10287000CA6001684A6922F001024A61202180F899
:102880003A10FFF759F8002010BD00002DE9F04183
:10289000044600680169E26821F440511143016176
:1028A0002169A068E269084361691143226808430D
:1028B000D16849F20C6399430143D16020684169B2
:1028C000A26921F4407111434161E2696425B2F5C6
:1028D000004F9748974922684FF032083FD08A420C
:1028E00001D082427CD1FEF755F900EBC00101EB2B
:1028F000001061688900B0FBF1F6FEF74BF900EBC0
:10290000C00101EB001061688900B0FBF1F0B0FB81
:10291000F5F06FF01801484306EB800108EB011059
:10292000B0FBF5F000F0F006FEF734F900EBC00163
:1029300001EB001061688900B0FBF1F0B0FBF5F02D
:1029400006EB0016FEF726F900EBC00101EB0010C4
:1029500061688900B0FBF1F7FEF71CF9D2E08A420A
:1029600001D082423DD1FEF715F900EBC00101EB29
:10297000001061684900B0FBF1F0B0FBF5F0060112
:10298000FEF708F900EBC00101EB00106168490097
:10299000B0FBF1F7FEF7FEF800EBC00101EB001011
:1029A00061684900B0FBF1F0B0FBF5F06FF0180181
:1029B000484307EB800108EBC100B0FBF5F000F0E5
:1029C000F80006EB4006FEF7E5F800EBC00101EB6E
:1029D000001061684900B0FBF1F7FEF7DBF83CE05E
:1029E00055E0FEF7C7F800EBC00101EB001061688D
:1029F0004900B0FBF1F0B0FBF5F00601FEF7BAF8C4
:102A000000EBC00101EB001061684900B0FBF1F779
:102A1000FEF7B0F800EBC00101EB0010616849005F
:102A2000B0FBF1F0B0FBF5F06FF01801484307EB95
:102A3000800108EBC100B0FBF5F000F0F80006EBF8
:102A40004006FEF797F800EBC00101EB001061684B
:102A50004900B0FBF1F7FEF78DF800EBC00101EB88
:102A6000001061684900B0FBF1F0B0FBF5F06FF0C9
:102A70001801484307EB800108EBC100B0FBF5F0FB
:102A800000F00700216830448860BDE8F081FEF75F
:102A900071F800EBC00101EB001061688900B0FB28
:102AA000F1F6FEF767F800EBC00101EB001061687A
:102AB0008900B0FBF1F0B0FBF5F06FF0180148436E
:102AC00006EB800108EB0110B0FBF5F000F0F0061A
:102AD000FEF750F800EBC00101EB001061688900BF
:102AE000B0FBF1F0B0FBF5F006EB0016FEF742F894
:102AF00000EBC00101EB001061688900B0FBF1F749
:102B0000FEF738F800EBC00101EB001061688900A6
:102B1000B0FBF1F0B0FBF5F06FF01801484307EBA4
:102B2000800108EB0110B0FBF5F000F00F00A9E701
:102B3000001401400010014090F83910212901D003
:102B4000022070478168B1F5805F016A0BD04A1C92
:102B50000262026809785160C18C491E0904090C9F
:102B6000C1840ED017E009880268C1F308015160E2
:102B700001690029016A02D0491C0162ECE7891C45
:102B8000FBE70168CA6822F08002CA600068C16879
:102B900041F04001C1600020704700000148FEF78D
:102BA000A9BD00007C290020FEE700000FB4054B02
:102BB00010B503A9044A029800F028F810BC5DF88B
:102BC00014FB00008D3700085C1000200907090E77
:102BD000002804DB00F1E02080F80014704700F0CA
:102BE0000F0000F1E02080F8141D704702E008C8D3
:102BF000121F08C1002AFAD170477047002001E077
:102C000001C1121F002AFBD1704700002DE9FF4FC0
:102C10008BB09A460F460546002606E025280BD0C5
:102C200052460D9990476D1C761C28780028F5D1E6
:102C30000FB03046BDE8F08F0024A0460122604965
:102C400000E0044315F8013F203B02FA03F008427C
:102C5000F7D128782E2817D115F8010F44F0040475
:102C60002A280ED06FF02F022878A0F13001092910
:102C70000AD808EB880102EB410100EB01086D1C4A
:102C8000F2E757F8048B6D1C287869283ED006DCE3
:102C90000028CDD063280BD0642804D136E07328F7
:102CA00010D075284BD052460D999047761C85E080
:102CB00017F8040B8DF8000000208DF80100E9469C
:102CC000012003E057F8049B4FF0FF3061074FF0FD
:102CD000000401D40AE0641C44450DDA8442FADBA6
:102CE00019F804100029F6D106E0641C8442FCDBCC
:102CF00019F804100029F8D1264404E019F8010B52
:102D000052460D999047641EF8D257E001CF4FF01C
:102D10000A0B002802DA40422D2102E0210504D5E9
:102D20002B218DF82410012103E0E10705D020219B
:102D3000F7E70DF1200908910CE00021F9E701CF38
:102D40004FF00A0BF9E75946FDF71FFB01F130027E
:102D500009F8012D0028F6D1ADEB090000F1200B98
:102D6000600701D44FF00108D84502DDA8EB0B0045
:102D700000E000208046002406E009A85246005DDD
:102D80000D999047641C761C08988442F5DB04E09A
:102D9000302052460D999047761CB8F10001A8F1F9
:102DA0000108F5DC05E019F8010B52460D99904732
:102DB000761CBBF10001ABF1010BF4DC6D1C34E7B8
:102DC000092801002DE9F04100250E4607462C4652
:102DD0000AE000BF56F8240020A1FDF7BFFA08B1B1
:102DE0006D1CADB2641CA4B256F82400FDF7AFFA16
:102DF0000028EFD138460DF0F9FD04464068002662
:102E000010B10DF03DF96660A06810B10DF038F911
:102E1000A660E8000DF0E2F8606038B168000DF0DF
:102E2000DDF8A06050B1616881B110E00CA340F200
:102E3000AD320FA103200CF043FEFEE708A340F2E1
:102E4000AF320BA103200CF03BFEFEE7002569002A
:102E5000FDF772FA2584BDE8F08100000A00000049
:102E60004F7574206F66206D656D6F72792100005B
:102E70002E2E5C6C76676C5C7372635C6C765F6F35
:102E8000626A785C6C765F62746E6D2E630000001F
:102E900030B5044690F82400194D8BB0810717D443
:102EA000C10701D0410713D5282221466846FDF706
:102EB0002AFA214613480CF0C7FD20460DF0E0F831
:102EC000012028700398B8B101466846884713E08E
:102ED000E18B49426183C1070ED0410702D4A18B27
:102EE000494261838110491C61F3820084F8240007
:102EF000D4E90410C4E9040128780BB030BD000007
:102F0000EC0C0020C084002070B523480CF0CEFCEF
:102F100006E0486A20F0080048621F480CF0CBFC2D
:102F20000100F6D11D4D686812F060FB064624E0F2
:102F300000202870606A010723D440F00800606216
:102F4000608B304400B2608300281ADB218B8842FA
:102F500000DD6183A1682046884762681AB1236852
:102F600001B218469047B4F91A00218B884202DB5F
:102F70002046FFF78DFF287818B107480CF096FC23
:102F800003E0214604480CF096FC0400D0D112F076
:102F900033FB686070BD0000C0840020EC0C002092
:102FA00002280FD0032810D0042812D0C1EBC10191
:102FB000401EB1FBF0F00849C0B2085C10FB02F003
:102FC000000A70470448093801E00348C01F405C0C
:102FD000F4E70148001FFAE7DB8A010810B50C4648
:102FE00005A0FFF7E3FD062C04D1BDE8104005A0C5
:102FF000FFF7DCBD10BD00006576656E743D25648D
:103000000D0A0000436C69636B65640A00000000F0
:10301000F8B50D4606460DF0E9FC0446C06B0028E5
:10302000B4F8400010D048B1304610F0EBFF0E4924
:1030300009688847B4F84010884211D2E06B88B123
:1030400000200A4E009006E060B1EDE73268694664
:103050009047A84206D0E06B0099415C0029F5D169
:103060000020F8BD0120F8BD480D0020340D0020DF
:103070002DE9FC5F8346002006F018F90190944A80
:10308000002158460EF07FFF914A012158460EF06C
:103090007AFF5C4620460DF0ADFC054620460EF05A
:1030A000B2FA29460DF022FE002158460EF039FFF3
:1030B000884989480FF0BEFF87484FF099090027DB
:1030C000864D80F80890C780834E686A203600904D
:1030D000BDF80000B0823946584604F01FF9804C14
:1030E000206058460DF086FC824658460DF00CFDD7
:1030F00041004FF0030891FBF8F001B20AEBDA70DF
:10310000421020680DF0CDFE19200023009002220D
:10311000194620680DF04AF80221206805F08EF863
:103120006D4920680DF0FDFEB221206805F075F8AC
:10313000A96A206804F0A6F8824601462822206881
:1031400004F0C1FF1E225146206804F0BCFF2F226C
:103150005146206804F0B7FF3B225146206804F036
:10316000B2FF3B225146206804F0ADFF1F225146BA
:10317000206804F0A8FF37225146206804F0A3FF1E
:1031800046225146206804F09EFF52225146206894
:1031900004F099FF5B225146206804F094FF4D49EA
:1031A00006F11C000FF046FF0097BDF80000F08309
:1031B000E86A0090BDF80000308406F11C0047F674
:1031C000184AA0F806A0296B0091BDF80010F18400
:1031D00080F80890478387834FF00A09A0F816907B
:1031E000A0F818903B493C300FF024FF686B00902A
:1031F000BDF80000A6F85C00A86B0090BDF80000C8
:10320000A6F85A0006F15800A0F806A0A0F81290FF
:10321000E96B0091BDF80010A6F86810A0F81A80BC
:10322000A0F81C80A0F81680A0F8188029493C302E
:103230000FF000FF06F19400B221A0F806A0017281
:10324000002158460FF0C8FA054606F11C0200217D
:103250000FF092FD06F15802012128460FF08CFD77
:1032600006F19402022128460FF086FD20680DF039
:103270004BFC0146212228460DF013FE28460DF096
:10328000B9FB216802460198B1F91630C01A801ABC
:1032900000EBD07040F34F00009000230D22284631
:1032A0000CF084FF0F4928460DF01EFD28464FF410
:1032B0007A72494602F0F3FD28464FF42F713A46E0
:1032C00002F030FE2846BDE8FC5F0E2113F018BC6A
:1032D0007C7F00206C800020607D0020588A0108DF
:1032E000B0000020016B01087CB50D4606460DF0CC
:1032F0007DFB044690F85800C0F30011A94231D07C
:1033000015B140F0100001E020F0100084F85800E2
:103310000007002826DD30460DF008FBD4F84E10DB
:103320000091D4F852100191216BBDF800200B8A56
:103330001A44ADF80020BDF80220498A1144ADF8C6
:103340000210226BBDF80410128A1144ADF804106B
:10335000226BBDF80610528A1144ADF8061069467A
:103360000AF010FC7CBD2DE9F0410446001D0CF074
:103370009DFAE66A054666B1204608F088FF08E037
:103380002946201D0CF097FA07462846FFF7EBFF69
:103390003D46002DF4D100221321204608F012FDF5
:1033A000204608F001FD0021204602F027FA002007
:1033B0000AF062FA054600271AE0A86BA04202D084
:1033C000E86BA04202D128460AF06AFB286CA042B2
:1033D00000D12F64A86DB04206D10AF057FAA0427E
:1033E00002D128460AF05CFB28460AF045FA054659
:1033F000002DE2D120682146001D0CF025FB0022A3
:10340000E369114620469847606A08B10CF038FE1F
:103410002046BDE8F0410CF033BE0000F8B50020B6
:1034200005F074FE0746002005F040FF06464549BA
:1034300045480FF0FFFD454D284604F07CFF424C07
:103440000090BDF800006080284604F074FF0090F2
:10345000BDF80000A0800025E58225833C4904F1E9
:103460003C000FF0E7FD04F13C003A49057285810C
:103470003C300FF0DFFD04F178007F21C580017240
:1034800035490A680092BDF80020A4F87A204A68FD
:103490000092BDF80020A4F87C2085818868009007
:1034A00004F18000BDF800100183002005F0C2FE89
:1034B000002111F077FB0446324639460DF0F1FC4D
:1034C00026A1204611F034FA074626A1204611F025
:1034D0002FFA064625A1204611F02AFA05461A4A77
:1034E0000021204611F00EFD174A0221204611F05E
:1034F00009FD144A0121204611F004FD124A03215E
:103500003C32204611F0FEFC0F4A0421783220465E
:1035100011F0F8FC0C4A05213C32204611F0F2FC77
:10352000094A06217832204611F0ECFC384614F0A6
:10353000A9FC304601F034FF2846BDE8F840FFF70B
:1035400097BD0000F47F0020807B0020B77F4800FB
:10355000E480002020810020588A01085772697495
:10356000650000004C6973740000000043686172DC
:103570007400000070B50C4605460DF037FA04845F
:103580002846BDE870400DF0DFBA10B5044600686B
:103590000DF02CFA10F8281F21F01E010170206890
:1035A000BDE810400DF0D0BA0749096850B1021DBE
:1035B000006801F5004102EB5000021D8A4200D371
:1035C0000020704708467047140D002010B58A0788
:1035D00002D021F00301091D02680B1DB3EB520F4D
:1035E00000D15108B1EB520F0CD0021D0A441368F0
:1035F00023F0010313600468C1EB5404241F64F337
:103600005F031360026861F35F02026010BD000097
:103610002DE9F0410F4604461646002572B61146C4
:103620003846FCF789FE4FF40062002119E000BF24
:10363000B4F80408B8B1B4F80208205C7855B4F8BE
:103640000208401CA4F80208B4F80408401EA4F8BC
:103650000408B4F80208904201D3A4F802186D1CC3
:10366000ADB2B542E4D362B6E8B2BDE8F081F0B5E0
:10367000002372B6B0F804484FF400651444AC421D
:1036800002D962B60020F0BDB0F804481444A0F896
:103690000448002610E0CC5CB0F80078C455B0F8BF
:1036A0000048641CA0F80048B0F80048AC4201D3C0
:1036B000A0F800685B1C9BB29342ECD362B6D8B210
:1036C000F0BD2DE9F047054690F85C0091468A462A
:1036D000C00759D100260127EC68B8467CB995F897
:1036E0005C00C0F30010401E30424DD1B8F1000F15
:1036F0004AD028465146884700270446B8460EB9A6
:10370000260041D037B1214628464A469047044614
:10371000B04239D00127002CE1D020680DF07EF9AD
:103720000028DBD1E868A0422ED080B100680022DA
:103730001021C3699847E86800220D21006808F04D
:1037400041FB012820D1E86800680DF0FDF9EC602C
:10375000206800220F21C3699847E86800220C21E5
:10376000006808F02FFB01280ED1E868006812F00D
:10377000CDFAE86800680DF0E7F9A969002903D0DF
:103780002846BDE8F0470847BDE8F08738B504464D
:103790008DF800000121684614F0D2F8204638BDAB
:1037A00070B588B00E4604460DF020F9054602A912
:1037B00020460DF0B3F8002425E0686800EBC40053
:1037C0000168009140680190BDF80010BDF8080044
:1037D0000144ADF80010BDF80220BDF80A100A44FB
:1037E000ADF80220BDF804201044ADF80400BDF887
:1037F00006000844ADF806003146684602F0DFF8DE
:1038000020B9641CA4B2288CA042D6D8288CA0422F
:1038100001D14FF6FF7408B0204670BD10F00700CC
:1038200000D10120704738B50C460DF0DFF8054691
:10383000006B0DF011F90146686C28B10146204675
:10384000BDE838400FF0F6BB20460FF0F3FB206ACE
:10385000009060882084BDF800006080A0806081B6
:10386000FF210122E173A28100206082E080608359
:10387000A083E0822083E286217238BD2DE9FC47D7
:103880000F0006D0C4686069B84204D1A069BDE8E1
:10389000FC870020FBE7002104230EE0A26801EB77
:1038A000810052F8202003EB8000BA1A0192A5682B
:1038B000285A90420AD2491C89B2608AC0F3090092
:1038C0008842EBD80020C4E90570E2E7284601EB06
:1038D0008105122101EB85010026425C4FF00609AB
:1038E000910711D002F003084FF00C0AB8F1010F54
:1038F0000FD0274B08214FF0100CB8F1020F12D057
:10390000D243920725D03EE009EB8501405A019948
:1039100007E00AEB850109EB85024158805A019ABC
:10392000895C46182FE0009301EB85080CEB8502BB
:10393000825A50F80810022301A812F0E7F810B3D9
:10394000A16851F80820801A09EB85024008895ABD
:1039500018E0009301EB85080CEB8502825A50F8C1
:103960000810022301A812F0D1F860B1A16809EB98
:10397000850351F80820801A42080AEB8500085890
:10398000C95A805C0E18C4E9057630467FE700000E
:10399000AD7901087CB5C368C06800255B8AC4683E
:1039A0009B042CD4A36801EB022013F0407F04D0C9
:1039B000C3F30161012910D02DE02668ADF80400A1
:1039C000164823F07F4200900223314601A812F0EE
:1039D0009DF800B3801B40080EE026680190104857
:1039E0000090A068042320F07F42314601A812F025
:1039F0008DF880B1801B000961680D560BE063688B
:103A0000585C995C38B131B1637B2268401E10FB71
:103A10000320491E455628467CBD00003148000859
:103A20001D4800080021A0F13002092A01D8D1B2B6
:103A300016E0612801D32038C0B2413806280FD2E1
:103A4000DFE800F0030507090B0D0A2108E00B2150
:103A500006E00C2104E00D2102E00E2100E00F2120
:103A6000084670472DE9FE4F04464FF0000985696E
:103A700003E028460CF0E6FF054628460CF0ACFFB4
:103A800018B1002DF5D1BDE8FE8F002DFBD02846E2
:103A90000CF098FF0028F6D028460CF098FF074657
:103AA000208AB4F90CC0674A604401B22182608A5E
:103AB000B4F90E60304400B2608294F824305FEABA
:103AC000C3781CD15FEAC77808D0002900DC4942DE
:103AD000D2F8048098F81880414508DAB907D2D5A1
:103AE000002800DC40425168097E8842CBDB43F06D
:103AF000010084F824004FF00109C007C3D0BCF1D5
:103B0000000F01D1002EBED050689046006905F02C
:103B10000FFB0290B5F910000190B5F912B02846DC
:103B20000CF090FF0CF0F0FF009028460CF08AFF9C
:103B30000CF060FF824628460CF0FAFF0646284645
:103B40000CF0FCFF032F0ED0F9071FD0B9F1000FC6
:103B500002D0208A304406B2A089304401B22846FF
:103B60000DF0F5F920E0B9F1000F05D0218A3144BC
:103B70000EB2618A084400B2E189084402B2A08909
:103B8000304401B228460DF04BF90DE0B9070BD5D2
:103B9000B9F1000F02D0618A084400B2E1890844FB
:103BA00001B228460DF0DFF994F82400800715D4FF
:103BB000EB690D212846D8F804209847204600F0EC
:103BC000AFFD00287FF45FAF00220821284608F0EF
:103BD000F9F8204600F0A4FD0028F3D194F8240061
:103BE00040F0020084F82400B5F9102001998A42BF
:103BF000E8D1B5F912205A45E4D120F0020084F84A
:103C0000240028460CF01EFF0CF07EFF04462846D8
:103C10000CF018FF0CF0EEFE00998C42D2D150450A
:103C2000D0D1D8F804004446006905F081FA029921
:103C3000401A81B26068006903B0BDE8F04F05F03A
:103C400062BB0000CC0000202DE9FF41044690F843
:103C5000240080070BD5E56903E028460CF0F2FE4E
:103C6000054628460CF0B8FE18B1002DF5D1BDE888
:103C7000FF81002DFBD028460CF0B3FE584FE0B179
:103C800028460CF0A4FE7A680646A08A517EC1F14F
:103C9000640110FB01F0642190FBF1F000B2A082FE
:103CA00092F819C0E38ACCF1640C13FB0CF393FB7C
:103CB000F1F109B2E182F0B91CE094F824000E2180
:103CC00020F0020084F82400EB6928467A689847BF
:103CD00000220921284608F075F8204600F020FD52
:103CE0000028C4D104B02846BDE8F04100220921D3
:103CF00008F068B8E9B3694628460CF00FFE28467C
:103D00000CF016FFA18A08440FFA80F828460CF040
:103D100015FFE18A032E084401B206D0F0070AD04D
:103D2000414628460DF013F90AE00A464146284666
:103D30000DF076F804E0B00702D528460DF013F92F
:103D400002A928460CF0EAFDBDF90000BDF90810F3
:103D5000884202D0A08A002889D1BDF90200BDF9AD
:103D60000A10884202D0E08A002880D194F824000A
:103D700000E01BE020F0020084F824000020A08175
:103D8000E081A082E082EB690E2128467A6898479C
:103D9000204600F0C5FC0028A3D1002209212846B6
:103DA00008F010F8204600F0BBFC60E794F824000F
:103DB0000E2120F0020084F82400EB692846984781
:103DC000204600F0ADFC0028EFD100220921284652
:103DD00007F0F8FF04B02046BDE8F04100F0A0BCB9
:103DE000CC0000202DE9F84F0D460446897B90F861
:103DF00050004FF00008012922D0010709D520F01A
:103E0000080121F00101C4F8488084F8501084F8BA
:103E1000248094F82470A87B84F824006868A06249
:103E2000D4F858905FEA09007ED008F0F7F9DFF87F
:103E300094A20028CAF8000076D0A87B18B142E00E
:103E4000000771D4E5E7484608F0E1F90028B5F924
:103E50000C001ED000280FDA4FF0000606E000BF6D
:103E60004FF01401484608F050FA761CB5F90C00E2
:103E70004042B042F4DC26E025DD002604E01321B8
:103E8000484608F042FA761CB5F90C00B042F6DC60
:103E900019E000280CDA4FF0000603E0484608F06D
:103EA000A7F9761CB5F90C004042B042F6DC0AE0F6
:103EB00009DD002603E0484608F044F9761CB5F910
:103EC0000C00B042F7DC484608F0A8F95646CAF89C
:103ED0000000002828D0AA7B04F1200A012A01D082
:103EE000EAB3EAE017B1012F27D0E6E08DF80080B1
:103EF000C3696A461221984711F07EFBA0644846C8
:103F000008F085F99DF800108143EAD1306800225D
:103F10000721C3699847504600F002FC002803D1EE
:103F200000221146306800E084E007F04BFF504665
:103F300000F0F6FB00287DD1BFE094F85000C007E8
:103F400037D1A06C11F052FB618B884231D98DF8CA
:103F5000008030686A461221C369984700E029E072
:103F60009DF8000060B148460BF035FDE0B94846C9
:103F700008F04DF980F00101484608F0D9F913E046
:103F8000306800220B21C3699847504600F0C8FBF7
:103F900000284FD100220421306807F013FF50465B
:103FA00000F0BEFB002845D114F8500F40F001008E
:103FB000207082E0012F74D18DF80080C3694546DE
:103FC0006A46122198479DF80000A0B399F85C005A
:103FD000800794F850004FEAC07063D518B1484686
:103FE0000BF0F9FC40B3306800220A21C3699847FE
:103FF000504600F095FB002861D100220321306873
:1040000007F0E0FE504600F08BFB002857D100225D
:104010000621306807F0D6FE504600F081FB0028EC
:104020004DD100220721306807F0CCFE504600F049
:1040300077FB02E043E007E039E000283FD10A21A6
:10404000484608F062F932E0306800220A21C3696C
:104050009847504600F064FB002830D194F8500097
:10406000C00704D100220321306807F0ABFE5046A0
:1040700000F056FB002822D100220621306807F00C
:10408000A1FE504600F04CFB002818D10022072169
:10409000306807F097FE504600F042FB00280ED132
:1040A00005E00AE018B90121484608F041F944F852
:1040B000485F207A20F001002072C6F80080BDE839
:1040C000F88F0000CC0000202DE9F0470E46044692
:1040D000897B90F850000027012926D0010706D5DA
:1040E00020F00900A76484F8500084F82470D4F804
:1040F00058805FEA08007DD008F090F86F4D0028E6
:10410000286077D0A26A7168A16294F82410B37B0A
:1041100084F8243096F80EC004F12009BCF1010F98
:1041200006D0BCF1000F7DD0C5E0000762D4DEE709
:1041300011B101293BD0BEE011F05EFAA0647168B4
:104140000A2909D01B2918D0092920D00B2926D0EB
:10415000404608F0DAF8AEE00A21404608F0D5F80B
:10416000286800220721C3699847484600F0D8FA1A
:1041700000283FD10022114605E01B21404608F0EF
:10418000C4F800221221286807F01CFE48E0002134
:10419000404608F0CDF8404607F0D4FF40E000214B
:1041A000404608F0C5F8404608F022F838E094F898
:1041B0005000C00721D1A06C11F018FA618B884221
:1041C00094F8500017D940F0010084F8500070684E
:1041D0000A2870D111F010FAE064286800220B213F
:1041E000C3699847484600F09BFA002864D1002232
:1041F0000421C8E760E0C0075DD0E06C11F0F6F97B
:10420000A18B884257D911F0F7F9E06471680A2947
:104210000ED00929BBD00B29C1D0404608F075F853
:10422000484600E011E000F07BFA002844D142E06B
:10423000286800220C21C3699847484600F070FAAC
:10424000002839D1002205219DE7012933D1726070
:104250000A2A2AD10022C3690A219847484600F059
:104260005FFA002828D194F85000C00709D1002235
:104270000321286807F0A6FD484600F051FA0028FF
:104280001AD100220621286807F09CFD484600F05C
:1042900047FA002810D100220721286807F092FD74
:1042A000484600F03DFA002806D144F8487F207ABD
:1042B00020F0010020722F60BDE8F087CC000020C4
:1042C00070B5954D04468069286094F83010090750
:1042D0007ED469680E6938B194F8241089071DD41A
:1042E00010210CF08FFCC8B9304604F027FF0146BE
:1042F000204600F021FA286080B9304604F05CFFC7
:104300000146204600F018FA286038B9304604F01B
:1043100091FF0146204600F00FFA2860A669286840
:10432000864254D0A0882081E08860819EB1F369E4
:10433000092130466A689847204600F0F1F90028C4
:1043400046D100220221304607F03CFD204600F015
:10435000E7F900283CD12868A061E061B8B311F00A
:104360004BF9A06294F8300020F0010084F830008E
:1043700094F8240020F0030084F824000020208218
:104380006082A081E0810026286806E090F8301065
:10439000890600D506460CF055FB0028F6D116B16B
:1043A00030460CF035FC286807216A68C3699847D5
:1043B000204600F0B5F900280AD1002211462868ED
:1043C00007F000FD204600F0ABF9002800D100E026
:1043D000A0E0A0882189401A03B2A381E088618906
:1043E000401A02B2E281B4F9140000EB800040F3FD
:1043F000CF00A082B4F91610002801EB810141F32F
:10440000CF01E18202DA00F1010002E002DDA0F159
:104410000100A082002902DA01F1010102E002DDBF
:10442000A1F10101E182A08A00EB6300A082E08A91
:1044300000EB6200E082286800286BD0C3694FF06F
:1044400008016A689847204600F06AF9002861D19F
:1044500000220121286807F0B5FC204600F060F931
:10446000002857D12046FFF7FDFA204600F058F902
:1044700000284FD194F8240080074BD494F83000E2
:10448000C0072AD1A06A11F0B1F86A68518B88423E
:104490001BD928680B21C3699847204600F040F9D2
:1044A000002837D100220421286807F08BFC204621
:1044B00000F036F900282DD194F8300040F00100CA
:1044C00084F8300011F098F8E06294F82400800736
:1044D00020D494F83000C0071CD0E06A11F086F8B0
:1044E0006A68918B884215D928680C21C36998475E
:1044F000204600F015F900280CD10022052128687B
:1045000007F060FC204600F00BF9002802D111F002
:1045100073F8E06270BD0000CC0000202DE9F04788
:1045200090F83010044608074FF000090BD5C4F886
:104530001890C4F81C90C4F8289021F00800C4F822
:104540002C9084F83000664DA069286000287DD04A
:1045500010210CF057FB002828686A684FF00A0108
:10456000C3690ED09847204600F0DAF800286ED1D3
:1045700094F82400800726D494F83000C0070ED0A9
:1045800017E09847204600F0CBF800285FD194F858
:104590003000C0070DD194F82400800709D4002210
:1045A0000321286807F00EFC204600F0B9F8002827
:1045B0004DD100220621286807F004FC204600F0B7
:1045C000AFF8002843D100220721286807F0FAFB42
:1045D000204600F0A5F800287FD1204600F0A0F882
:1045E00000287AD1002628680CF002FA80462021A3
:1045F00028680CF007FBC8B92F680CE038460CF0AF
:1046000021FA070012D020210CF0FCFA70B93846CC
:104610000CF0EEF98046B8F10000EFD037B107F0AA
:10462000EFFD18B10126384607F094FD206A29688D
:10463000884218D0BEB900220D2107F0C3FB2046E6
:1046400000F06EF8002848D1002201E036E044E096
:104650000C21A06907F0B6FB204600F061F80028A5
:104660003BD128682062204600F05AF8002834D157
:104670002D6803E028460CF0E5F9054628460CF0C5
:10468000ABF910B1002DF5D112E08DB128460CF038
:10469000A8F968B194F82400800709D500220A21FE
:1046A000284607F08FFB204600F03AF8002814D186
:1046B000C4F81890C4F82890C4F82C90E069002839
:1046C0000BD094F83000800707D42046FFF7BCFADF
:1046D0002046BDE8F04700F023B8BDE8F0870000B1
:1046E000CC00002090F85020910715D5002181635F
:1046F000C163016410F8443F22F0030223F0030376
:1047000000F814398161C161018041808180C180DC
:1047100080F820200148016070470000CC00002094
:1047200090F83000810702D5024A00211160C0F3E1
:1047300040007047CC0000202DE9F0410C460746B0
:10474000011D002504F1100001F039F910B3201DFE
:104750000BF0ACF809E001463846FFF7EDFF050025
:1047600018D13146201D0BF0A6F80600F3D12046E3
:104770000CF0CFF870B1264609E030460CF04EF947
:1047800008B136B106E030460CF05CF90646002E62
:10479000F3D125462846BDE8F08130B50546A1F5A0
:1047A0007F4087B00C46FF382BD028460CF01EF90E
:1047B000406800EBC400016800914068019002A9C4
:1047C00028460CF0ABF8BDF80010BDF80800014415
:1047D000ADF80010BDF80220BDF80A100A44ADF88B
:1047E0000220BDF804201044ADF80400BDF8060016
:1047F0000844ADF8060028460CF098F8694609F020
:10480000C1F907B030BD000010B500680BF0AEFF75
:1048100001490020886010BDB000002003880A888C
:10482000934201D0981A704740884988401A7047CF
:1048300003780A78934201D0981A704740784978F3
:10484000401A704730B5184D8BB00C46A86809F077
:104850009BFA112C01D0122C24D1A86800900CF0E6
:104860006DF9049004F04CFC04F020FD05900F4815
:1048700001900F4802900F4803900020ADF81A00F5
:104880004FF49671ADF818109DF82410ADF81C0087
:1048900021F00301ADF81E0008908DF82410684641
:1048A00000F068FF0BB030BDB0000020670F0108BA
:1048B0005D580008094800082DE9FC41D48E641EAB
:1048C00024B2661004F00107FF2B17D092F838408D
:1048D00014FB03F35FEA1323B0F802C0B0F90050F1
:1048E000B0F90440C088ACEB060CACEB07073044D1
:1048F0003FB200B2A54204DA2E4603E092F8383007
:10490000EAE72646ADF8006000DD2C46ADF804402D
:10491000874201DA3C4600E00446ADF8024000DD83
:104920003846ADF80600526B684604F005FEBDE857
:10493000FC8100002DE9FF4F97B0044624981E46E5
:104940008B46FF281FD096F838104143080A80464E
:104950000DF09EFD04F0C6FB0E90B4F90420B4F9EE
:104960000070B4F90630D01BB4F9025001B2581BE4
:1049700094F818C000B2BCF1000F07D003EB0B0293
:1049800095420CDB05E096F83800E0E75A44974280
:1049900005DAADF830004842ADF8320004E040429C
:1049A000ADF83000ADF83210BDF830000001ADF8C0
:1049B0003000BDF832000001ADF83200B6F93670B3
:1049C000F80004F08DFE05464FF0000A504617B37C
:1049D00005900CAA05A90FA800F066FC17FB07F0CC
:1049E000CDF80000BDF8441025F82A1005EB8A0028
:1049F000BDF846104180BDF8440010FB00F1BDF841
:104A0000460010FB00100099884207D30E985746C5
:104A100010B17F1E3FB20BE0059711E00FA800F028
:104A20007FFC0AF101000FFA80FABAF1040FD9DB1A
:104A30000E98059720B10FB9012005904FF000099D
:104A40007FB105EB870030F9041D01EBD1714910EE
:104A50000F91B0F9020000EBD0704FEA600B00201C
:104A6000E5E0207E68B1B4F90620B4F9021002EB4B
:104A70000B00814210DB6888401E6880207E002881
:104A80000AD1B4F90420B4F9001002EB0B00814202
:104A9000F0DB2888401E288088E100BF35F82A1006
:104AA0000F98081A01B205EB8A0025F82A104388EE
:104AB000A3EB0B0212B242800E9B002B7DD0BAF109
:104AC000000F7AD0237E83B330F9040C884274D06F
:104AD00005EB89001190B0F90200111A09B2099191
:104AE000B4F91210CDF804800029B18EADF8001091
:104AF00061881BDA01440998199B401C12900844F4
:104B000001B2228835F829001044401E00B2099AEB
:104B100004F0CDFCCDF80480B08EADF80000119803
:104B2000E18840880144129814E022E0084401B270
:104B3000228835F82900199B1044401E00B2099ABA
:104B400004F0B5FCCDF80480B08EADF800001198EB
:104B5000E1884088A288084401B235F82900199BF1
:104B60001044099A401C524200B212B204F09FFC59
:104B700059E030F9020C904256D035F92900091A53
:104B800009B20991B4F90E10CDF804800029B18E54
:104B9000ADF80010628805EB890122DA129149888C
:104BA000199B11442288491E0244099809B2401CED
:104BB0001190104400B2099A00E035E004F050FC76
:104BC000CDF80480B08E1299ADF80000E0884988D5
:104BD000A2880844401C01B235F82900024411980B
:104BE00019E011914988199B11442288491E1044EB
:104BF00009B200B2099A04F033FCCDF80480B08EFB
:104C00001199ADF80000E0884988A2880844401C4A
:104C100001B235F82900199B1044099A00B252429A
:104C200012B204F01DFCD1460AF1010000B2824626
:104C3000B842FFF633AF002F5FD00E9800285CD04B
:104C4000207E0028059805EB800057D005EB890BE6
:104C500030F8022CBBF90210501A0FFA80FAB4F99E
:104C60001200CDF80480B28EADF8002062880028D2
:104C70001CDA0A4402EB0A01238835F82920504443
:104C80001A44521E0FFA82FC02B209B26046199B06
:104C900004F00DFCCDF80480B08EADF80000E18882
:104CA000BBF80200014401EB0A0017E0114423881D
:104CB00035F8292050441A44521E0FFA82FC02B2E1
:104CC00009B26046199B04F0F2FBCDF80480B08E67
:104CD000ADF80000E188BBF80200084401B2A288E8
:104CE00035F82900638A104403EB0A02401C524243
:104CF00000B212B2199B04F0DAFB57E030F8041C42
:104D000035F92920881A0FFA80FAB4F90E00CDF887
:104D10000480B18EADF8001005EB89018B466388E5
:104D2000498800281944A1F10101238809B21CDA3D
:104D3000134403EB0A020FFA82FC504402B26046AD
:104D4000199B04F08DFBCDF80480B08EADF8000007
:104D5000E088BBF80210A2880844401C01B235F874
:104D60002900024402EB0A0017E01A440FFA82FC01
:104D7000504402B26046199B04F072FBCDF80480E7
:104D8000B08EADF80000E088BBF80210A28808449D
:104D9000401C01B235F829001044E38900B203EB4E
:104DA0000A02524212B2199B04F05AFB4FF0000A59
:104DB0000E98D346A8B1217E4FF0FF3031B1B4F93F
:104DC0001210002908DA82461FB103E0B4F90E1070
:104DD000F7E70020834604E00120834607B900205E
:104DE00082462088ADF80C006088ADF80E000120E6
:104DF0000F90207EE8BB8DE1BDF80C1035F829003E
:104E0000BDF80E200844ADF8180005EB89010B91A0
:104E100049881144ADF81A1022890244BDF80C00EB
:104E20004346101A401EADF81C00ADF81E10726B00
:104E300006A8199904F080FBB9F1000F15D00B9862
:104E400035F9291030F9040C81420ED00F9860B961
:104E5000CDF80080BDF81A10608A736B081A01B291
:104E6000BDF91800199A05F0C9FA09F1010000B25C
:104E70004CE040E00E98B0B3CDF80480B08EADF8B1
:104E80000000BDF80C002189401A02B2BDF80E00E6
:104E900069880144A1EB0A0001B2BDF80C002B881F
:104EA000184400B2199B04F0DBFACDF80480B08EF0
:104EB000ADF800002089BDF80C10401ABDF80E10A6
:104EC00002B2059805EB800030F8023C0B4403EB7E
:104ED0000B01BDF80C3009B230F8040C184400B2D4
:104EE000199B04F0BDFA00200F902089ADF80C004A
:104EF0006089ADF80E00B4F90A90204600F010FA6F
:104F0000E8B3B4F90A104945F7D000208146B84209
:104F1000FFF672AFAEE700BFBDF80C1035F8290000
:104F2000BDF80E200844ADF8180005EB89010B917F
:104F300049881144ADF81A1022891044BDF80C209C
:104F40004346801AADF81C00ADF81E10726B06A81F
:104F5000199904F0F1FAB9F1000F17D00B9835F94F
:104F6000291030F9040C814210D00F9870B9CDF897
:104F70000080BDF81A00618A401A01B200E008E022
:104F8000BDF91800736B199A05F038FA09F10100A0
:104F900000B28146B842BFDB0E98002839D0CDF868
:104FA0000480B08EADF800002089BDF80C10401AC6
:104FB000401C404202B2BDF80E0069880144A1EBDA
:104FC0000A0001B2BDF80C002B88184400B2199BEE
:104FD00004F046FACDF80480B08EADF800002089C8
:104FE000BDF80C10401A401CBDF80E1002B2059816
:104FF00005EB800030F8023C0B4403EB0B01BDF8DD
:105000000C3009B230F8040C184400B2199B04F0BB
:1050100027FA1BB0BDE8F08FBDF80C1035F8290059
:10502000BDF80E200844ADF8180005EB89010B917E
:105030004988ADF81C001144ADF81A106089084485
:10504000BDF80E104346401A401EADF81E00726BAC
:1050500006A8199904F070FAB9F1000F15D00B9851
:10506000B0F9021030F9020C81420ED00F9860B9ED
:10507000CDF80080BDF81800E189736B401A00B2CA
:10508000BDF91A10199A05F0B9F909F1010000B239
:105090004BE00E98B0B3CDF80480B08EADF80000B0
:1050A000BDF80E006189401A02B2BDF80E00698891
:1050B000BDF80C30084401B228880344A3EB0A0071
:1050C00000B2199B04F0F3F9CDF80480B08EADF86E
:1050D00000006089BDF80E10401ABDF80E1002B233
:1050E000059805EB800030F8023C1944BDF80C30FF
:1050F00009B230F8040C034403EB0B0000B2199B17
:1051000004F0D5F900200F902089ADF80C006089DB
:10511000ADF80E00B4F90890204600F001F9E8B3AC
:10512000B4F908104945F7D000208146B842FFF68F
:1051300073AFAEE7BDF80C1035F82900BDF80E20AE
:105140000844ADF8180005EB89010B914988ADF8CA
:105150001C001144ADF81A1060890844BDF80E1007
:105160004346401AADF81E00726B06A8199904F068
:10517000E3F9B9F1000F18D00B980B99B0F90200C0
:1051800031F9021C884210D00F9870B9CDF8008018
:10519000BDF81800E189401A00B200E008E0BDF94E
:1051A0001A10736B199A05F029F909F1010000B280
:1051B0008146B842BEDB0E9800283FF42AAFCDF8F6
:1051C0000480B08EADF800006089BDF80E10401A62
:1051D000401C404202B2BDF80E006988084401B28A
:1051E000BDF80C002B880344A3EB0A0000B2199B06
:1051F00004F05DF9CDF80480B08EADF80000608950
:10520000BDF80E10401A401CBDF80E1002B20598F1
:1052100005EB800030F8023C1944BDF80C3009B2AF
:1052200030F8040C034403EB0B0000B2199B04F0AC
:105230003EF9EEE62DE9FC41D48E641E24B26610E0
:1052400004F00104FF2B13D092F8385015FB03F340
:105250001B0A05883444AD1B8788B0F902603C44C2
:105260002DB224B2B0F90600A54204DA2F4603E0BD
:1052700092F83830EDE72746ADF8007000DD2C4697
:10528000ADF80440864201DA344600E00446ADF849
:10529000024000DD3046ADF80600526B684604F06F
:1052A0004BF9BDE8FC81000070B5B1F90030038016
:1052B000B1F902404480B2F900508580B2F9022071
:1052C000E91AC280002900DC591B09B281814FF024
:1052D000FF36AB4201DA012500E03546C581151BDA
:1052E000002D00DCA51A2DB20582944200DA0126B9
:1052F0004682A94202DC00BFC5F1000101EBD17179
:105300004FEA610181824FF00001C18202DD4FF05E
:10531000010101E04FF0000101760381448170BD7D
:1053200030B5B0F90820B0F904108A4207D1B0F9BD
:105330000A10B0F90630994201D1002030BDB0F911
:105340001410C182B0F90C305C42A14205DD058A1F
:105350004C1B8482C48922440281B0F910209142FE
:1053600006DA818A194481824189428A1144418145
:10537000012030BD70B5054603290DD1074C0A2127
:1053800060680EF01DFA28460AF08CF80146606845
:10539000BDE870400EF0CABA70BD0000B000002039
:1053A0002DE9F8438146002003F0B0FE0746B44AD9
:1053B000002148460CF0E7FDB14A012148460CF0B7
:1053C000E2FD002148460CF0ACFDAE49AE480DF0C0
:1053D00031FE40F2333002F0BAFF0090AA48BDF827
:1053E00000107038002520F8721F0095BDF80010DD
:1053F0004180A6490126096A0091BDF8001001818B
:10540000A1487F218681C173C58001463C300DF0E3
:1054100011FED8229621552002F0B0FF9A4C009040
:105420001034BDF8000024F82E0F9022622137209E
:1054300002F0A4FF0090BDF800006080F122D521A9
:10544000BB2002F09BFF0090BDF80000E08300212C
:10545000484609F0DDFE804648460BF0CBFA400096
:10546000032190FBF1F001B240460BF03FFC884A6B
:10547000002140460AF09EF8854A012140460AF084
:1054800099F8814A042140460AF094F87E4A0521A1
:105490003C3240460AF08EF8192000230090022288
:1054A000194640460AF082FE7AA27CA1404609F0E5
:1054B00083FD7B490BF018FC7AA27CA1404609F0E1
:1054C0007BFD77490BF010FC79A27BA1404609F0E7
:1054D00073FD73490BF008FC78A27AA1404609F0ED
:1054E0006BFD6F490BF000FC77A279A1404609F0F3
:1054F00063FD6B490BF0F8FB76A278A1404609F0FA
:105500005BFD67490BF0F0FB75A276A1404609F000
:1055100053FD63490BF0E8FB002148460AF050FBBD
:10552000804671A10AF062FCA7F1640001B2404616
:105530000BF001FD794940460AF0E0FA3220009074
:1055400000230222494640460AF030FE0021484628
:105550000AF036FB804672A10AF048FCC83F39B217
:1055600040460BF0E8FC6D49404608310AF0C6FAA7
:10557000002302224946404600950AF017FE00210A
:10558000484600F04FFD8046322264210BF048FC73
:105590003222642140460BF084FC664940460BF001
:1055A000A3FB0021404608F07DFD63A109F02CFC1F
:1055B0003548634978300DF03DFD40F2692002F036
:1055C000C6FE0090304FBDF80000A4F844007837C4
:1055D00040F6DF20BE8102F0BAFE0090BDF8000068
:1055E000A08740F26B46304602F0B1FE0090BDF855
:1055F0000000E087042078823D750A20F88040F69C
:10560000EF5002F0A4FE07F118040090BDF800006E
:105610002081394601F13C000DF00CFD304602F0CE
:1056200096FE0090BDF80000E08540F6BD0002F057
:105630008EFE0090BDF80000E08440F24A2002F0A7
:1056400086FE0090BDF80000208504F124010220B0
:10565000488240F6FF7002F07AFE0090BDF800002C
:10566000A4F844003A460021404600F0D1FE04F17F
:1056700024024046BDE8F843012100F0C9BE000005
:105680007C7F0020E4800020707C0020588A010884
:10569000B87F00204E65777E7E000000FF00FF008F
:1056A000755300084F70656E00000000EF81BB006D
:1056B00044656C6574650000EF809400456469740E
:1056C00000000000EF81800053617665000000005B
:1056D000EF8387005769466900000000EF87AB0041
:1056E00047505300EF84A400436C69636B20612032
:1056F000627574746F6E20746F20636F70792069A7
:105700007473207465787420746F207468652054F5
:10571000657874206172656120000000BC00002083
:105720005468697320697320616E6F7468657220B4
:1057300062746E00DD2F0008427574746F6E000095
:10574000F47F002010B5282107480AF0C8F80FF0B0
:1057500053FF0649002303224860BDE810401E2184
:1057600003480FF0CBBD0000C0840020EC0C0020EB
:10577000092F000870B54168044611B1206800F097
:105780003DF810480AF0B5F8050014D094F824004C
:10579000282220F0040084F8240021462846FAF745
:1057A000B2FD6A681AB1288A01B228689047064992
:1057B0000120087070BD05A35C2208A103200AF037
:1057C0007FF9FEE7C0840020EC0C00204F757420A8
:1057D0006F66206D656D6F72792100002E2E5C6CF6
:1057E00076676C5C7372635C6C765F6D6973635C27
:1057F0006C765F616E696D2E630000002DE9F047E5
:1058000081468A46002613480AF050F804460127CC
:10581000DFF8448018E021460E480AF04CF8216871
:10582000054649450FD16168514502D0BAF1000FD4
:1058300009D1214607480AF007F920460AF020FC62
:1058400088F8007001262C46002CE4D13046BDE8D3
:10585000F0870000C0840020EC0C0020028BB0F91F
:105860001A108A4202D14FF4806102E0890291FB52
:10587000F2F1D0E90423981A484302EBA02000B2C9
:105880007047B0F91A10028B914201DB808A00E068
:10589000008A00B270478B1A002B00DC531A4FF4B9
:1058A0007A714B4393FBF0F0B0F5803F02D34FF693
:1058B000FF7001E000B9012080B27047C1884088C4
:1058C000081A401C00B27047B0F90410B0F900206B
:1058D000891AB0F90620B0F90200101A401C491CC0
:1058E0004843704781880088081A401C00B27047FE
:1058F00081880088081A401C00B2704770B5B1F961
:105900000030B2F90040A34200DC23460380B1F925
:105910000250B2F90240A54200DD2C464480B1F9A4
:105920000460B2F90450AE4200DA35468580B1F920
:105930000610B2F90620914200DB1146C180012019
:10594000AB4201DC8C4200DD002070BD10B5B0F927
:105950000030B1F900400022A34212DBB0F902305E
:10596000B1F90240A3420CDBB0F90430B1F90440B4
:10597000A34206DCB0F90600B1F90610884200DC4B
:105980000122104610BDB0F90020B1F904309A424E
:1059900013DCB0F90420B1F900309A420DDBB0F904
:1059A0000220B1F906309A4207DCB0F90600B1F9DD
:1059B0000210884201DB012070470020704710B5BB
:1059C000B1F90030B0F900400022A3420EDBB0F97B
:1059D0000440A3420ADCB1F90210B0F90230994246
:1059E00004DBB0F90600814200DC0122104610BD44
:1059F00010B5B1F90040B2F900309C4200DA2346FC
:105A00000380B1F90240B2F902309C4200DA234629
:105A10004380B1F90440B2F904309C4200DD2346D2
:105A20008380B1F90610B2F90620914200DC1146DC
:105A3000C18010BD10B5029C018042808380C4806B
:105A400010BD4288491E1144C180704730B50346DD
:105A500080881C885D88001BDC88401C198000B28F
:105A6000641B641C014624B25A80184600F006F8F4
:105A70002146BDE830401846FFF7E3BF0288491EC3
:105A800011448180704770B50C4605460AF0AEFFA0
:105A900044812846BDE870400BF056B810B5044666
:105AA00000680AF0A3FF4FF0FF314181B0F9081000
:105AB0002068BDE81040002200F034BA70B50E46F0
:105AC0000AF012FD050003D03A4C606838B10AE0D4
:105AD00039A340223CA1032009F0F2FFFEE728464B
