:020000040800F2
:10000000E808012081020008B32200084119000815
:10001000B12200086F040008312B00080000000026
:10002000000000000000000000000000C101000806
:1000300071040008000000001D020008C923000828
:100040009B0200089B0200089B0200089B0200081C
:100050009B0200089B0200089B0200089B0200080C
:100060009B0200089B0200089B0200089B020008FC
:100070009B0200089B0200089B0200089B020008EC
:100080009B0200089B0200089B0200089B020008DC
:100090009B0200089B0200089B0200089B020008CC
:1000A0009B020008DD2400089B0200089B02000858
:1000B0009B0200089B0200089B0200089B020008AC
:1000C0009B0200089B0200089B0200089B0200089C
:1000D0009B020008252B00089B0200089B020008D9
:1000E0009B0200089B0200089B0200089B0200087C
:1000F0009B0200089B0200089B0200089B0200086C
:100100009B0200089B0200089B0200089B0200085B
:100110009B0200089B0200089B0200089B0200084B
:100120009B0200089B0200089B0200089B0200083B
:100130009B0200089B0200089B0200089B0200082B
:100140009B0200089B0200089B0200089B0200081B
:100150009B0200089B0200089B0200089B0200080B
:100160009B0200089B0200089B0200089B020008FB
:100170009B0200089B0200089B0200089B020008EB
:100180009B0200089B0200089B0200089B020008DB
:100190009B0200089B0200089B0200089B020008CB
:1001A0009B0200089B0200089B020008DFF80CD0AD
:1001B00000F020F9004800472D4A0108E808012016
:1001C0002C4B19680868B0E8F04F80F30988BFF33A
:1001D0006F8F4FF0000080F311887047000000001F
:1001E00008480068006880F308884FF0000080F33A
:1001F000148862B661B6BFF34F8FBFF36F8F00DF15
:1002000000BF00BF08ED00E0DFF80C00016841F41A
:1002100070010160704700BF88ED00E0EFF30980D6
:10022000BFF36F8F134B1A681EF0100F08BF20ED3D
:10023000108A20E9F04F106009B44FF0500080F3AD
:100240001188BFF34F8FBFF36F8F16F031FD4FF062
:10025000000080F3118809BC19680868B0E8F04F05
:100260001EF0100F08BFB0EC108A80F30988BFF3AE
:100270006F8F70473C000020EFF30580704700004F
:100280000648804706480047FEE7FEE7FEE7FEE730
:10029000FEE7FEE7FEE7FEE7FEE7FEE7892400084B
:1002A000AD0100082DE9F05F0546002092469B460F
:1002B00088460646814640241BE02846414647467C
:1002C000224600F087F853465A46C01A914110D38F
:1002D00011461846224600F06EF82D1A67EB010809
:1002E0004F4622460120002100F065F817EB000977
:1002F0004E41201EA4F10104DFDC484631462A4667
:100300004346BDE8F09F40EA01039B0703D009E0A4
:1003100008C9121F08C0042AFAD203E011F8013BF1
:1003200000F8013B521EF9D27047D2B201E000F84A
:10033000012B491EFBD270470022F6E710B5134689
:100340000A4604461946FFF7F0FF204610BD421C3E
:1003500010F8011B0029FBD1801A704710B500224C
:1003600000E0521C835C8C5CA34201D1002BF8D1CD
:10037000D8B2E1B2401A10BD034611F8012B00F8C3
:10038000012B002AF9D11846704730B50B460146BB
:1003900000202022012409E021FA02F59D4205D324
:1003A00003FA02F5491B04FA02F52844151EA2F1CE
:1003B0000102F1DC30BD202A04DB203A00FA02F110
:1003C000002070479140C2F1200320FA03F3194343
:1003D00090407047202A04DB203A21FA02F00021E5
:1003E000704721FA02F3D040C2F120029140084345
:1003F00019467047064C074D06E0E06840F00103DF
:1004000094E8070098471034AC42F6D3FFF7D2FEC9
:1004100000A1010820A1010870B58C1810F8015B3B
:1004200015F0070301D110F8013B2A1106D110F88D
:10043000012B03E010F8016B01F8016B5B1EF9D191
:100440002B0705D40023521E0DD401F8013BFAE717
:1004500010F8013BCB1A921C03E013F8015B01F882
:10046000015B521EF9D5A142D8D3002070BDFEE732
:100470007047704770B5B3F5804F05D06FF070418D
:1004800040F82210002070BD50F82240084B8E89A1
:100490001C40D1E9003543EA05138D6889692D02B6
:1004A00045EA06452B430B43234340F82230E9E756
:1004B0000000F0CFF0B50C6850F82430174A134014
:1004C000D1E90125D1E903672A433E4332434E690E
:1004D00032438E693243CE6932430E6A32434E6AEA
:1004E00032438E6A3243CE6A3243CE6B32430E6B56
:1004F00032434E6B32431A43082D01D142F0400281
:1005000040F824204A6BB2F5801F05D1096819B163
:10051000016841F4801101600020F0BD8000E0FF1F
:10052000F0B500EB8204626802F04045D1E9002397
:1005300042EA03128B688E891B0243EA06431A4380
:100540000E8A0D4B03EB065632430E7D5F0107EB1F
:10055000066632438E6932432A4362600268D202E1
:1005600007D54268098A22F4700203EB0151114356
:1005700041600020F0BD00000000F0FF90F8351051
:10058000022903D08021416501207047052180F8B0
:1005900035100068016821F00101016000207047FA
:1005A000F0B587B014216846FFF7C6FE1E48016803
:1005B000002937D1012101601C480024026842F063
:1005C0000102026000680225CDE9001500F001007B
:1005D0000C270326CDE90470CDE90246694614488C
:1005E00000F02EF84FF68070CDE9000502AA6946AA
:1005F00082E8D0000F4800F023F84CF23370CDE9C8
:10060000000502AA694682E8D0000B4800F018F8FD
:10061000E802CDE9000502AA694682E8D000074851
:1006200000F00EF807B0F0BD24000020383802407A
:100630000014024000100240000C0240001802406A
:100640002DE9F84FDFF890B100224FF001084FF08C
:10065000030A4FF00F090BF1040E00BF0B6808FAF4
:1006600002F42340A3426ED14D68022D01D0122D19
:100670000ED1D50800EB850CDCF820505607F70E9C
:1006800009FA07F6B5430E69BE402E43CCF8206048
:10069000066855000F790AFA05FC07F0030726EAF9
:1006A0000C06AF40374307604E68012E05D0022E7E
:1006B00003D0112E01D0122E0ED18768CE6827EA02
:1006C0000C07AE403E4386604668A6430C79C4F3EF
:1006D0000014944034434460C4688E6824EA0C04D7
:1006E000AE402643C6604C68E4006FD53B4C25689D
:1006F00045F480452560246822F0030504F4804415
:100700000094374C2E19D6F8084895072F0F09FA90
:1007100007F5AC43334DA84201D100252EE0324D00
:10072000A84201D1012529E0304DA84201D102257E
:1007300024E02F4DA84201D103251FE02D4DA842F2
:1007400002D104251AE041E02B4DA84201D1052534
:1007500014E02A4DA84201D106250FE0284DA842F9
:1007600001D107250AE0274DA84201D1082505E05F
:10077000254DA84201D1092500E00A25BD402543A9
:10078000C6F80858DBF800405D464E689C43F60307
:1007900000D51C432C60DEF8004075464E689C4333
:1007A000B60300D51C432C600B4D08352C684E68F1
:1007B0009C43F60200D51C432C60074D0C352C6879
:1007C0004E689C43B60200D51C432C60521C102A74
:1007D000FFF444AFBDE8F88F003C014044380240CC
:1007E00000300140000002400004024000080240C6
:1007F000000C0240001002400014024000180240A9
:10080000001C024000200240002402400069084011
:1008100000D0012070470AB1816170470904FBE7ED
:1008200001488068704700002C0000200248816861
:1008300002781144816070472C0000200B4810B5ED
:10084000016841F400710160016841F48061016058
:10085000016841F480710160032000F08DF80020F0
:1008600000F006F800F03EF8002010BD003C024009
:1008700010B5014688B00022192000F05DF819205B
:1008800000F04CF813480024016841F001010160B8
:10089000006805A900F001000690684600F016F90E
:1008A00000F044F90C494000B0FBF1F10C480B4A50
:1008B000491E026040F2E732C0E90324C0E9011496
:1008C00000F0EEFD10B1012008B010BD044800F0AA
:1008D00003FEF9E74438024040420F0000000140A7
:1008E000682A00200C4882B0016841F48041016010
:1008F000006800F4804000900748001F016841F044
:10090000805101600068002200F0805000900F21AB
:10091000901E02B000F010B844380240002809DBF5
:1009200000F01F02012191404009800000F1E02009
:10093000C0F8001170470000F0B40E4B1B680C4665
:10094000C3F30223C3F10705042D00D90425191DA3
:10095000072901D2002300E0DB1E012606FA05F17B
:10096000491E214099409E40761E16403143F0BCFE
:1009700002F004B90CED00E0064900F00702086837
:100980004FF6FF03184040EA0220034A1043086074
:10099000704700000CED00E00000FA052DE9F0477B
:1009A0000E46050065D0DFF81481D8F80000F7B2D4
:1009B00000F00F00B04207D288F80070D8F80000AD
:1009C00000F00F00B04254D128683D4C810712D589
:1009D000400703D5206840F4E050206028780007E5
:1009E00003D5206840F4604020602068A96820F0AA
:1009F000F000084320602878C0072DD0304968688F
:100A00000839012812D0022813D0032811D0096810
:100A1000890700292DDA216821F0030101432160B3
:100A2000FFF7FEFE814641F2883A0EE0096889032D
:100A3000EFE709688901ECE7FFF7F2FEA0EB090197
:100A4000514502D90320BDE8F0872068696800F0AD
:100A50000C00B0EB810FEFD1D8F80010404601F048
:100A60000F01B14207D90770006800F00F00B042D3
:100A700001D00120E7E72878400705D52068E9681C
:100A800020F4E050084320602878000706D520684D
:100A9000296920F4604040EAC100206000F056F867
:100AA0002168084AC1F30311515CC8400649086037
:100AB0000020FFF7DDFE0020C5E70000003C0240FB
:100AC00008380240D0780108380000200F22026068
:100AD0000C4A136803F003034360136803F0F00348
:100AE0008360136803F4E053C36012684FF4E0536B
:100AF00003EAD20202610448006800F00F000860B7
:100B00007047000008380240003C02400448054994
:100B100000680968044AC1F38221515CC8407047EB
:100B20003800002008380240E078010804480549F0
:100B300000680968044AC1F34231515CC8407047FB
:100B40003800002008380240E0780108154810B548
:100B5000006810F00C02144813D01449042A0FD076
:100B6000082A0ED10F4C241F2268236802F03F028E
:100B70005B0207D52068C0F38810A0FB010106E0E6
:100B8000084610BD2168C1F38811A1FB00010023B4
:100B9000FFF788FB2168C1F30141491C4900B0FB04
:100BA000F1F010BD083802400024F40040787D01C7
:100BB0002DE9F84F050076D02878DFF8F8B2BE4C62
:100BC000C00749D0DBF800105846C1F38101012964
:100BD00008D00068C0F3810002280AD1201D0068F7
:100BE000400206D52068800336D568680028E2D028
:100BF00032E06868B0F5803F10D0B0F5A02F2068D3
:100C000010D020F480302060206820F48020206004
:100C10006868A0B1FFF704FE06460CE0206840F4C7
:100C20008030F4E740F480202060F7E7FFF7F8FD1C
:100C3000801B642873D820688003F7D50CE0FFF789
:100C4000EFFD064605E000BFFFF7EAFD801B6428C4
:100C5000F0D820688003F7D42878DFF86082800716
:100C60004FF000093ED5DBF80010584611F00C0F8C
:100C700009D00068C0F3810002280BD18D48001F05
:100C80000068400206D42068800715D5E86801286E
:100C900009D111E0E868B8B10120C8F80000FFF7F9
:100CA000BFFD064605E002E1FFF7BAFD801B022802
:100CB000C0D820688007F7D52068296920F0F8009F
:100CC00040EAC10020600DE0C8F80090FFF7A8FDE1
:100CD000064604E0FFF7A4FD801B02281FD8206809
:100CE0008007F7D42878000722D5724E74486969C6
:100CF0006C3671B101210160FFF792FD074604E0F7
:100D0000FFF78EFDC01B022809D830688007F7D591
:100D10000EE0C0F80090FFF783FD074605E083E092
:100D2000FFF77EFDC01B02287ED830688007F7D40D
:100D30002878400768D5DFF87CA100270AF1380A37
:100D4000DAF80000C0000BD4DAF8001041F080514E
:100D5000CAF80010DAF80000012700F08050009077
:100D6000584E3068C00510D4306840F48070306050
:100D7000FFF756FD009005E0FFF752FD0099401A7D
:100D8000022851D83068C005F6D54A4EA8686836A2
:100D900001280FD00528306810D020F00100306005
:100DA000306820F004003060A868B8B1FFF738FD63
:100DB00000900FE0306840F00100F4E740F00400DC
:100DC0003060F7E7FFF72CFD0099411A41F28830B7
:100DD000814264D830688007F4D50EE0FFF720FD2B
:100DE000009007E0FFF71CFD0099411A41F288309E
:100DF000814254D830688007F4D42FB1DAF800105B
:100E000021F08051CAF80010A869C0B3DBF80010C7
:100E1000C1F3810102294AD00228484607D0C8F808
:100E20006000FFF7FDFC00E039E005463AE0474688
:100E3000C8F86000FFF7F4FC064604E0FFF7F0FC9A
:100E4000801B02282BD820688001F7D4D5E9070140
:100E50000843A96A1C4A490802EB01416A6A41EA4F
:100E60008211084395F82C1040EA01611148001FD7
:100E7000016001203866FFF7D3FC054605E014E069
:100E8000FFF7CEFC401B022809D820688001F7D567
:100E90000BE000BFFFF7C4FC401B022802D903206F
:100EA000BDE8F88F20688001F4D40020F8E7012025
:100EB000F6E70000083802400038024000004742D0
:100EC000800E4742007000400000FFFF70B5040034
:100ED00005D00025A56294F8510010B106E001206C
:100EE00070BD84F85050204600F030F8022084F89D
:100EF00051002068016821F040010160D4E901013E
:100F00000843D4E903121143084361690843218B64
:100F100001F400710843E1690843216A0843A16AAA
:100F2000084321680860A069042101EA1040616A51
:100F30000843216848602068C16921F40061C161EB
:100F40006565012084F85100002070BD10B586B0A1
:100F5000044614216846FFF7EFF9134920688842D8
:100F600020D112480021026842F4804202600068E9
:100F700000F4804005900D481038026842F48072F9
:100F80000260006800F4807005900E20009002203E
:100F9000CDE901010320039005200490694604482F
:100FA000FFF74EFB06B010BD00380040403802404D
:100FB000002002402DE9F84F04464068002598467D
:100FC00016460F464FF0040BB0F5827F01D1A068A2
:100FD00088B194F85000012818D0012084F85000FE
:100FE000FFF71EFC814694F851004FF0000A0128DB
:100FF0000ED002257DE084F851B013460A46204603
:10100000CDF8008000F02CF9BDE8F88F0220FBE756
:10101000002F6DD0002E6BD084F851B0C4F854A0CE
:10102000A763A687E687C4F830A0A4F834A0A4F884
:1010300036A0C4F840A0C4F844A0A068B0F5004FA2
:1010400004D12068016821F48041016020680168B2
:10105000490603D4016841F040010160E068D8B15D
:1010600039E020688168C90709D0007BA16B08704E
:10107000A06B401CA063E08F401EE0870CE0FFF7F0
:10108000CFFBA0EB0901414503D3B8F1FF3F03D0EB
:1010900036E0B8F1000F33D0E08F0028E1D11DE039
:1010A00020688168C90709D0C068A16B0880A06B5F
:1010B000801CA063E08F401EE0870CE0FFF7B0FBD0
:1010C000A0EB0901414503D3B8F1FF3F03D017E07E
:1010D000B8F1000F14D0E08F0028E1D14A46414614
:1010E000204601F0E7F808B120206065606D00B18E
:1010F0000125012084F8510084F850A0284683E798
:101100000325F6E72DE9F84F044690F85000002734
:101110001D461646894601280DD04FF0010B84F874
:1011200050B0FFF77DFB804694F85100BA46012885
:1011300004D002278EE00220BDE8F88FB9F1000F3D
:101140007DD0002E7BD0032084F85100C4F854A039
:10115000C4F83090A686E686C4F838A0A4F83CA06F
:10116000A4F83EA0C4F844A0C4F840A0A068B0F51C
:10117000004F04D12068016841F48041016020687B
:101180000168490603D4016841F040010160E0684C
:10119000B0F5006F606803D030B3012E24D040E07A
:1011A00008B1012E1CD1206B21680088C86006E0C0
:1011B00020688168890709D5216B0988C160206B87
:1011C000801C2063E08E401EE08609E0FFF728FBCC
:1011D000A0EB0800A84202D3681C01D031E07DB327
:1011E000E08E0028E4D11FE0206B216800780873AE
:1011F00006E020688168890709D5216B09780173A9
:10120000206B401C2063E08E401EE08609E0FFF763
:1012100007FBA0EB0800A84202D3681C01D010E035
:1012200075B1E08E0028E4D142462946204601F0FF
:1012300062F808B120206065A06820B107E008E0EE
:10124000FFE7032706E02068C16880680090606DB2
:1012500000B1012784F851B084F850A038466BE7FC
:101260002DE9F84F044690F8500000270A9E1D46CD
:1012700092468B464FF0010901280ED0012084F8D8
:101280005000FFF7CDFA804694F8510061680128BC
:101290000CD0B1F5827F07D102E00220BDE8F88FC3
:1012A000A16809B9042801D00227C2E0BBF1000FF0
:1012B00027D0BAF1000F24D01DB394F851000428B0
:1012C00002D0052084F8510000206065C4F838A0E1
:1012D000E587A587C4F830B0E586A58620646064FC
:1012E00020680168490603D4016841F040010160AB
:1012F000E068B0F5006F606805D0E8B3012D46D016
:101300007FE0012795E008B1012D39D1206B2168DC
:101310000088C860206B801C2063E08E401EE08641
:101320002EE02068816889070FD5E18E69B1B9F197
:10133000010F0AD1216B0988C160206B801C2063DA
:10134000E08E401EE0864FF0000920688168C907E2
:101350000CD0E18F51B1C068A16B0880A06B801CDC
:10136000A063E08F401EE0874FF00109FFF758FAB5
:10137000A0EB0800B04200E009E001D3701C50D19E
:10138000E08E0028CDD1E08F0028CAD13FE0206B4D
:10139000216800780873206B401C2063E08E401E9B
:1013A000E0862EE02068816889070FD5E18E69B15B
:1013B000B9F1010F0AD1216B09780173206B401C30
:1013C0002063E08E401EE0864FF0000920688168AF
:1013D000C9070CD0E18F51B1C068A16B0870A06B38
:1013E000401CA063E08F401EE0874FF00109FFF72B
:1013F00017FAA0EB0800B04202D3701C01D010E035
:101400007EB1E08E0028CDD1E08F0028CAD14246BF
:101410003146204600F06FFF28B10127202060658B
:1014200007E0032705E0A06818B92068C168806854
:101430000090012084F85100002084F850003846C4
:101440002CE770B515460E46040003D094F8490009
:1014500010B107E0012070BD002084F8480020464C
:1014600000F01AF804F108012068FFF723F831466C
:10147000A2682068FFF754F8D4E901022946236BDB
:10148000FEF7F8FFA168206850F8212042F0010221
:1014900040F82120002070BDFFF782B870477047E8
:1014A00010B5040003D094F83D0010B107E001200E
:1014B00010BD002084F83C00204600F00CF802200B
:1014C00084F83D00211D206801F00EF8012084F809
:1014D0003D00002010BD70470168CA6842F001025B
:1014E000CA600068816801F00701062903D001681D
:1014F00041F00101016000207047704770B504465B
:10150000006801694FF00005C943890715D4C16817
:10151000C943890711D4E91E0161012020772068A1
:1015200080698007204602D0FFF7E7FF04E000F063
:1015300098F8204600F096F8257720680169C9439D
:10154000490717D4C168C943490713D46FF0040190
:101550000161022020772068806910F4407F2046D6
:1015600002D0FFF7CAFF04E000F07BF8204600F04D
:1015700079F8257720680169C943090716D4C1683D
:10158000C943090712D46FF00801016104202077D4
:101590002068C0698007204602D0FFF7AEFF04E054
:1015A00000F05FF8204600F05DF8257720680169BB
:1015B000C943C90617D4C168C943C90613D46FF01B
:1015C00010010161082020772068C06910F4407F75
:1015D000204602D0FFF791FF04E000F042F82046D9
:1015E00000F040F8257720680169C943C90708D190
:1015F000C168C943C90704D1891E0161204600F0B2
:1016000033F820680169C943090609D4C168C94390
:10161000090605D46FF0800101612046FFF73EFF07
:1016200020680169C943490609D4C168C94349060C
:1016300005D46FF040010161204600F01FF82068DA
:101640000169C94389060BD4C168C943890607D417
:101650006FF0200101612046BDE87040FFF71FBF19
:1016600070BD70477047000000680349884201D18F
:10167000FFF7DCB87047000000000140704770477A
:1016800010F8391F407808437047000070B50268B1
:1016900004461068D168536910F00F0F50D003F062
:1016A000010501F4907635435DD0C20705D0CA0527
:1016B00003D5E26B42F00102E263420705D5DA0787
:1016C00003D0E26B42F00202E263820705D5DA073B
:1016D00003D0E26B42F00402E263020705D5DA07A9
:1016E00003D0E26B42F00802E263E26B002A33D0DF
:1016F000800604D5880602D5204601F03FF8206810
:101700004069E16BC0F38010090700D428B320467C
:1017100001F026F82068416949061AD5416921F08F
:1017200040014161606BA0B11B490165606BFEF730
:1017300025FF002810D0606B016DBDE870400847A0
:10174000830610D58B060ED52046BDE8704001F00B
:1017500015B82046FFF793FF70BD2046FFF78FFFB7
:101760000020E06370BD030606D50B0604D52046B5
:10177000BDE8704001F0A4B94006F3D54806F1D5A4
:10178000D168204621F04001D160202184F8391031
:1017900000F0CCF870BD00005127000870B50400BF
:1017A00004D094F83900002510B106E0012070BD86
:1017B00084F83850204600F023F8242084F83900BB
:1017C0002068C16821F40051C160204601F022F870
:1017D0002068016921F4904101612068416921F08C
:1017E0002A0141612068C16841F40051C160E5638C
:1017F000202084F8390084F83A00002070BD0000F1
:1018000010B586B0044614216846FEF795FD1849C8
:101810002068884229D11748016841F01001016011
:10182000006800F01000059012481438016841F07B
:10183000010101600068694600F0010005904FF465
:10184000C0600090022001900120029003200390CC
:10185000072004900848FEF7F3FE0022052125200A
:10186000FFF76AF82520FFF759F806B010BD000011
:1018700000100140443802400000024090F83A3025
:10188000202B22D1F9B1F2B190F83830012B1CD0C5
:1018900081628285C2850021C163222280F83A20BC
:1018A00080F838100168CA6842F48072CA60016822
:1018B0004A6942F001024A610068C16841F02001B2
:1018C000C16000207047012070470220704700006F
:1018D000044A0168914203D101220349FFF7CEBFB8
:1018E00070470000001001401400002090F83930CB
:1018F000202B18D1A9B1A2B190F83830012B12D009
:1019000001628284C2840021C163212280F83920CF
:1019100080F838100068C16841F08001C160002083
:10192000704701207047022070470000006803499B
:10193000884201D114F06CBF7047000000100140D4
:10194000FEE730B5002405462146204600F040FB66
:101950004FF0D841222008804FF496304D80641C0F
:101960008442FBD330BD0000F0B5174C059E904279
:1019700002D2E080628101E0E2806081994202D27D
:101980002181A38101E02381A1812089A0804FF0E2
:10199000D845222713E0E08800F01AFB2F80E0886A
:1019A0006080618905E000BF36F8022B6A80401C28
:1019B000608080B28842F7D9A088401CA08081B2A4
:1019C000A0898142E7D9F0BD040000202DE9F04F45
:1019D00087B00024142168460594FEF7ADFCFE484C
:1019E000016841F0040101600068FC4D00F0040052
:1019F0000590012280212846FEF70DFF80200090EF
:101A00000120CDE90104694628460394FEF718FE3B
:101A1000002000F0D8FA0590030049F2203249F284
:101A2000253148F6891009D040F6FF74A34205D34A
:101A3000834204D0934202D08B4200D00590E84C00
:101A4000059B4FF400462380DDF814C0F3114FF4DA
:101A5000E06740F2022840F2371940F2391A40F2AA
:101A6000023440F2077B40F23F1594457DD1314668
:101A7000E52000F0D9FA0121002000F0D5FA19463E
:101A8000012000F0D1FA3946022000F0CDFA41F2EF
:101A90003001032000F0C8FA0021042000F0C4FA4D
:101AA0004146082000F0C0FA0021092000F0BCFAED
:101AB00000210A2000F0B8FA00210C2000F0B4FA4E
:101AC00000210D2000F0B0FA00210F2000F0ACFA48
:101AD0000021102000F0A8FA0021112000F0A4FA43
:101AE0000021122000F0A0FA0021132000F09CFA3F
:101AF000142015F029F841F2B071102000F094FA8A
:101B00004946112000F090FA052015F01DF85146C5
:101B1000122000F089FA052015F016F84FF4E8516C
:101B2000132000F081FA1321292000F07DFA05200E
:101B300015F00AF80021202000F076FA002121207B
:101B400000F072FA0621302000F06EFA40F2011126
:101B5000312000F069FA0321322000F065FA4FF4D9
:101B60008371352000F060FA00E070E040F6023149
:101B7000362000F059FA2146372000F055FA594630
:101B8000382000F051FA0721392000F04DFA4FF4C7
:101B9000C0613C2000F048FA40F20B213D2000F0EB
:101BA00043FA0021502000F03FFAEF21512000F0CD
:101BB0003BFA0021522000F037FA2946532000F06A
:101BC00033FA4FF41C51602000F02EFA01216120FD
:101BD00000F02AFA00216A2000F026FA0021802075
:101BE00000F022FA0021812000F01EFA002182205C
:101BF00000F01AFA0021832000F016FA0021842058
:101C000000F012FA0021852000F00EFA1021902039
:101C100000F00AFA0021922000F006FA0321932036
:101C200000F002FA4FF48871952000F0FDF90021D0
:101C3000972000F0F9F90021982000F0F5F941F221
:101C40001801032000F0F0F940F27311B9E1624687
:101C500084457DD10121002000F0E6F9002110200B
:101C600000F0E2F9052014F06FFF40F2332319462B
:101C7000072000F0D9F946F27801112000F0D4F9DC
:101C80004FF4C061022000F0CFF94AF6A40103200E
:101C900000F0CAF900210C2000F0C6F940F60C0152
:101CA0000D2000F0C1F94FF424510E2000F0BCF9D2
:101CB000B8211E2000F0B8F942F63F11012000F0D3
:101CC000B3F90021102000F0AFF90021052000F049
:101CD000ABF90021062000F0A7F94EF61C71162082
:101CE00000F0A2F90321172000F09EF91946072001
:101CF00000F09AF9C0210B2000F096F900210F2086
:101D000000F092F90021412000F08EF900214220DC
:101D100000F08AF90021482000F086F92946492080
:101D200000F082F900214A2000F07EF900214B20CA
:101D300000F07AF94FF46F41442000F075F900216A
:101D4000452000F071F92946462000F06DF900E0C9
:101D50004AE05946302000F067F94FF40173194604
:101D6000312000F061F91946322000F05DF940F2AF
:101D700002552946332000F057F9691D342000F040
:101D800053F91946352000F04FF91946362000F076
:101D90004BF92946372000F047F921463A2000F058
:101DA00043F921463B2000F03FF90021232000F0B9
:101DB0003BF90021242000F037F93146252000F0BE
:101DC00033F900214E2000F02FF900215FF04F0081
:101DD00000F02AF907B005E0303802400008024060
:101DE00004000020BDE8F08F8A42F3D101210020D9
:101DF00000F01AF91946012000F016F939460220C0
:101E000000F012F941F21801032000F00DF9002151
:101E1000042000F009F94146082000F005F90021EE
:101E2000092000F001F900210A2000F0FDF800214E
:101E30000C2000F0F9F800210D2000F0F5F8002149
:101E40000F2000F0F1F80021102000F0EDF8002143
:101E5000112000F0E9F80021122000F0E5F800213F
:101E6000132000F0E1F8142014F06EFE41F2B0717E
:101E7000102000F0D9F84946112000F0D5F80520CF
:101E800014F062FE5146122000F0CEF8052014F046
:101E90005BFE4FF4E851132000F0C6F8132129200F
:101EA00000F0C2F8052014F04FFE0021202000F0C1
:101EB000BBF80021212000F0B7F80721302000F006
:101EC000B3F82146312000F0AFF840F2051319466F
:101ED000322000F0A9F840F206242146352000F017
:101EE000A3F840F608063146362000F09DF821465A
:101EF000372000F099F840F20451382000F094F8AF
:101F00000721392000F090F819463C2000F08CF8A9
:101F100031463D2000F088F80021502000F084F880
:101F2000EF21512000F080F80021522000F07CF8D1
:101F30002946532000F078F84FF42741602000F044
:101F400073F80121612000F06FF800216A2000F091
:101F50006BF80021802000F067F80021812000F05C
:101F600063F80021822000F05FF80021832000F058
:101F70005BF80021842000F057F80021852000F054
:101F800053F81021902000F04FF80021922000F02B
:101F90004BF80321932000F047F84FF48871952007
:101FA00000F042F80021972000F03EF80021982030
:101FB00000F03AF841F20801032000F035F840F251
:101FC0003311072004E74FF0D84108804888704754
:101FD0000346144810B500880C46A0F5094189391C
:101FE00010D0A0F51341253913D02146202000F050
:101FF0001BF8A3F23F13584281B22120BDE81040E4
:1020000000F012B819464F2000F00EF821464E207D
:10201000F4E71946202000F007F8A4F23F146042CC
:10202000EAE70000040000204FF0D8421080518001
:10203000704700008CB04FF4FA7014F085FD0AF080
:10204000DDFCFFF7C3FC0020FFF77BFC17494FF4D2
:1020500048630022A1F11C0006F0D4F8684606F09F
:10206000E1F81348039011481C380190684606F0C7
:10207000F9F801F0B1F906F085F906F017FA002138
:102080000AF09CFF0B4C6422114620600DF03AFED2
:1020900009A120680BF044FE12F06EF9052012F041
:1020A0001FFA052014F050FDF6E700008010002014
:1020B000554B010800000020746578740000000092
:1020C00000B587B01C216846FEF736F916484FF078
:1020D00020411022016015494160062181600021E4
:1020E000C160C0E904128161C16112020162C0E9EC
:1020F0000912C162016341638163C16341640920C4
:10210000CDE900010820CDE9020140060491CDE9A6
:102110000510002269460448FFF793F9002801D012
:10212000FEF7A7F907B000BDC0290020040100A0F8
:1021300070B586B014216846FEF7FEF829480024E1
:10214000016841F020010160016801F02001059162
:10215000016841F080010160016801F08001059192
:10216000016841F010010160016801F01001059162
:10217000016841F008010160016801F00801059162
:10218000016841F001010160016801F00101059160
:10219000016841F0400101600068134E00F040000A
:1021A0004FF460750590002229463046FEF733FB58
:1021B00001200095CDE90104694630460394FEF7FD
:1021C0003FFA01224FF4C0713046FEF724FB802015
:1021D000CDE900040294694604480394FEF730FAFE
:1021E00006B070BD303802400014024000180240B2
:1021F00070B51E4886B01C4901604FF482710024FE
:10220000C0E90114C4604FF400710461C0E90541E4
:102210000821C0E907140A214462C0E90A41FEF717
:1022200055FE08B1FEF725F914216846FEF784F83B
:102230000F48016841F0040101600068012200F0CC
:1022400004000C4ED503059029463046FEF7E3FA0C
:1022500001200095CDE90104694630460394FEF75C
:10226000EFF906B070BD000000380040102A0020D1
:1022700030380240001802400C4810B50A4901608D
:102280004FF4E1314160002181600C22C160C0E95E
:1022900004128161C161FFF781FA002803D0BDE813
:1022A0001040FEF7E6B810BD001001408029002064
:1022B000FEE7704738B504464068B0F5827F0BD121
:1022C000A068B0F5004F02D0B0F5806F04D120684F
:1022D000036823F0400303600B4600920022802134
:1022E000204600F018F8002804D0606D40F020006F
:1022F0006065032038BD38B50B46009204460022C5
:10230000802100F008F8002804D0606D40F0200023
:102310006065032038BD2DE9F0411D4617460E4685
:102320000446DDF8188008E0681C06D0FEF778FA4D
:10233000A0EB0800A8420BD255B12068806836EAAD
:10234000000030D00020B842EED10020BDE8F0817E
:102350002068416821F0E00141606068B0F5827F4B
:102360000BD1A068B0F5004F02D0B0F5806F04D15A
:102370002068016821F040010160A06AB0F5005FAB
:1023800009D12068016821F40051016020680168CA
:1023900041F400510160012084F85100002084F8CC
:1023A00050000320D2E70120CDE70000014603489A
:1023B0000068002801D00BF0B3BC7047000000207B
:1023C000012012F00DFCFBE710B5502080F31188BE
:1023D000BFF34F8FBFF36F8F15F0A2F818B1044908
:1023E0004FF080500860002080F3118810BD00007D
:1023F00004ED00E030B593B030216846FDF79CFF56
:1024000014210CA8FDF798FF1D480025016841F034
:1024100080510160006800F08050119019480168F7
:1024200041F4404101600068022400F440401190F2
:1024300001200090000401908001CDE906401020A9
:102440000890C020CDE9090404200B906846FEF7EF
:10245000AFFB08B1FEF70DF80CA90F2081E83100A1
:102460004FF4A0500F904FF48050109004210CA80E
:10247000FEF794FA002801D0FDF7FBFF13B030BD42
:1024800040380240007000401048016841F470017B
:1024900001600F48016841F0010101600C4A002110
:1024A0000832116002680B4B1A400260031D0A4A91
:1024B0001A60026822F48022026005480C30016034
:1024C00002495806803908607047000088ED00E036
:1024D00000380240FFFFF6FE103000240148FFF7ED
:1024E0000DB80000682A0020F0B50268254C264D82
:1024F000264E274F274B4FF0804CA04209D0604515
:1025000007D0A84205D0B04203D0B84201D09842CB
:1025100004D122F0700E4A6842EA0E02A0421BD09B
:10252000604519D0A84217D0B04215D0B84213D098
:10253000984211D0184DA8420ED0184DA8420BD089
:10254000174DA84208D0174DA84205D0164DA842F5
:1025500002D0164DA84203D122F44075CA682A431E
:102560004D6922F080022A4302608A68C2620A68CA
:102570008262A04201D0984201D109690163012120
:102580004161F0BD0000014000040040000800402F
:10259000000C0040000401400040014000440140A4
:1025A0000048014000180040001C0040002000408E
:1025B0008AB000F093F8114D114E4FF4C0740A2008
:1025C00014F0C2FA002221462846FEF724F98021A1
:1025D0003046FEF71BF90028F1D109A908A800F040
:1025E00027F8BDF82430BDF8202006A1684600F089
:1025F000B1FA6846FFF7DAFEE1E700000014024096
:1026000000180240746F756368583D25640D0A74A4
:102610006F756368593D25640000000070B50C4675
:10262000054600F015F8288000F035F8208070BDD0
:102630007CB50C46054601A96846FFF7EFFFBDF8DB
:1026400000002880BDF80400208000F047F87CBD21
:1026500038B500208DF8000000F064F890208DF867
:1026600000000121684600F065F80121684600F08D
:102670004BF89DF800004FF6FF7101EA002401219C
:10268000684600F041F89DF80000204484B200F054
:1026900033F8204638BD38B500208DF8000000F032
:1026A00041F8D0208DF800000121684600F042F882
:1026B0000121684600F028F89DF800004FF6FF71F0
:1026C00001EA00240121684600F01EF89DF8000090
:1026D000204484B200F010F8204638BD08B500F060
:1026E00021F880208DF800000121684600F022F8D2
:1026F00000F002F808BD00000122D1030148FEF7F6
:102700008AB80000001802408AB210B5014664235E
:102710000348FEF74FFC002800D0012010BD000048
:10272000102A002000224FF400410148FEF773B840
:10273000001802408AB210B5014664230348FEF730
:10274000E1FC002800D0012010BD0000102A00206C
:1027500010B5806B0021C185C184FEF790FF10BDCC
:102760000168CA6822F49072CA6001684A6922F05E
:1027700001024A61202180F83A10704710B590F8A4
:102780003A10222901D0022010BD8168B1F5805F86
:1027900011D00169002901681FD0496801F07F0349
:1027A000816A4A1C82620B70C18D491E0904090CA2
:1027B000C18518D02BE00269816A002A026852683C
:1027C00005D0D2B20A80816A491C8162ECE7C2F36B
:1027D00008020A80816A891CF7E74A68816A4B1CF3
:1027E00083620A70E0E70168CA6822F02002CA60CA
:1027F0000168CA6822F48072CA6001684A6922F0DE
:1028000001024A61202180F83A10FFF761F80020A8
:1028100010BD00002DE9F041044600680169E2683E
:1028200021F44051114301612169A068E269084324
:102830006169114322680843D16849F20C639943E6
:102840000143D16020684169A26921F440711143BC
:102850004161E2696425B2F5004F974897492268C3
:102860004FF032083FD08A4201D082427CD1FEF73D
:102870005DF900EBC00101EB001061688900B0FB5D
:10288000F1F6FEF753F900EBC00101EB00106168AF
:102890008900B0FBF1F0B0FBF5F06FF01801484390
:1028A00006EB800108EB0110B0FBF5F000F0F0063C
:1028B000FEF73CF900EBC00101EB001061688900F4
:1028C000B0FBF1F0B0FBF5F006EB0016FEF72EF9C9
:1028D00000EBC00101EB001061688900B0FBF1F76B
:1028E000FEF724F9D2E08A4201D082423DD1FEF7C0
:1028F0001DF900EBC00101EB001061684900B0FB5D
:10290000F1F0B0FBF5F00601FEF710F900EBC001A5
:1029100001EB001061684900B0FBF1F7FEF706F922
:1029200000EBC00101EB001061684900B0FBF1F061
:10293000B0FBF5F06FF01801484307EB800108EB9E
:10294000C100B0FBF5F000F0F80006EB4006FEF722
:10295000EDF800EBC00101EB001061684900B0FB2D
:10296000F1F7FEF7E3F83CE055E0FEF7CFF800EBB7
:10297000C00101EB001061684900B0FBF1F0B0FB51
:10298000F5F00601FEF7C2F800EBC00101EB001004
:1029900061684900B0FBF1F7FEF7B8F800EBC00141
:1029A00001EB001061684900B0FBF1F0B0FBF5F0FD
:1029B0006FF01801484307EB800108EBC100B0FB42
:1029C000F5F000F0F80006EB4006FEF79FF800EB8C
:1029D000C00101EB001061684900B0FBF1F7FEF7A0
:1029E00095F800EBC00101EB001061684900B0FBF5
:1029F000F1F0B0FBF5F06FF01801484307EB8001F0
:102A000008EBC100B0FBF5F000F00700216830448E
:102A10008860BDE8F081FEF779F800EBC00101EBBA
:102A2000001061688900B0FBF1F6FEF76FF800EB6B
:102A3000C00101EB001061688900B0FBF1F0B0FB50
:102A4000F5F06FF01801484306EB800108EB011028
:102A5000B0FBF5F000F0F006FEF758F800EBC0010F
:102A600001EB001061688900B0FBF1F0B0FBF5F0FC
:102A700006EB0016FEF74AF800EBC00101EB001070
:102A800061688900B0FBF1F7FEF740F800EBC00188
:102A900001EB001061688900B0FBF1F0B0FBF5F0CC
:102AA0006FF01801484307EB800108EB0110B0FB01
:102AB000F5F000F00F00A9E70014014000100140FC
:102AC00090F83910212901D0022070478168B1F5B2
:102AD000805F016A0BD04A1C02620268097851606B
:102AE000C18C491E0904090CC1840ED017E0098865
:102AF0000268C1F30801516001690029016A02D02E
:102B0000491C0162ECE7891CFBE70168CA6822F0F6
:102B10008002CA600068C16841F04001C1600020C5
:102B2000704700000148FEF7B1BD00008029002079
:102B3000FEE700000FB4054B10B503A9044A029844
:102B400000F03CF810BC5DF814FB000049370008A9
:102B5000601000200FB4084B10B504A902AA039816
:102B600000F02CF8044602A9002000F003F92046EA
:102B700010BC5DF814FB0000752D00080907090E54
:102B8000002804DB00F1E02080F80014704700F01A
:102B90000F0000F1E02080F8141D704702E008C823
:102BA000121F08C1002AFAD170477047002001E0C7
:102BB00001C1121F002AFBD1704700002DE9FF4F11
:102BC0008BB09A460F460546002606E025280BD016
:102BD00052460D9990476D1C761C28780028F5D137
:102BE0000FB03046BDE8F08F0024A04601226049B6
:102BF00000E0044315F8013F203B02FA03F00842CD
:102C0000F7D128782E2817D115F8010F44F00404C5
:102C10002A280ED06FF02F022878A0F13001092960
:102C20000AD808EB880102EB410100EB01086D1C9A
:102C3000F2E757F8048B6D1C287869283ED006DC33
:102C40000028CDD063280BD0642804D136E0732847
:102C500010D075284BD052460D999047761C85E0D0
:102C600017F8040B8DF8000000208DF80100E946EC
:102C7000012003E057F8049B4FF0FF3061074FF04D
:102C8000000401D40AE0641C44450DDA8442FADBF6
:102C900019F804100029F6D106E0641C8442FCDB1C
:102CA00019F804100029F8D1264404E019F8010BA2
:102CB00052460D999047641EF8D257E001CF4FF06D
:102CC0000A0B002802DA40422D2102E0210504D53A
:102CD0002B218DF82410012103E0E10705D02021EC
:102CE000F7E70DF1200908910CE00021F9E701CF89
:102CF0004FF00A0BF9E75946FDF747FB01F13002A7
:102D000009F8012D0028F6D1ADEB090000F1200BE8
:102D1000600701D44FF00108D84502DDA8EB0B0095
:102D200000E000208046002406E009A85246005D2D
:102D30000D999047641C761C08988442F5DB04E0EA
:102D4000302052460D999047761CB8F10001A8F149
:102D50000108F5DC05E019F8010B52460D99904782
:102D6000761CBBF10001ABF1010BF4DC6D1C34E708
:102D7000092801000A68531C0B601070704700009E
:102D80002DE9F04100250E4607462C460AE000BF1B
:102D900056F8240020A1FDF7E1FA08B16D1CADB290
:102DA000641CA4B256F82400FDF7D1FA0028EFD134
:102DB00038460CF08DFD04464068002610B10CF03A
:102DC000EBF86660A06810B10CF0E6F8A660E800C9
:102DD0000CF090F8606038B168000CF08BF8A060DF
:102DE00050B1616881B110E00CA340F2AD320FA187
:102DF00003200BF0F1FDFEE708A340F2AF320BA178
:102E000003200BF0E9FDFEE700256900FDF794FAC9
:102E10002584BDE8F08100000A0000004F75742091
:102E20006F66206D656D6F72792100002E2E5C6CCF
:102E300076676C5C7372635C6C765F6F626A785CF9
:102E40006C765F62746E6D2E6300000030B50446D0
:102E500090F82400194D8BB0810717D4C10701D019
:102E6000410713D5282221466846FDF74CFA214632
:102E700013480BF075FD20460CF08EF801202870E9
:102E80000398B8B101466846884713E0E18B494290
:102E90006183C1070ED0410702D4A18B49426183EF
:102EA0008110491C61F3820084F82400D4E90410E5
:102EB000C4E9040128780BB030BD0000F00C0020FC
:102EC000C484002070B523480BF07CFC06E0486AFF
:102ED00020F0080048621F480BF079FC0100F6D191
:102EE0001D4D686811F0ECFA064624E000202870B9
:102EF000606A010723D440F008006062608B3044B0
:102F000000B2608300281ADB218B884200DD6183D8
:102F1000A1682046884762681AB1236801B2184642
:102F20009047B4F91A00218B884202DB2046FFF754
:102F30008DFF287818B107480BF044FC03E02146C8
:102F400004480BF044FC0400D0D111F0BFFA6860D3
:102F500070BD0000C4840020F00C002002280FD0B7
:102F6000032810D0042812D0C1EBC101401EB1FBD0
:102F7000F0F00849C0B2085C10FB02F0000A70478C
:102F80000448093801E00348C01F405CF4E70148E9
:102F9000001FFAE76B79010810B50C4605A0FFF792
:102FA000C9FD062C04D1BDE8104005A0FFF7C2BD45
:102FB00010BD00006576656E743D25640D0A000045
:102FC000436C69636B65640A00000000F8B50D4648
:102FD00006460CF07DFC0446C06B0028B4F84000A7
:102FE00010D048B130460FF077FF0E490968884786
:102FF000B4F84010884211D2E06B88B100200A4E2C
:10300000009006E060B1EDE7326869469047A8425B
:1030100006D0E06B0099415C0029F5D10020F8BD95
:103020000120F8BD4C0D0020380D00202DE9FC5F7B
:103030008346002005F076FA0190944A0021584614
:103040000DF013FF914A012158460DF00EFF5C462A
:1030500020460CF041FC054620460DF046FA294674
:103060000CF0B6FD002158460DF0CDFE8849894888
:103070000EF04AFF87484FF099090027864D80F8E7
:103080000890C780834E686A20360090BDF8000023
:10309000B0823946584603F083FA804C2060584687
:1030A0000CF01AFC824658460CF0A0FC41004FF090
:1030B000030891FBF8F001B20AEBDA7042102068C5
:1030C0000CF061FE192000230090022219462068AE
:1030D0000BF0F8FF0221206804F0F2F96D49206836
:1030E0000CF091FEB221206804F0D9F9A96A206899
:1030F00003F00AFA824601462822206804F025F9E6
:103100001E225146206804F020F92F2251462068E3
:1031100004F01BF93B225146206804F016F93B22CB
:103120005146206804F011F91F225146206804F02E
:103130000CF937225146206804F007F9462251461F
:10314000206804F002F952225146206804F0FDF88C
:103150005B225146206804F0F8F84D4906F11C0046
:103160000EF0D2FE0097BDF80000F083E86A0090F0
:10317000BDF80000308406F11C0047F6184AA0F89C
:1031800006A0296B0091BDF80010F18480F808902A
:10319000478387834FF00A09A0F81690A0F818908B
:1031A0003B493C300EF0B0FE686B0090BDF800006B
:1031B000A6F85C00A86B0090BDF80000A6F85A00C5
:1031C00006F15800A0F806A0A0F81290E96B009153
:1031D000BDF80010A6F86810A0F81A80A0F81C80AE
:1031E000A0F81680A0F8188029493C300EF08CFE1B
:1031F00006F19400B221A0F806A001720021584601
:103200000EF054FA054606F11C0200210EF01EFDD8
:1032100006F15802012128460EF018FD06F194022D
:10322000022128460EF012FD20680CF0DFFB01465B
:10323000212228460CF0A7FD28460CF04DFB216802
:1032400002460198B1F91630C01A801A00EBD0700E
:1032500040F34F00009000230D2228460BF032FF70
:103260000F4928460CF0B2FC28464FF47A724946C2
:1032700001F057FF28464FF42F713A4601F094FFB2
:103280002846BDE8FC5F0E2112F08EBB807F002037
:1032900070800020647D0020E8780108B4000020E0
:1032A000A95901087CB50D4606460CF011FB0446F1
:1032B00090F85800C0F30011A94231D015B140F088
:1032C000100001E020F0100084F8580000070028EA
:1032D00026DD30460CF0B0FAD4F84E100091D4F848
:1032E00052100191216BBDF800200B8A1A44ADF8F1
:1032F0000020BDF80220498A1144ADF80210226B6B
:10330000BDF80410128A1144ADF80410226BBDF808
:103310000610528A1144ADF80610694609F0BEFB4A
:103320007CBD2DE9F0410446001D0BF04BFAE66A26
:10333000054666B1204608F084F808E02946201DBD
:103340000BF045FA07462846FFF7EBFF3D46002DF8
:10335000F4D100221321204607F064FE204607F036
:1033600053FE0021204601F08BFB002009F0E2FA19
:10337000054600271AE0A86BA04202D0E86BA042E5
:1033800002D1284609F018FB286CA04200D12F6416
:10339000A86DB04206D109F0D7FAA04202D1284662
:1033A00009F00AFB284609F0C5FA0546002DE2D1CE
:1033B00020682146001D0BF0D3FA0022E369114674
:1033C00020469847606A08B10BF0E6FD2046BDE84C
:1033D000F0410BF0E1BD0000F8B5002004F0D8FF8B
:1033E0000746002005F09EF80646454945480EF080
:1033F0008BFD454D284604F0E0F8424C0090BDF8A6
:1034000000006080284604F0D8F80090BDF8000065
:10341000A0800025E58225833C4904F13C000EF0A4
:1034200073FD04F13C003A49057285813C300EF091
:103430006BFD04F178007F21C580017235490A686F
:103440000092BDF80020A4F87A204A680092BDF8E6
:103450000020A4F87C2085818868009004F1800019
:10346000BDF800100183002005F020F8002110F0C5
:1034700003FB0446324639460CF085FC26A1204663
:1034800010F0C0F9074626A1204610F0BBF9064609
:1034900025A1204610F0B6F905461A4A002120461B
:1034A00010F09AFC174A0221204610F095FC144AAD
:1034B0000121204610F090FC124A03213C322046A4
:1034C00010F08AFC0F4A04217832204610F084FC68
:1034D0000C4A05213C32204610F07EFC094A0621A8
:1034E0007832204610F078FC384613F013FC304652
:1034F00001F098F82846BDE8F840FFF797BD0000B6
:10350000F87F0020847B0020B77F4800E8800020FF
:1035100024810020E8780108577269746500000072
:103520004C6973740000000043686172740000000D
:1035300070B50C4605460CF0CBF904842846BDE86E
:1035400070400CF073BA10B5044600680CF0C0F976
:1035500010F8281F21F01E0101702068BDE81040FE
:103560000CF064BA0749096850B1021D006801F502
:10357000004102EB5000021D8A4200D30020704738
:1035800008467047180D002010B58A0702D021F0B8
:103590000301091D02680B1DB3EB520F00D1510846
:1035A000B1EB520F0CD0021D0A44136823F0010343
:1035B00013600468C1EB5404241F64F35F031360B9
:1035C000026861F35F02026010BD00002DE9F04166
:1035D0000F4604461646002572B611463846FCF7DB
:1035E000ABFE4FF40062002119E000BFB4F80408FC
:1035F000B8B1B4F80208205C7855B4F80208401C51
:10360000A4F80208B4F80408401EA4F80408B4F8AA
:103610000208904201D3A4F802186D1CADB2B54265
:10362000E4D362B6E8B2BDE8F081F0B5002372B62B
:10363000B0F804484FF400651444AC4202D962B6B5
:103640000020F0BDB0F804481444A0F80448002657
:1036500010E0CC5CB0F80078C455B0F80048641CA9
:10366000A0F80048B0F80048AC4201D3A0F80068C8
:103670005B1C9BB29342ECD362B6D8B2F0BD2DE98D
:10368000F047054690F85C0091468A46C00759D13C
:1036900000260127EC68B8467CB995F85C00C0F3B9
:1036A0000010401E30424DD1B8F1000F4AD02846DC
:1036B0005146884700270446B8460EB9260041D037
:1036C00037B1214628464A4690470446B04239D091
:1036D0000127002CE1D020680CF012F90028DBD182
:1036E000E868A0422ED080B1006800221021C36992
:1036F0009847E86800220D21006807F093FC012834
:1037000020D1E86800680CF091F9EC602068002294
:103710000F21C3699847E86800220C21006807F070
:1037200081FC01280ED1E868006811F043FAE868CE
:1037300000680CF07BF9A969002903D02846BDE890
:10374000F0470847BDE8F08738B504468DF800001B
:103750000121684613F03CF8204638BD70B588B0AA
:103760000E4604460CF0B4F8054602A920460CF0BB
:103770005CF8002425E0686800EBC4000168009153
:1037800040680190BDF80010BDF808000144ADF894
:103790000010BDF80220BDF80A100A44ADF802205E
:1037A000BDF804201044ADF80400BDF8060008443C
:1037B000ADF806003146684601F043FA20B9641CB2
:1037C000A4B2288CA042D6D8288CA04201D14FF6B2
:1037D000FF7408B0204670BD10F0070000D1012032
:1037E000704738B50C460CF073F80546006B0CF0CA
:1037F000A5F80146686C28B101462046BDE838406E
:103800000EF082BB20460EF07FFB206A009060889D
:103810002084BDF800006080A0806081FF2101222B
:10382000E173A28100206082E0806083A083E08257
:103830002083E286217238BD2DE9FC470F0006D0B7
:10384000C4686069B84204D1A069BDE8FC87002063
:10385000FBE7002104230EE0A26801EB810052F88F
:10386000202003EB8000BA1A0192A568285A9042E2
:103870000AD2491C89B2608AC0F309008842EBD899
:103880000020C4E90570E2E7284601EB810512211A
:1038900001EB85010026425C4FF00609910711D02B
:1038A00002F003084FF00C0AB8F1010F0FD0274BBC
:1038B00008214FF0100CB8F1020F12D0D24392073A
:1038C00025D03EE009EB8501405A019907E00AEB5B
:1038D000850109EB85024158805A019A895C461896
:1038E0002FE0009301EB85080CEB8502825A50F81B
:1038F0000810022301A811F073F810B3A16851F861
:103900000820801A09EB85024008895A18E00093C4
:1039100001EB85080CEB8502825A50F8081002234F
:1039200001A811F05DF860B1A16809EB850351F8B9
:103930000820801A42080AEB85000858C95A805CA2
:103940000E18C4E9057630467FE700003D6801089F
:103950007CB5C368C06800255B8AC4689B042CD40E
:10396000A36801EB022013F0407F04D0C3F3016190
:10397000012910D02DE02668ADF80400164823F088
:103980007F4200900223314601A811F029F800B3CC
:10399000801B40080EE02668019010480090A06847
:1039A000042320F07F42314601A811F019F880B1BC
:1039B000801B000961680D560BE06368585C995CD8
:1039C00038B131B1637B2268401E10FB0320491ED1
:1039D000455628467CBD0000B53A0008A13A0008CB
:1039E0000021A0F13002092A01D8D1B216E06128E5
:1039F00001D32038C0B2413806280FD2DFE800F0EA
:103A0000030507090B0D0A2108E00B2106E00C2134
:103A100004E00D2102E00E2100E00F21084670476E
:103A200030B50546A1F57F4087B00C46FF382BD056
:103A300028460BF04DFF406800EBC4000168009180
:103A40004068019002A928460BF0EFFEBDF8001077
:103A5000BDF808000144ADF80010BDF80220BDF823
:103A60000A100A44ADF80220BDF804201044ADF855
:103A70000400BDF806000844ADF8060028460BF027
:103A8000DBFE694609F00AF807B030BD10B50068E2
:103A90000BF0F8FD01490020886010BDB400002043
:103AA00003880A88934201D0981A70474088498851
:103AB000401A704703780A78934201D0981A7047E9
:103AC00040784978401A704730B5184D8BB00C4695
:103AD000A86809F0E5F8112C01D0122C24D1A868AF
:103AE00000900BF09DFF049004F04CFC04F01AFDD4
:103AF00005900F4801900F4802900F480390002056
:103B0000ADF81A004FF49671ADF818109DF8241016
:103B1000ADF81C0021F00301ADF81E0008908DF8EF
:103B20002410684600F068FF0BB030BDB4000020E0
:103B30004BFE0008E14A00088D3A00082DE9FC41DF
:103B4000D48E641E24B2661004F00107FF2B17D038
:103B500092F8384014FB03F35FEA1323B0F802C075
:103B6000B0F90050B0F90440C088ACEB060CACEBE7
:103B7000070730443FB200B2A54204DA2E4603E004
:103B800092F83830EAE72646ADF8006000DD2C46B2
:103B9000ADF80440874201DA3C4600E00446ADF847
:103BA000024000DD3846ADF80600526B684604F06E
:103BB000F3FDBDE8FC8100002DE9FF4F97B00446FE
:103BC00024981E468B46FF281FD096F83810414394
:103BD000080A80460DF0CEFB04F0C6FB0E90B4F947
:103BE0000420B4F90070B4F90630D01BB4F90250C7
:103BF00001B2581B94F818C000B2BCF1000F07D0F6
:103C000003EB0B0295420CDB05E096F83800E0E789
:103C10005A44974205DAADF830004842ADF8320018
:103C200004E04042ADF83000ADF83210BDF830008D
:103C30000001ADF83000BDF832000001ADF83200EF
:103C4000B6F93670F80004F07BFE05464FF0000A26
:103C5000504617B305900CAA05A90FA800F066FC02
:103C600017FB07F0CDF80000BDF8441025F82A1026
:103C700005EB8A00BDF846104180BDF8440010FBFA
:103C800000F1BDF8460010FB00100099884207D3F0
:103C90000E98574610B17F1E3FB20BE0059711E01A
:103CA0000FA800F07FFC0AF101000FFA80FABAF1C8
:103CB000040FD9DB0E98059720B10FB901200590AC
:103CC0004FF000097FB105EB870030F9041D01EBCF
:103CD000D17149100F91B0F9020000EBD0704FEA9A
:103CE000600B0020E5E0207E68B1B4F90620B4F94D
:103CF000021002EB0B00814210DB6888401E6880D6
:103D0000207E00280AD1B4F90420B4F9001002EB97
:103D10000B008142F0DB2888401E288088E100BF2C
:103D200035F82A100F98081A01B205EB8A0025F819
:103D30002A104388A3EB0B0212B242800E9B002B89
:103D40007DD0BAF1000F7AD0237E83B330F9040C12
:103D5000884274D005EB89001190B0F90200111A65
:103D600009B20991B4F91210CDF804800029B18E7E
:103D7000ADF8001061881BDA01440998199B401CBA
:103D80001290084401B2228835F829001044401EE0
:103D900000B2099A04F0BBFCCDF80480B08EADF8F7
:103DA00000001198E18840880144129814E022E054
:103DB000084401B2228835F82900199B1044401E9E
:103DC00000B2099A04F0A3FCCDF80480B08EADF8DF
:103DD00000001198E1884088A288084401B235F8B3
:103DE0002900199B1044099A401C524200B212B299
:103DF00004F08DFC59E030F9020C904256D035F9B0
:103E00002900091A09B20991B4F90E10CDF80480FD
:103E10000029B18EADF80010628805EB890122DA25
:103E200012914988199B11442288491E024409981D
:103E300009B2401C1190104400B2099A00E035E02C
:103E400004F03EFCCDF80480B08E1299ADF800006D
:103E5000E0884988A2880844401C01B235F829004E
:103E60000244119819E011914988199B1144228844
:103E7000491E104409B200B2099A04F021FCCDF8A1
:103E80000480B08E1199ADF80000E0884988A288BE
:103E90000844401C01B235F82900199B1044099AC6
:103EA00000B2524212B204F00BFCD1460AF10100FA
:103EB00000B28246B842FFF633AF002F5FD00E98B3
:103EC00000285CD0207E0028059805EB800057D0A4
:103ED00005EB890B30F8022CBBF90210501A0FFACF
:103EE00080FAB4F91200CDF80480B28EADF800204B
:103EF000628800281CDA0A4402EB0A01238835F89C
:103F0000292050441A44521E0FFA82FC02B209B210
:103F10006046199B04F0FBFBCDF80480B08EADF831
:103F20000000E188BBF80200014401EB0A0017E041
:103F30001144238835F8292050441A44521E0FFAA0
:103F400082FC02B209B26046199B04F0E0FBCDF896
:103F50000480B08EADF80000E188BBF80200084490
:103F600001B2A28835F82900638A104403EB0A02E3
:103F7000401C524200B212B2199B04F0C8FB57E039
:103F800030F8041C35F92920881A0FFA80FAB4F9A0
:103F90000E00CDF80480B18EADF8001005EB89015C
:103FA0008B466388498800281944A1F101012388C0
:103FB00009B21CDA134403EB0A020FFA82FC5044E4
:103FC00002B26046199B04F07BFBCDF80480B08EF2
:103FD000ADF80000E088BBF80210A2880844401C3D
:103FE00001B235F82900024402EB0A0017E01A4436
:103FF0000FFA82FC504402B26046199B04F060FB49
:10400000CDF80480B08EADF80000E088BBF8021057
:10401000A2880844401C01B235F829001044E38905
:1040200000B203EB0A02524212B2199B04F048FBA1
:104030004FF0000A0E98D346A8B1217E4FF0FF3012
:1040400031B1B4F91210002908DA82461FB103E039
:10405000B4F90E10F7E70020834604E00120834600
:1040600007B9002082462088ADF80C006088ADF8C2
:104070000E0001200F90207EE8BB8DE1BDF80C10F2
:1040800035F82900BDF80E200844ADF8180005EBFE
:1040900089010B9149881144ADF81A102289024414
:1040A000BDF80C004346101A401EADF81C00ADF8D8
:1040B0001E10726B06A8199904F06EFBB9F1000F7F
:1040C00015D00B9835F9291030F9040C81420ED027
:1040D0000F9860B9CDF80080BDF81A10608A736B34
:1040E000081A01B2BDF91800199A05F0B7FA09F1DA
:1040F000010000B24CE040E00E98B0B3CDF804806F
:10410000B08EADF80000BDF80C002189401A02B253
:10411000BDF80E0069880144A1EB0A0001B2BDF8A8
:104120000C002B88184400B2199B04F0C9FACDF892
:104130000480B08EADF800002089BDF80C10401A44
:10414000BDF80E1002B2059805EB800030F8023C75
:104150000B4403EB0B01BDF80C3009B230F8040C32
:10416000184400B2199B04F0ABFA00200F9020898C
:10417000ADF80C006089ADF80E00B4F90A90204645
:1041800000F010FAE8B3B4F90A104945F7D000205E
:104190008146B842FFF672AFAEE700BFBDF80C1023
:1041A00035F82900BDF80E200844ADF8180005EBDD
:1041B00089010B9149881144ADF81A1022891044E5
:1041C000BDF80C204346801AADF81C00ADF81E1057
:1041D000726B06A8199904F0DFFAB9F1000F17D035
:1041E0000B9835F9291030F9040C814210D00F9842
:1041F00070B9CDF80080BDF81A00618A401A01B28A
:1042000000E008E0BDF91800736B199A05F026FA72
:1042100009F1010000B28146B842BFDB0E980028C8
:1042200039D0CDF80480B08EADF800002089BDF8FB
:104230000C10401A401C404202B2BDF80E006988C2
:104240000144A1EB0A0001B2BDF80C002B88184410
:1042500000B2199B04F034FACDF80480B08EADF8AA
:1042600000002089BDF80C10401A401CBDF80E104B
:1042700002B2059805EB800030F8023C0B4403EBDA
:104280000B01BDF80C3009B230F8040C184400B230
:10429000199B04F015FA1BB0BDE8F08FBDF80C10A7
:1042A00035F82900BDF80E200844ADF8180005EBDC
:1042B00089010B914988ADF81C001144ADF81A1022
:1042C00060890844BDF80E104346401A401EADF800
:1042D0001E00726B06A8199904F05EFAB9F1000F7E
:1042E00015D00B98B0F9021030F9020C81420ED0B3
:1042F0000F9860B9CDF80080BDF81800E189736BA4
:10430000401A00B2BDF91A10199A05F0A7F909F17F
:10431000010000B24BE00E98B0B3CDF80480B08E2F
:10432000ADF80000BDF80E006189401A02B2BDF878
:104330000E006988BDF80C30084401B22888034497
:10434000A3EB0A0000B2199B04F0E1F9CDF8048058
:10435000B08EADF800006089BDF80E10401ABDF8AF
:104360000E1002B2059805EB800030F8023C1944AB
:10437000BDF80C3009B230F8040C034403EB0B0019
:1043800000B2199B04F0C3F900200F902089ADF80A
:104390000C006089ADF80E00B4F90890204600F0DA
:1043A00001F9E8B3B4F908104945F7D00020814677
:1043B000B842FFF673AFAEE7BDF80C1035F8290030
:1043C000BDF80E200844ADF8180005EB89010B91EB
:1043D0004988ADF81C001144ADF81A1060890844F2
:1043E000BDF80E104346401AADF81E00726B06A8C9
:1043F000199904F0D1F9B9F1000F18D00B980B9965
:10440000B0F9020031F9021C884210D00F9870B93F
:10441000CDF80080BDF81800E189401A00B200E034
:1044200008E0BDF91A10736B199A05F017F909F134
:10443000010000B28146B842BEDB0E9800283FF46E
:104440002AAFCDF80480B08EADF800006089BDF8C9
:104450000E10401A401C404202B2BDF80E0069889E
:10446000084401B2BDF80C002B880344A3EB0A00FA
:1044700000B2199B04F04BF9CDF80480B08EADF872
:1044800000006089BDF80E10401A401CBDF80E10E7
:1044900002B2059805EB800030F8023C1944BDF8E3
:1044A0000C3009B230F8040C034403EB0B0000B2EB
:1044B000199B04F02CF9EEE62DE9FC41D48E641E24
:1044C00024B2661004F00104FF2B13D092F8385088
:1044D00015FB03F31B0A05883444AD1B8788B0F92C
:1044E00002603C442DB224B2B0F90600A54204DAC1
:1044F0002F4603E092F83830EDE72746ADF800701C
:1045000000DD2C46ADF80440864201DA344600E076
:104510000446ADF8024000DD3046ADF80600526BAF
:10452000684604F039F9BDE8FC81000070B5B1F9C6
:1045300000300380B1F902404480B2F90050858018
:10454000B2F90220E91AC280002900DC591B09B225
:1045500081814FF0FF36AB4201DA012500E035469C
:10456000C581151B002D00DCA51A2DB205829442D1
:1045700000DA01264682A94202DC00BFC5F1000133
:1045800001EBD1714FEA610181824FF00001C182DC
:1045900002DD4FF0010101E04FF0000101760381DF
:1045A000448170BD30B5B0F90820B0F904108A42DA
:1045B00007D1B0F90A10B0F90630994201D10020B4
:1045C00030BDB0F91410C182B0F90C305C42A14288
:1045D00005DD058A4C1B8482C48922440281B0F91E
:1045E0001020914206DA818A194481824189428AE7
:1045F00011444181012030BD70B5054603290DD11C
:10460000074C0A2160680EF045F8284609F0D6FEEE
:1046100001466068BDE870400EF0F2B870BD000061
:10462000B40000202DE9F8438146002003F0B0FEDD
:104630000746B44A002148460CF017FCB14A012154
:1046400048460CF012FC002148460CF0DCFBAE4959
:10465000AE480DF059FC40F2333002F0BAFF009042
:10466000AA48BDF800107038002520F8721F009588
:10467000BDF800104180A6490126096A0091BDF8E5
:1046800000100181A1487F218681C173C580014648
:104690003C300DF039FCD8229621552002F0B0FFB5
:1046A0009A4C00901034BDF8000024F82E0F902290
:1046B0006221372002F0A4FF0090BDF80000608066
:1046C000F122D521BB2002F09BFF0090BDF8000035
:1046D000E0830021484609F027FD804648460BF05C
:1046E000FBF84000032190FBF1F001B240460BF0D3
:1046F0006FFA884A0021404609F0E8FE854A012108
:10470000404609F0E3FE814A0421404609F0DEFEFE
:104710007E4A05213C32404609F0D8FE192000238C
:1047200000900222194640460AF0CCFC7AA27CA1F5
:10473000404609F0CDFB7B490BF048FA7AA27CA1F8
:10474000404609F0C5FB77490BF040FA79A27BA1FE
:10475000404609F0BDFB73490BF038FA78A27AA104
:10476000404609F0B5FB6F490BF030FA77A279A10A
:10477000404609F0ADFB6B490BF028FA76A278A110
:10478000404609F0A5FB67490BF020FA75A276A117
:10479000404609F09DFB63490BF018FA002148469A
:1047A0000AF09AF9804671A10AF0ACFAA7F1640008
:1047B00001B240460BF031FB794940460AF02AF934
:1047C0003220009000230222494640460AF07AFC3B
:1047D000002148460AF080F9804672A10AF092FA58
:1047E000C83F39B240460BF018FB6D4940460831CE
:1047F0000AF010F9002302224946404600950AF0CB
:1048000061FC0021484600F04FFD804632226421C1
:104810000BF078FA3222642140460BF0B4FA664974
:1048200040460BF0D3F90021404608F0C7FB63A1D6
:1048300009F076FA3548634978300DF065FB40F2AF
:10484000692002F0C6FE0090304FBDF80000A4F8C9
:104850004400783740F6DF20BE8102F0BAFE0090B7
:10486000BDF80000A08740F26B46304602F0B1FE72
:104870000090BDF80000E087042078823D750A2092
:10488000F88040F6EF5002F0A4FE07F11804009003
:10489000BDF800002081394601F13C000DF034FBE9
:1048A000304602F096FE0090BDF80000E08540F62C
:1048B000BD0002F08EFE0090BDF80000E08440F2E2
:1048C0004A2002F086FE0090BDF80000208504F129
:1048D00024010220488240F6FF7002F07AFE009028
:1048E000BDF80000A4F844003A460021404600F01C
:1048F000D1FE04F124024046BDE8F843012100F056
:10490000C9BE0000807F0020E8800020747C002069
:10491000E8780108BC7F00204E65777E7E000000AD
:10492000FF00FF00F94500084F70656E00000000B1
:10493000EF81BB0044656C6574650000EF809400F6
:104940004564697400000000EF8180005361766562
:1049500000000000EF8387005769466900000000EF
:10496000EF87AB0047505300EF84A400436C6963AA
:104970006B206120627574746F6E20746F20636F9A
:10498000707920697473207465787420746F207452
:1049900068652054657874206172656120000000AC
:1049A000C00000205468697320697320616E6F74C1
:1049B0006865722062746E00992F000842757474E5
:1049C0006F6E0000F87F002010B52821074809F01D
:1049D00012FF0FF07BFD0649002303224860BDE86B
:1049E00010401E2103480FF0F3BB0000C4840020D8
:1049F000F00C0020C52E000870B54168044611B1C6
:104A0000206800F03DF8104809F0FFFE050014D0C2
:104A100094F82400282220F0040084F82400214681
:104A20002846FBF770FC6A681AB1288A01B2286828
:104A3000904706490120087070BD05A35C2208A1BB
:104A4000032009F0C9FFFEE7C4840020F00C002019
:104A50004F7574206F66206D656D6F72792100004F
:104A60002E2E5C6C76676C5C7372635C6C765F6D2B
:104A70006973635C6C765F616E696D2E6300000024
:104A80002DE9F04781468A460026134809F09AFE30
:104A900004460127DFF8448018E021460E4809F05B
:104AA00096FE2168054649450FD16168514502D0FF
:104AB000BAF1000F09D12146074809F051FF2046FD
:104AC0000AF06AFA88F8007001262C46002CE4D11E
:104AD0003046BDE8F0870000C4840020F00C0020C0
:104AE000028BB0F91A108A4202D14FF4806102E0C1
:104AF000890291FBF2F1D0E90423981A484302EBB2
:104B0000A02000B27047B0F91A10028B914201DB6D
:104B1000808A00E0008A00B270478B1A002B00DC0C
:104B2000531A4FF47A714B4393FBF0F0B0F5803F8A
:104B300002D34FF6FF7001E000B9012080B2704748
:104B4000C1884088081A401C00B27047B0F90410B0
:104B5000B0F90020891AB0F90620B0F90200101A45
:104B6000401C491C4843704781880088081A401C33
:104B700000B2704781880088081A401C00B2704754
:104B800070B5B1F90030B2F90040A34200DC234611
:104B90000380B1F90250B2F90240A54200DD2C4673
:104BA0004480B1F90460B2F90450AE4200DA3546EF
:104BB0008580B1F90610B2F90620914200DB11465A
:104BC000C1800120AB4201DC8C4200DD002070BDC1
:104BD00010B5B0F90030B1F900400022A34212DB59
:104BE000B0F90230B1F90240A3420CDBB0F9043055
:104BF000B1F90440A34206DCB0F90600B1F9061091
:104C0000884200DC0122104610BDB0F90020B1F945
:104C100004309A4213DCB0F90420B1F900309A4212
:104C20000DDBB0F90220B1F906309A4207DCB0F989
:104C30000600B1F90210884201DB01207047002014
:104C4000704710B5B1F90030B0F900400022A3421E
:104C50000EDBB0F90440A3420ADCB1F90210B0F94E
:104C60000230994204DBB0F90600814200DC0122E7
:104C7000104610BD10B5B1F90040B2F900309C42A9
:104C800000DA23460380B1F90240B2F902309C42B7
:104C900000DA23464380B1F90440B2F904309C4263
:104CA00000DD23468380B1F90610B2F90620914257
:104CB00000DC1146C18010BD10B5029C018042800D
:104CC0008380C48010BD4288491E1144C180704752
:104CD00030B5034680881C885D88001BDC88401C3A
:104CE000198000B2641B641C014624B25A80184625
:104CF00000F006F82146BDE830401846FFF7E3BF54
:104D00000288491E11448180704770B50C460546E3
:104D10000AF0DEFD44812846BDE870400AF086BEF8
:104D200010B5044600680AF0D3FD4FF0FF31418111
:104D3000B0F908102068BDE81040002200F034BA35
:104D400070B50E460AF05CFB050003D03A4C606873
:104D500038B10AE039A340223CA1032009F03CFE0F
:104D6000FEE728460AF0E8FD6060206818B928468A
:104D70000AF060FD2060142128460AF035FB04008B
:104D800030D0002060806421A1802080C821A181D2
:104D9000E0802081411E6181A07334482061344944
:104DA00028460AF0EEFF334928460AF0F4FE06B31F
:104DB00030460AF08DFD418861808188A18001889C
:104DC000218001692161807B00F00100A0732846E9
:104DD0000AF0CDFEB4F900100022284600F0E4F9F4
:104DE000284670BD15A3482218A1032009F0F4FD40
:104DF000FEE7002128460AF0C8FE2122C8212846E5
:104E00000AF0C1FFB4F900100022284600F0CCF9E6
:104E10000FF050FB04000AD000212846626D00F01C
:104E2000ADF901212846A26D00F0A8F9D8E7124992
:104E300028460AF0E8FFD3E7500D00204F75742094
:104E40006F66206D656D6F72792100002E2E5C6C8F
:104E500076676C5C7372635C6C765F6F626A785CB9
:104E60006C765F6261722E6300000000AC800020EF
:104E7000455200087D4E0008708000202DE9F04763
:104E8000914F90B0144689460546022A06D0002666
:104E900005F110083CB1012A7CD010E13B6810B04C
:104EA000BDE8F047184728460AF030FD82462846FC
:104EB0000AF00EFE80B10021284600F013F90146E9
:104EC00068460DF021F8ADF80C6053466A46494635
:104ED000404604F00FFC04E03B6822464946284661
:104EE000984728460AF0F4FC0446B0F90010B0F9DF
:104EF0000200814206D1A07BC00703D1B4F90600AD
:104F0000401CCAD00121284600F0ECF8024628696E
:104F1000009068690190BDF80010508B084403B2FE
:104F2000ADF80030BDF80410908BBDF80250091A9E
:104F3000ADF80410D08A2E18ADF80260BDF8065006
:104F4000108B281A05B2C81A401C01B2A81B401CBD
:104F500000B2ADF8065081424ADBB4F90A50681C31
:104F600019D0B4F90260B4F90600B4F90470801BDA
:104F7000BF1BB4F908C04843ACEB06064E4390FB98
:104F8000F7F096FBF7F600B236B2361A6E4300EB36
:104F900026200BE079E0B4F90050B4F90200B4F92E
:104FA00004602D1A4D43301A95FBF0F080B218447E
:104FB000401E05B2ADF80450A07BC00761D0B4F923
:104FC000020000285DDAB4F90440002C59DD241AEF
:104FD0004042484390FBF4F0184400B2854202DDA1
:104FE000ADF800004DE0ADF80050ADF8040048E029
:104FF000B4F90A104B1C18D0B4F90230B4F90660A9
:10500000B4F90470F61AFF1AB4F908C04643ACEBC1
:105010000303434396FBF7F693FBF7F336B21BB259
:105020009B1B4B4306EB23210AE0B4F90030B4F993
:105030000210B4F904605B1A4343711A93FBF1F157
:1050400089B2691A491C09B2ADF80210A37BDB07CB
:1050500017D0B4F90230002B13DAB4F90440002C55
:105060000FDDE41A5B42434393FBF4F0281A00B2CD
:10507000814202DAADF8060003E0ADF80610ADF8A3
:10508000020053464946684617E028460AF020FDCC
:10509000A8B128460AF03AFC04460021284600F050
:1050A00021F8014668460CF02FFF8DF80860ADF836
:1050B000126023466A464946404604F01BFB10B086
:1050C0000120BDE8F0870000500D002010B50AF067
:1050D000FFFBB0F9040010BD10B50AF0F9FBB0F900
:1050E000020010BD70B50D46064600240AF0F0FB24
:1050F00015B1012D06D104E030460AF01FFC04462C
:1051000000E00469204670BD10B50AF0E1FBB0F97B
:105110000A10491C02D0B0F9080010BDB0F9000017
:1051200010BD2DE9F04115460E4607460AF0D0FBAA
:105130000446B0F90200B04203D1B4F90400A84219
:105140001AD0A5806680B4F90000A84205DD25804C
:1051500029460022384600F027F8B4F90000B04292
:1051600005DA268031460022384600F01DF8384620
:10517000BDE8F0410AF05ABCBDE8F08170B51446B4
:105180000D4606460AF0A4FB3DB1012D0BD104618A
:105190003046BDE870400AF0DCBC21463046BDE830
:1051A00070400AF030BE70BD70B58AB015460C462E
:1051B00006460AF08DFBB0F90020A24231D0B0F9CA
:1051C0000410A14200DA0C46B0F90210A14200DD41
:1051D0000C46A24225D035B3B0F90A10491C29D09B
:1051E0000189C180048100214FF48072CDE904124D
:1051F000114ACDE90062114A0292114A0392ADF8B8
:105200001A108089ADF818009DF82400ADF81C1024
:1052100020F003008DF82400ADF81E106846FFF75B
:10522000EBFB0AB070BD04800AB03046BDE87040A8
:105230000AF0FCBB0188D4E70B4D0008E14A0008E6
:10524000214D00082DE9F041144B14460E465B68D1
:1052500007469847054601281DD1052E02D0062E87
:105260000CD017E001213846FFF73CFFB0F91200DF
:10527000B7F9341088420DDDB8860BE05FF000010D
:1052800054F8210018B1491CC9B20729F8D304A069
:1052900044F821002846BDE8F0810000500D0020B0
:1052A0006C765F62617200002DE9F0410D460746A1
:1052B00002F06EFA060003D0434CA06838B10AE051
:1052C00042A34F2245A1032009F086FBFEE73046AA
:1052D0000AF032FBA060E06818B930460AF0AAFA7A
:1052E000E060202130460AF07FF8040038D0A07F2B
:1052F000424961604249A1604249E16042492161FD
:105300004249616120F00F00A07700202083608374
:10531000A0833F4930460AF034FD3E4930460AF04A
:105320003AFC25B328460AF0D3FA827FA17F62F3C4
:105330000201A177827FD20862F3C301A177018BBA
:105340002183418B6183818BA183011D1422201D48
:10535000FAF7D9FF30460AF00AFC3046BDE8F08182
:105360001AA357221DA1032009F036FBFEE71FB147
:105370003046012102F0E9FE012130460AF005FC29
:105380000FF098F8050019D0002130462A6900F086
:1053900081F9012130466A6900F07CF9022130462A
:1053A000AA6900F077F903213046EA6900F072F942
:1053B000042130462A6A00F06DF9CEE73046616874
:1053C0000AF021FDC9E70000580D00204F75742038
:1053D0006F66206D656D6F72792100002E2E5C6CFA
:1053E00076676C5C7372635C6C765F6F626A785C24
:1053F0006C765F62746E2E6300000000E88000200F
:1054000024810020608100209C810020D881002020
:10541000D9560008195400082DE9F04F93B08B4677
:105420000646022A05D0604CE36832B1012A7DD0DD
:10543000B7E0002013B0BDE8F08F20698642304607
:1054400074D10AF063FA119030460AF041FAE1781B
:10545000054606F1100AC1B1207805EB80004168CD
:1054600068460CF051FDA0886A4683B2607805EB6F
:1054700080004168207805EB800040680CF0D4FF84
:105480006A4659465046119B87E02078A04605EBB6
:105490008000416868460CF037FD60786A4605EB8D
:1054A000800059464068119B408AADF81200504672
:1054B00004F020F930460AF099FA044630460AF022
:1054C0000BFA844201DA214600E0014601EBD1717A
:1054D0004F10B8F90410C146802900DB8021324A00
:1054E000338A143204EBD478B2F800C003EB6803BB
:1054F000768A528800EBD07806EB6806A3EB0C03A3
:10550000B61A13FB01F30CEBE3131BB216FB01F607
:1055100002EBE61212B2844200DD204600EBD070AE
:10552000401010FB01F0A3EBE01100E038E0ADF813
:105530003C10A2EBE011ADF83E1003EBE011ADF82A
:10554000401002EBE010ADF842000FAA51461046A1
:10555000FFF716FBB9F904004C46802801DD8038BE
:1055600000E0002006B2607805EB800041686846E4
:105570000CF0CAFC20786A4605EB8000594640686A
:10558000119BB0F90600C01B704307EBE010ADF8AB
:1055900006000020ADF80C000FA804F0ABF800E006
:1055A0009847012046E70000580D002010B50AF08A
:1055B0008FF9807F00F0070010BD10B50AF088F960
:1055C000807FC0F3C00010BD002803D0024A918044
:1055D0000AF02CBA70470000580D0020F0B51E4CA0
:1055E0008BB020690AF074F905462069FFF7DEFFE9
:1055F000064620690AF01AFA0127A77000200EB1AA
:10560000022E04D1A97F090701D4E17811B12061EC
:105610000BB0F0BD216900914FF48071CDE9041009
:105620000E4901910E4902910E490391698B49423D
:10563000ADF81A10A98BADF818109DF82410ADF82C
:105640001C0021F00301ADF81E008DF824106846FF
:10565000FFF7D2F9E770DBE7580D0020C9550008C5
:10566000E14A0008DD55000870B50C4605460AF011
:105670002FF9817F01F00702A2420AD064F30201F0
:10568000817700EB840041682846BDE870400AF04D
:10569000BABB70BD70B514460D4606460AF018F93F
:1056A000052D0DD2DFE805F0030507090B00446066
:1056B00006E0846004E0C46002E0046100E044614C
:1056C000817F01F0070100EB810041683046BDE8B1
:1056D00070400AF098BB00002DE9F74FDFF8B0A248
:1056E0008AB00D46DAF8083080460C9A984706468C
:1056F00001286ED140460AF0EBF804464046FFF719
:105700005CFF07464FF0010B4FF00009072D0CD04E
:10571000092D6BD0082D64D00A2D73D0112D6ED0B9
:10572000002D6DD0062D6CD02EE1A07F410704D056
:1057300000F00700022809D012E001214046FFF7DF
:1057400093FF8AF800908AF801B009E003214046EF
:10575000FFF78AFF02218AF8001003218AF801105E
:10576000DAF81000554648B1404507D08949FFF79F
:1057700087F928690AF05AF9C5F81090208B00289B
:10578000D2D0C5F8108085F803904F4685F8029076
:1057900007F0CAF87E49143107F0DCF84FF4807046
:1057A000CDE904707B48CDE900807B4802907B48BE
:1057B0000390ADF81A70208BADF818009DF8240006
:1057C000ADF81C7020F003008DF82400ADF81E70B9
:1057D00095E0CCE0002100E002214046FFF744FFC5
:1057E000D2E00C9807F0DAF800289DD0A07F00F0F6
:1057F00007000128EED00328EED0C5E002E082E0E9
:10580000AAE0B5E00C9807F0C9F838B1A07F00F025
:10581000070001283AD003283AD03DE0CDF80090A7
:10582000A07F4D4600F00700012800D117B10328E2
:1058300006D006E000214046FFF716FF00952BE05A
:1058400017B1012807D00EE002214046FFF70CFFF8
:10585000CDF800B020E037B102214046FFF704FF49
:10586000CDF800B002E0032809D0AFB16A460E219E
:10587000404605F0D7FB0646012878D10CE05FB121
:1058800000214046FFF7F0FE0095EFE7002100E021
:1058900002214046FFF7E8FEA07F010704D500F093
:1058A00007018AF801106FE09AF80200554648B3E4
:1058B000A08B38B3C5F8108085F803B007F034F832
:1058C0003349143107F046F82869324901910090B4
:1058D0004FF480703049CDE9040902912F490391BA
:1058E000ADF81A90A18BADF818109DF82410ADF802
:1058F0001C9021F003018DF82410ADF81E9068462D
:10590000FFF77AF840E00C980078132806D01128A9
:1059100004D014280DD012280BD035E04046FFF7F4
:105920004CFE18B302214046FFF79EFECDF800B0B2
:1059300009E04046FFF741FEC0B100214046FFF7B5
:1059400093FECDF800906A460E21404605F06AFBB2
:105950000646012819D117E0DAF8100054468045B0
:1059600012D10C49FFF78CF8C4F810900CE00CE051
:105970000C99002051F820201AB1401CC0B2072811
:10598000F8D307A241F8202030460DB0BDE8F08FD3
:10599000580D0020C9550008E14A0008DD550008EF
:1059A0006C765F62746E000070B515460C46064654
:1059B00009F08EFF018CA1420BD9806830F81410D9
:1059C000A94320F8141021463046BDE87040FEF788
:1059D00027B870BD2DE9F0410E46074609F078FF63
:1059E0000546002406E0324621463846FFF7DCFF34
:1059F000641CA4B2288CA042F5D8BDE8F081000058
:105A00002DE9F0410F4609F0FBFC060003D0464D9E
:105A1000686838B10AE045A3492248A1032008F08C
:105A2000DBFFFEE7304609F087FF6860282130463B
:105A300009F0DAFC04001BD0002020844FF6FF712F
:105A40006184A1846060A060206094F8260020F04A
:105A5000030084F826004148E06041482061414845
:105A600060614148A0614148E061286838B10AE0BE
:105A70002EA3502231A1032008F0AEFFFEE73046EE
:105A800009F0D8FE28603A4930460AF07AF93949D7
:105A900030460AF080F89FB1384609F019FF00F14E
:105AA0000C01142204F10C00FAF72DFC384600F02A
:105AB000E7F90146304600F043FA3046BDE8F08190
:105AC000C8224FF4967130460AF05DF91649304607
:105AD000083100F035FA0EF0EDFC04001FD054F848
